{
  "_format": "hh-sol-artifact-1",
  "contractName": "DappBreed",
  "sourceName": "src/contracts/DappBreed.sol",
  "abi": [
    {
      "inputs": [
        {
          "internalType": "string",
          "name": "_name",
          "type": "string"
        },
        {
          "internalType": "string",
          "name": "_symbol",
          "type": "string"
        },
        {
          "internalType": "string",
          "name": "_BaseURI",
          "type": "string"
        },
        {
          "internalType": "uint256",
          "name": "_maxSupply",
          "type": "uint256"
        }
      ],
      "stateMutability": "nonpayable",
      "type": "constructor"
    },
    {
      "anonymous": false,
      "inputs": [
        {
          "indexed": true,
          "internalType": "address",
          "name": "owner",
          "type": "address"
        },
        {
          "indexed": true,
          "internalType": "address",
          "name": "approved",
          "type": "address"
        },
        {
          "indexed": true,
          "internalType": "uint256",
          "name": "tokenId",
          "type": "uint256"
        }
      ],
      "name": "Approval",
      "type": "event"
    },
    {
      "anonymous": false,
      "inputs": [
        {
          "indexed": true,
          "internalType": "address",
          "name": "owner",
          "type": "address"
        },
        {
          "indexed": true,
          "internalType": "address",
          "name": "operator",
          "type": "address"
        },
        {
          "indexed": false,
          "internalType": "bool",
          "name": "approved",
          "type": "bool"
        }
      ],
      "name": "ApprovalForAll",
      "type": "event"
    },
    {
      "anonymous": false,
      "inputs": [
        {
          "indexed": false,
          "internalType": "uint256",
          "name": "_fromTokenId",
          "type": "uint256"
        },
        {
          "indexed": false,
          "internalType": "uint256",
          "name": "_toTokenId",
          "type": "uint256"
        }
      ],
      "name": "BatchMetadataUpdate",
      "type": "event"
    },
    {
      "anonymous": false,
      "inputs": [
        {
          "indexed": false,
          "internalType": "uint256",
          "name": "_tokenId",
          "type": "uint256"
        }
      ],
      "name": "MetadataUpdate",
      "type": "event"
    },
    {
      "anonymous": false,
      "inputs": [
        {
          "indexed": true,
          "internalType": "address",
          "name": "previousOwner",
          "type": "address"
        },
        {
          "indexed": true,
          "internalType": "address",
          "name": "newOwner",
          "type": "address"
        }
      ],
      "name": "OwnershipTransferred",
      "type": "event"
    },
    {
      "anonymous": false,
      "inputs": [
        {
          "indexed": true,
          "internalType": "address",
          "name": "from",
          "type": "address"
        },
        {
          "indexed": true,
          "internalType": "address",
          "name": "to",
          "type": "address"
        },
        {
          "indexed": true,
          "internalType": "uint256",
          "name": "tokenId",
          "type": "uint256"
        }
      ],
      "name": "Transfer",
      "type": "event"
    },
    {
      "inputs": [
        {
          "internalType": "address",
          "name": "to",
          "type": "address"
        },
        {
          "internalType": "uint256",
          "name": "tokenId",
          "type": "uint256"
        }
      ],
      "name": "approve",
      "outputs": [],
      "stateMutability": "nonpayable",
      "type": "function"
    },
    {
      "inputs": [
        {
          "internalType": "address",
          "name": "owner",
          "type": "address"
        }
      ],
      "name": "balanceOf",
      "outputs": [
        {
          "internalType": "uint256",
          "name": "",
          "type": "uint256"
        }
      ],
      "stateMutability": "view",
      "type": "function"
    },
    {
      "inputs": [],
      "name": "baseExtension",
      "outputs": [
        {
          "internalType": "string",
          "name": "",
          "type": "string"
        }
      ],
      "stateMutability": "view",
      "type": "function"
    },
    {
      "inputs": [],
      "name": "baseURI",
      "outputs": [
        {
          "internalType": "string",
          "name": "",
          "type": "string"
        }
      ],
      "stateMutability": "view",
      "type": "function"
    },
    {
      "inputs": [
        {
          "internalType": "uint256",
          "name": "_fatherTokenId",
          "type": "uint256"
        },
        {
          "internalType": "uint256",
          "name": "_motherTokenId",
          "type": "uint256"
        }
      ],
      "name": "breedNft",
      "outputs": [],
      "stateMutability": "payable",
      "type": "function"
    },
    {
      "inputs": [],
      "name": "getAllNfts",
      "outputs": [
        {
          "components": [
            {
              "internalType": "uint256",
              "name": "id",
              "type": "uint256"
            },
            {
              "internalType": "address",
              "name": "owner",
              "type": "address"
            },
            {
              "internalType": "uint256",
              "name": "mintCost",
              "type": "uint256"
            },
            {
              "internalType": "uint256",
              "name": "timestamp",
              "type": "uint256"
            },
            {
              "components": [
                {
                  "internalType": "string",
                  "name": "name",
                  "type": "string"
                },
                {
                  "internalType": "string",
                  "name": "description",
                  "type": "string"
                },
                {
                  "internalType": "string",
                  "name": "weapon",
                  "type": "string"
                },
                {
                  "internalType": "string",
                  "name": "image",
                  "type": "string"
                },
                {
                  "internalType": "string",
                  "name": "environment",
                  "type": "string"
                },
                {
                  "internalType": "uint256",
                  "name": "rarity",
                  "type": "uint256"
                },
                {
                  "internalType": "bool",
                  "name": "breeded",
                  "type": "bool"
                },
                {
                  "internalType": "uint256[]",
                  "name": "parents",
                  "type": "uint256[]"
                }
              ],
              "internalType": "struct DappBreed.TraitStruct",
              "name": "traits",
              "type": "tuple"
            }
          ],
          "internalType": "struct DappBreed.MintStruct[]",
          "name": "Minted",
          "type": "tuple[]"
        }
      ],
      "stateMutability": "view",
      "type": "function"
    },
    {
      "inputs": [
        {
          "internalType": "uint256",
          "name": "tokenId",
          "type": "uint256"
        }
      ],
      "name": "getApproved",
      "outputs": [
        {
          "internalType": "address",
          "name": "",
          "type": "address"
        }
      ],
      "stateMutability": "view",
      "type": "function"
    },
    {
      "inputs": [],
      "name": "getBreededNfts",
      "outputs": [
        {
          "components": [
            {
              "internalType": "uint256",
              "name": "id",
              "type": "uint256"
            },
            {
              "internalType": "address",
              "name": "owner",
              "type": "address"
            },
            {
              "internalType": "uint256",
              "name": "mintCost",
              "type": "uint256"
            },
            {
              "internalType": "uint256",
              "name": "timestamp",
              "type": "uint256"
            },
            {
              "components": [
                {
                  "internalType": "string",
                  "name": "name",
                  "type": "string"
                },
                {
                  "internalType": "string",
                  "name": "description",
                  "type": "string"
                },
                {
                  "internalType": "string",
                  "name": "weapon",
                  "type": "string"
                },
                {
                  "internalType": "string",
                  "name": "image",
                  "type": "string"
                },
                {
                  "internalType": "string",
                  "name": "environment",
                  "type": "string"
                },
                {
                  "internalType": "uint256",
                  "name": "rarity",
                  "type": "uint256"
                },
                {
                  "internalType": "bool",
                  "name": "breeded",
                  "type": "bool"
                },
                {
                  "internalType": "uint256[]",
                  "name": "parents",
                  "type": "uint256[]"
                }
              ],
              "internalType": "struct DappBreed.TraitStruct",
              "name": "traits",
              "type": "tuple"
            }
          ],
          "internalType": "struct DappBreed.MintStruct[]",
          "name": "Minted",
          "type": "tuple[]"
        }
      ],
      "stateMutability": "view",
      "type": "function"
    },
    {
      "inputs": [],
      "name": "getMintedNfts",
      "outputs": [
        {
          "components": [
            {
              "internalType": "uint256",
              "name": "id",
              "type": "uint256"
            },
            {
              "internalType": "address",
              "name": "owner",
              "type": "address"
            },
            {
              "internalType": "uint256",
              "name": "mintCost",
              "type": "uint256"
            },
            {
              "internalType": "uint256",
              "name": "timestamp",
              "type": "uint256"
            },
            {
              "components": [
                {
                  "internalType": "string",
                  "name": "name",
                  "type": "string"
                },
                {
                  "internalType": "string",
                  "name": "description",
                  "type": "string"
                },
                {
                  "internalType": "string",
                  "name": "weapon",
                  "type": "string"
                },
                {
                  "internalType": "string",
                  "name": "image",
                  "type": "string"
                },
                {
                  "internalType": "string",
                  "name": "environment",
                  "type": "string"
                },
                {
                  "internalType": "uint256",
                  "name": "rarity",
                  "type": "uint256"
                },
                {
                  "internalType": "bool",
                  "name": "breeded",
                  "type": "bool"
                },
                {
                  "internalType": "uint256[]",
                  "name": "parents",
                  "type": "uint256[]"
                }
              ],
              "internalType": "struct DappBreed.TraitStruct",
              "name": "traits",
              "type": "tuple"
            }
          ],
          "internalType": "struct DappBreed.MintStruct[]",
          "name": "Minted",
          "type": "tuple[]"
        }
      ],
      "stateMutability": "view",
      "type": "function"
    },
    {
      "inputs": [],
      "name": "getMyNfts",
      "outputs": [
        {
          "components": [
            {
              "internalType": "uint256",
              "name": "id",
              "type": "uint256"
            },
            {
              "internalType": "address",
              "name": "owner",
              "type": "address"
            },
            {
              "internalType": "uint256",
              "name": "mintCost",
              "type": "uint256"
            },
            {
              "internalType": "uint256",
              "name": "timestamp",
              "type": "uint256"
            },
            {
              "components": [
                {
                  "internalType": "string",
                  "name": "name",
                  "type": "string"
                },
                {
                  "internalType": "string",
                  "name": "description",
                  "type": "string"
                },
                {
                  "internalType": "string",
                  "name": "weapon",
                  "type": "string"
                },
                {
                  "internalType": "string",
                  "name": "image",
                  "type": "string"
                },
                {
                  "internalType": "string",
                  "name": "environment",
                  "type": "string"
                },
                {
                  "internalType": "uint256",
                  "name": "rarity",
                  "type": "uint256"
                },
                {
                  "internalType": "bool",
                  "name": "breeded",
                  "type": "bool"
                },
                {
                  "internalType": "uint256[]",
                  "name": "parents",
                  "type": "uint256[]"
                }
              ],
              "internalType": "struct DappBreed.TraitStruct",
              "name": "traits",
              "type": "tuple"
            }
          ],
          "internalType": "struct DappBreed.MintStruct[]",
          "name": "Minted",
          "type": "tuple[]"
        }
      ],
      "stateMutability": "view",
      "type": "function"
    },
    {
      "inputs": [
        {
          "internalType": "uint256",
          "name": "_tokenId",
          "type": "uint256"
        }
      ],
      "name": "getNft",
      "outputs": [
        {
          "components": [
            {
              "internalType": "uint256",
              "name": "id",
              "type": "uint256"
            },
            {
              "internalType": "address",
              "name": "owner",
              "type": "address"
            },
            {
              "internalType": "uint256",
              "name": "mintCost",
              "type": "uint256"
            },
            {
              "internalType": "uint256",
              "name": "timestamp",
              "type": "uint256"
            },
            {
              "components": [
                {
                  "internalType": "string",
                  "name": "name",
                  "type": "string"
                },
                {
                  "internalType": "string",
                  "name": "description",
                  "type": "string"
                },
                {
                  "internalType": "string",
                  "name": "weapon",
                  "type": "string"
                },
                {
                  "internalType": "string",
                  "name": "image",
                  "type": "string"
                },
                {
                  "internalType": "string",
                  "name": "environment",
                  "type": "string"
                },
                {
                  "internalType": "uint256",
                  "name": "rarity",
                  "type": "uint256"
                },
                {
                  "internalType": "bool",
                  "name": "breeded",
                  "type": "bool"
                },
                {
                  "internalType": "uint256[]",
                  "name": "parents",
                  "type": "uint256[]"
                }
              ],
              "internalType": "struct DappBreed.TraitStruct",
              "name": "traits",
              "type": "tuple"
            }
          ],
          "internalType": "struct DappBreed.MintStruct",
          "name": "",
          "type": "tuple"
        }
      ],
      "stateMutability": "view",
      "type": "function"
    },
    {
      "inputs": [
        {
          "internalType": "uint256",
          "name": "_tokenId",
          "type": "uint256"
        }
      ],
      "name": "getParentsOf",
      "outputs": [
        {
          "components": [
            {
              "internalType": "uint256",
              "name": "id",
              "type": "uint256"
            },
            {
              "internalType": "address",
              "name": "owner",
              "type": "address"
            },
            {
              "internalType": "uint256",
              "name": "mintCost",
              "type": "uint256"
            },
            {
              "internalType": "uint256",
              "name": "timestamp",
              "type": "uint256"
            },
            {
              "components": [
                {
                  "internalType": "string",
                  "name": "name",
                  "type": "string"
                },
                {
                  "internalType": "string",
                  "name": "description",
                  "type": "string"
                },
                {
                  "internalType": "string",
                  "name": "weapon",
                  "type": "string"
                },
                {
                  "internalType": "string",
                  "name": "image",
                  "type": "string"
                },
                {
                  "internalType": "string",
                  "name": "environment",
                  "type": "string"
                },
                {
                  "internalType": "uint256",
                  "name": "rarity",
                  "type": "uint256"
                },
                {
                  "internalType": "bool",
                  "name": "breeded",
                  "type": "bool"
                },
                {
                  "internalType": "uint256[]",
                  "name": "parents",
                  "type": "uint256[]"
                }
              ],
              "internalType": "struct DappBreed.TraitStruct",
              "name": "traits",
              "type": "tuple"
            }
          ],
          "internalType": "struct DappBreed.MintStruct[]",
          "name": "Minted",
          "type": "tuple[]"
        }
      ],
      "stateMutability": "view",
      "type": "function"
    },
    {
      "inputs": [],
      "name": "imageExtension",
      "outputs": [
        {
          "internalType": "string",
          "name": "",
          "type": "string"
        }
      ],
      "stateMutability": "view",
      "type": "function"
    },
    {
      "inputs": [
        {
          "internalType": "address",
          "name": "owner",
          "type": "address"
        },
        {
          "internalType": "address",
          "name": "operator",
          "type": "address"
        }
      ],
      "name": "isApprovedForAll",
      "outputs": [
        {
          "internalType": "bool",
          "name": "",
          "type": "bool"
        }
      ],
      "stateMutability": "view",
      "type": "function"
    },
    {
      "inputs": [],
      "name": "maxSupply",
      "outputs": [
        {
          "internalType": "uint256",
          "name": "",
          "type": "uint256"
        }
      ],
      "stateMutability": "view",
      "type": "function"
    },
    {
      "inputs": [],
      "name": "mintCost",
      "outputs": [
        {
          "internalType": "uint256",
          "name": "",
          "type": "uint256"
        }
      ],
      "stateMutability": "view",
      "type": "function"
    },
    {
      "inputs": [],
      "name": "mintNft",
      "outputs": [],
      "stateMutability": "payable",
      "type": "function"
    },
    {
      "inputs": [],
      "name": "name",
      "outputs": [
        {
          "internalType": "string",
          "name": "",
          "type": "string"
        }
      ],
      "stateMutability": "view",
      "type": "function"
    },
    {
      "inputs": [],
      "name": "owner",
      "outputs": [
        {
          "internalType": "address",
          "name": "",
          "type": "address"
        }
      ],
      "stateMutability": "view",
      "type": "function"
    },
    {
      "inputs": [
        {
          "internalType": "uint256",
          "name": "tokenId",
          "type": "uint256"
        }
      ],
      "name": "ownerOf",
      "outputs": [
        {
          "internalType": "address",
          "name": "",
          "type": "address"
        }
      ],
      "stateMutability": "view",
      "type": "function"
    },
    {
      "inputs": [],
      "name": "renounceOwnership",
      "outputs": [],
      "stateMutability": "nonpayable",
      "type": "function"
    },
    {
      "inputs": [
        {
          "internalType": "address",
          "name": "from",
          "type": "address"
        },
        {
          "internalType": "address",
          "name": "to",
          "type": "address"
        },
        {
          "internalType": "uint256",
          "name": "tokenId",
          "type": "uint256"
        }
      ],
      "name": "safeTransferFrom",
      "outputs": [],
      "stateMutability": "nonpayable",
      "type": "function"
    },
    {
      "inputs": [
        {
          "internalType": "address",
          "name": "from",
          "type": "address"
        },
        {
          "internalType": "address",
          "name": "to",
          "type": "address"
        },
        {
          "internalType": "uint256",
          "name": "tokenId",
          "type": "uint256"
        },
        {
          "internalType": "bytes",
          "name": "data",
          "type": "bytes"
        }
      ],
      "name": "safeTransferFrom",
      "outputs": [],
      "stateMutability": "nonpayable",
      "type": "function"
    },
    {
      "inputs": [
        {
          "internalType": "address",
          "name": "operator",
          "type": "address"
        },
        {
          "internalType": "bool",
          "name": "approved",
          "type": "bool"
        }
      ],
      "name": "setApprovalForAll",
      "outputs": [],
      "stateMutability": "nonpayable",
      "type": "function"
    },
    {
      "inputs": [
        {
          "internalType": "string",
          "name": "_newBaseURI",
          "type": "string"
        }
      ],
      "name": "setBaseURI",
      "outputs": [],
      "stateMutability": "nonpayable",
      "type": "function"
    },
    {
      "inputs": [
        {
          "internalType": "bytes4",
          "name": "interfaceId",
          "type": "bytes4"
        }
      ],
      "name": "supportsInterface",
      "outputs": [
        {
          "internalType": "bool",
          "name": "",
          "type": "bool"
        }
      ],
      "stateMutability": "view",
      "type": "function"
    },
    {
      "inputs": [],
      "name": "symbol",
      "outputs": [
        {
          "internalType": "string",
          "name": "",
          "type": "string"
        }
      ],
      "stateMutability": "view",
      "type": "function"
    },
    {
      "inputs": [
        {
          "internalType": "uint256",
          "name": "_tokenId",
          "type": "uint256"
        }
      ],
      "name": "tokenURI",
      "outputs": [
        {
          "internalType": "string",
          "name": "",
          "type": "string"
        }
      ],
      "stateMutability": "view",
      "type": "function"
    },
    {
      "inputs": [],
      "name": "totalBalance",
      "outputs": [
        {
          "internalType": "uint256",
          "name": "",
          "type": "uint256"
        }
      ],
      "stateMutability": "view",
      "type": "function"
    },
    {
      "inputs": [
        {
          "internalType": "address",
          "name": "from",
          "type": "address"
        },
        {
          "internalType": "address",
          "name": "to",
          "type": "address"
        },
        {
          "internalType": "uint256",
          "name": "tokenId",
          "type": "uint256"
        }
      ],
      "name": "transferFrom",
      "outputs": [],
      "stateMutability": "nonpayable",
      "type": "function"
    },
    {
      "inputs": [
        {
          "internalType": "address",
          "name": "newOwner",
          "type": "address"
        }
      ],
      "name": "transferOwnership",
      "outputs": [],
      "stateMutability": "nonpayable",
      "type": "function"
    }
  ],
  "bytecode": "0x60c06040526005608081905264173539b7b760d91b60a09081526200002891600c9190620003ba565b506040805180820190915260058082526402e776562760dc1b60209092019182526200005791600d91620003ba565b506611c37937e08000600e5560408051610140810182526005610100820181815264537469636b60d81b610120840152825282518084018452818152644b6e69666560d81b602082810191909152808401919091528351808501855282815264426c61646560d81b818301528385015283518085018552600481526321b63ab160e11b818301526060840152835180850185526002815261082f60f31b818301526080840152835180850185528281526414dddbdc9960da1b8183015260a0840152835180850185529182526429b832b0b960d91b8282015260c08301919091528251808401909352600783526612185b18995c9960ca1b9083015260e08101919091526200016b90601290600862000449565b5060408051610140810182526005610100820190815264537061636560d81b6101208301528152815180830183526003815262536b7960e81b60208281019190915280830191909152825180840184526007808252664465736572747360c81b82840152838501919091528351808501855290815266466f726573747360c81b81830152606083015282518084018452600a81526947726173736c616e647360b01b8183015260808301528251808401845260098152684d6f756e7461696e7360b81b8183015260a08301528251808401845260068152654f6365616e7360d01b8183015260c08301528251808401909352600b83526a5261696e666f726573747360a81b9083015260e08101919091526200028c90601390600862000449565b5060408051600580825260c08201909252906020820160a08036833750508151620002bf926014925060200190620004a9565b50348015620002cd57600080fd5b506040516200580438038062005804833981016040819052620002f0916200062d565b83518490849062000309906000906020850190620003ba565b5080516200031f906001906020840190620003ba565b5050506200033c620003366200036460201b60201c565b62000368565b600160085581516200035690600a906020850190620003ba565b50600b555062000703915050565b3390565b600780546001600160a01b038381166001600160a01b0319831681179093556040519116919082907f8be0079c531659141344cd1fd0a4f28419497f9722a3daafe3b4186f6b6457e090600090a35050565b828054620003c890620006c6565b90600052602060002090601f016020900481019282620003ec576000855562000437565b82601f106200040757805160ff191683800117855562000437565b8280016001018555821562000437579182015b82811115620004375782518255916020019190600101906200041a565b5062000445929150620004e6565b5090565b8280548282559060005260206000209081019282156200049b579160200282015b828111156200049b57825180516200048a918491602090910190620003ba565b50916020019190600101906200046a565b5062000445929150620004fd565b828054828255906000526020600020908101928215620004375791602002820182811115620004375782518255916020019190600101906200041a565b5b80821115620004455760008155600101620004e7565b80821115620004455760006200051482826200051e565b50600101620004fd565b5080546200052c90620006c6565b6000825580601f106200053d575050565b601f0160209004906000526020600020908101906200055d9190620004e6565b50565b634e487b7160e01b600052604160045260246000fd5b600082601f8301126200058857600080fd5b81516001600160401b0380821115620005a557620005a562000560565b604051601f8301601f19908116603f01168101908282118183101715620005d057620005d062000560565b81604052838152602092508683858801011115620005ed57600080fd5b600091505b83821015620006115785820183015181830184015290820190620005f2565b83821115620006235760008385830101525b9695505050505050565b600080600080608085870312156200064457600080fd5b84516001600160401b03808211156200065c57600080fd5b6200066a8883890162000576565b955060208701519150808211156200068157600080fd5b6200068f8883890162000576565b94506040870151915080821115620006a657600080fd5b50620006b58782880162000576565b606096909601519497939650505050565b600181811c90821680620006db57607f821691505b60208210811415620006fd57634e487b7160e01b600052602260045260246000fd5b50919050565b6150f180620007136000396000f3fe6080604052600436106101d85760003560e01c8063732e8d7311610102578063c2229fea11610095578063d9ce81e511610064578063d9ce81e514610504578063e985e9c514610519578063f2fde38b14610562578063fc8a16a01461058257600080fd5b8063c2229fea146104b1578063c6682862146104b9578063c87b56dd146104ce578063d5abeb01146104ee57600080fd5b8063a9ef3aeb116100d1578063a9ef3aeb14610450578063ad7a672f14610465578063b88d4fde1461047b578063bdb4b8481461049b57600080fd5b8063732e8d73146103e85780638da5cb5b146103fd57806395d89b411461041b578063a22cb4651461043057600080fd5b806323b872dd1161017a5780636352211e116101495780636352211e146103705780636c0360eb1461039057806370a08231146103a5578063715018a6146103d357600080fd5b806323b872dd146102e357806341f63bfd1461030357806342842e0e1461033057806355f804b31461035057600080fd5b806306fdde03116101b657806306fdde0314610254578063081812fc14610276578063095ea7b3146102ae57806311f5a1d4146102d057600080fd5b806301ffc9a7146101dd578063047b07bf1461021257806305690ae214610234575b600080fd5b3480156101e957600080fd5b506101fd6101f8366004614512565b610597565b60405190151581526020015b60405180910390f35b34801561021e57600080fd5b506102276105a8565b60405161020991906146d1565b34801561024057600080fd5b5061022761024f366004614733565b610ac4565b34801561026057600080fd5b5061026961105f565b604051610209919061474c565b34801561028257600080fd5b50610296610291366004614733565b6110f1565b6040516001600160a01b039091168152602001610209565b3480156102ba57600080fd5b506102ce6102c936600461477b565b611118565b005b6102ce6102de3660046147a5565b611233565b3480156102ef57600080fd5b506102ce6102fe3660046147c7565b611753565b34801561030f57600080fd5b5061032361031e366004614733565b611784565b6040516102099190614803565b34801561033c57600080fd5b506102ce61034b3660046147c7565b611b4b565b34801561035c57600080fd5b506102ce61036b3660046148a2565b611b66565b34801561037c57600080fd5b5061029661038b366004614733565b611b81565b34801561039c57600080fd5b50610269611be1565b3480156103b157600080fd5b506103c56103c03660046148eb565b611c6f565b604051908152602001610209565b3480156103df57600080fd5b506102ce611cf5565b3480156103f457600080fd5b50610227611d09565b34801561040957600080fd5b506007546001600160a01b0316610296565b34801561042757600080fd5b5061026961218a565b34801561043c57600080fd5b506102ce61044b366004614906565b612199565b34801561045c57600080fd5b506102696121a4565b34801561047157600080fd5b506103c5600f5481565b34801561048757600080fd5b506102ce610496366004614942565b6121b1565b3480156104a757600080fd5b506103c5600e5481565b6102ce6121e9565b3480156104c557600080fd5b5061026961261c565b3480156104da57600080fd5b506102696104e9366004614733565b612629565b3480156104fa57600080fd5b506103c5600b5481565b34801561051057600080fd5b506102276126b1565b34801561052557600080fd5b506101fd6105343660046149be565b6001600160a01b03918216600090815260056020908152604080832093909416825291909152205460ff1690565b34801561056e57600080fd5b506102ce61057d3660046148eb565b612bb7565b34801561058e57600080fd5b50610227612c30565b60006105a282613134565b92915050565b60606000805b60095481101561060b5733601060006105c8846001614a07565b81526020810191909152604001600020600101546001600160a01b031614156105f957816105f581614a1f565b9250505b8061060381614a1f565b9150506105ae565b508067ffffffffffffffff81111561062557610625614816565b60405190808252806020026020018201604052801561065e57816020015b61064b6143a9565b8152602001906001900390816106435790505b5091506000805b600954811015610abe57336010600061067f846001614a07565b81526020810191909152604001600020600101546001600160a01b03161415610aac57601060006106b1836001614a07565b81526020019081526020016000206040518060a0016040529081600082015481526020016001820160009054906101000a90046001600160a01b03166001600160a01b03166001600160a01b031681526020016002820154815260200160038201548152602001600482016040518061010001604052908160008201805461073890614a3a565b80601f016020809104026020016040519081016040528092919081815260200182805461076490614a3a565b80156107b15780601f10610786576101008083540402835291602001916107b1565b820191906000526020600020905b81548152906001019060200180831161079457829003601f168201915b505050505081526020016001820180546107ca90614a3a565b80601f01602080910402602001604051908101604052809291908181526020018280546107f690614a3a565b80156108435780601f1061081857610100808354040283529160200191610843565b820191906000526020600020905b81548152906001019060200180831161082657829003601f168201915b5050505050815260200160028201805461085c90614a3a565b80601f016020809104026020016040519081016040528092919081815260200182805461088890614a3a565b80156108d55780601f106108aa576101008083540402835291602001916108d5565b820191906000526020600020905b8154815290600101906020018083116108b857829003601f168201915b505050505081526020016003820180546108ee90614a3a565b80601f016020809104026020016040519081016040528092919081815260200182805461091a90614a3a565b80156109675780601f1061093c57610100808354040283529160200191610967565b820191906000526020600020905b81548152906001019060200180831161094a57829003601f168201915b5050505050815260200160048201805461098090614a3a565b80601f01602080910402602001604051908101604052809291908181526020018280546109ac90614a3a565b80156109f95780601f106109ce576101008083540402835291602001916109f9565b820191906000526020600020905b8154815290600101906020018083116109dc57829003601f168201915b50505050508152602001600582015481526020016006820160009054906101000a900460ff1615151515815260200160078201805480602002602001604051908101604052809291908181526020018280548015610a7657602002820191906000526020600020905b815481526020019060010190808311610a62575b505050919092525050509052508483610a8e81614a1f565b945081518110610aa057610aa0614a75565b60200260200101819052505b80610ab681614a1f565b915050610665565b50505090565b6000818152601060205260409020600a015460609060ff16610b18576040805160008082526020820190925290610b11565b610afe6143a9565b815260200190600190039081610af65790505b5092915050565b6000828152601060205260409020600b015467ffffffffffffffff811115610b4257610b42614816565b604051908082528060200260200182016040528015610b7b57816020015b610b686143a9565b815260200190600190039081610b605790505b5090506000805b600954811015611058576000848152601060205260408120600b018054909190610bae57610bae614a75565b906000526020600020015460106000836001610bca9190614a07565b8152602001908152602001600020600001541480610c3757506000848152601060205260409020600b0180546001908110610c0757610c07614a75565b906000526020600020015460106000836001610c239190614a07565b815260200190815260200160002060000154145b156110465760106000610c4b836001614a07565b81526020019081526020016000206040518060a0016040529081600082015481526020016001820160009054906101000a90046001600160a01b03166001600160a01b03166001600160a01b0316815260200160028201548152602001600382015481526020016004820160405180610100016040529081600082018054610cd290614a3a565b80601f0160208091040260200160405190810160405280929190818152602001828054610cfe90614a3a565b8015610d4b5780601f10610d2057610100808354040283529160200191610d4b565b820191906000526020600020905b815481529060010190602001808311610d2e57829003601f168201915b50505050508152602001600182018054610d6490614a3a565b80601f0160208091040260200160405190810160405280929190818152602001828054610d9090614a3a565b8015610ddd5780601f10610db257610100808354040283529160200191610ddd565b820191906000526020600020905b815481529060010190602001808311610dc057829003601f168201915b50505050508152602001600282018054610df690614a3a565b80601f0160208091040260200160405190810160405280929190818152602001828054610e2290614a3a565b8015610e6f5780601f10610e4457610100808354040283529160200191610e6f565b820191906000526020600020905b815481529060010190602001808311610e5257829003601f168201915b50505050508152602001600382018054610e8890614a3a565b80601f0160208091040260200160405190810160405280929190818152602001828054610eb490614a3a565b8015610f015780601f10610ed657610100808354040283529160200191610f01565b820191906000526020600020905b815481529060010190602001808311610ee457829003601f168201915b50505050508152602001600482018054610f1a90614a3a565b80601f0160208091040260200160405190810160405280929190818152602001828054610f4690614a3a565b8015610f935780601f10610f6857610100808354040283529160200191610f93565b820191906000526020600020905b815481529060010190602001808311610f7657829003601f168201915b50505050508152602001600582015481526020016006820160009054906101000a900460ff161515151581526020016007820180548060200260200160405190810160405280929190818152602001828054801561101057602002820191906000526020600020905b815481526020019060010190808311610ffc575b50505091909252505050905250838361102881614a1f565b94508151811061103a5761103a614a75565b60200260200101819052505b8061105081614a1f565b915050610b82565b5050919050565b60606000805461106e90614a3a565b80601f016020809104026020016040519081016040528092919081815260200182805461109a90614a3a565b80156110e75780601f106110bc576101008083540402835291602001916110e7565b820191906000526020600020905b8154815290600101906020018083116110ca57829003601f168201915b5050505050905090565b60006110fc82613159565b506000908152600460205260409020546001600160a01b031690565b600061112382611b81565b9050806001600160a01b0316836001600160a01b031614156111965760405162461bcd60e51b815260206004820152602160248201527f4552433732313a20617070726f76616c20746f2063757272656e74206f776e656044820152603960f91b60648201526084015b60405180910390fd5b336001600160a01b03821614806111b257506111b28133610534565b6112245760405162461bcd60e51b815260206004820152603d60248201527f4552433732313a20617070726f76652063616c6c6572206973206e6f7420746f60448201527f6b656e206f776e6572206f7220617070726f76656420666f7220616c6c000000606482015260840161118d565b61122e83836131b8565b505050565b61123b613226565b60008281526011602052604090205460ff166112915760405162461bcd60e51b815260206004820152601560248201527411985d1a195c88191bd95cc81b9bdd08195e1a5cdd605a1b604482015260640161118d565b60008181526011602052604090205460ff166112e75760405162461bcd60e51b8152602060048201526015602482015274135bdd1a195c88191bd95cc81b9bdd08195e1a5cdd605a1b604482015260640161118d565b600b54600954111561133b5760405162461bcd60e51b815260206004820152601f60248201527f4f7574206f6620746f6b656e732c20636865636b206261636b206c6174657200604482015260640161118d565b60003411801561134d5750600e543410155b6113995760405162461bcd60e51b815260206004820152601d60248201527f496e73756666696369656e742066756e6420666f72206d696e74696e67000000604482015260640161118d565b6113a7600980546001019055565b60006113b260095490565b90506113bd81613280565b6114005760405162461bcd60e51b81526020600482015260146024820152731b5a5b9d1a5b99c81d5b9cdd58d8d95cdcd99d5b60621b604482015260640161118d565b6114086143e6565b61141061218a565b61141983613400565b60405160200161142a929190614aa7565b60408051601f19818403018152918152908252805160808101909152604280825261507a60208301396020808301919091526000858152601090915260409020600601805461147890614a3a565b80601f01602080910402602001604051908101604052809291908181526020018280546114a490614a3a565b80156114f15780601f106114c6576101008083540402835291602001916114f1565b820191906000526020600020905b8154815290600101906020018083116114d457829003601f168201915b50505050604080840192909252506000848152601060205220600801805461151890614a3a565b80601f016020809104026020016040519081016040528092919081815260200182805461154490614a3a565b80156115915780601f1061156657610100808354040283529160200191611591565b820191906000526020600020905b81548152906001019060200180831161157457829003601f168201915b505050505060808201526014546115aa9042600061349d565b60a0820152600160c0820152604080516002808252606082018352909160208301908036833750505060e0820181905280518591906000906115ee576115ee614a75565b602002602001018181525050828160e0015160018151811061161257611612614a75565b602002602001018181525050600a61162983613400565b600d60405160200161163d93929190614b7e565b60408051601f19818403018152918152606083019190915260008381526010602090815291902082518051849360049093019261167e92849291019061442d565b506020828101518051611697926001850192019061442d565b50604082015180516116b391600284019160209091019061442d565b50606082015180516116cf91600384019160209091019061442d565b50608082015180516116eb91600484019160209091019061442d565b5060a0820151600582015560c082015160068201805460ff191691151591909117905560e082015180516117299160078401916020909101906144ad565b505060075461174391506001600160a01b03165b34613505565b505061174f6001600855565b5050565b61175d3382613565565b6117795760405162461bcd60e51b815260040161118d90614bb1565b61122e8383836135e4565b61178c6143a9565b600082815260106020908152604091829020825160a0810184528154815260018201546001600160a01b03169281019290925260028101548284015260038101546060830152825161010081019093526004810180549293919260808501929190829082906117fa90614a3a565b80601f016020809104026020016040519081016040528092919081815260200182805461182690614a3a565b80156118735780601f1061184857610100808354040283529160200191611873565b820191906000526020600020905b81548152906001019060200180831161185657829003601f168201915b5050505050815260200160018201805461188c90614a3a565b80601f01602080910402602001604051908101604052809291908181526020018280546118b890614a3a565b80156119055780601f106118da57610100808354040283529160200191611905565b820191906000526020600020905b8154815290600101906020018083116118e857829003601f168201915b5050505050815260200160028201805461191e90614a3a565b80601f016020809104026020016040519081016040528092919081815260200182805461194a90614a3a565b80156119975780601f1061196c57610100808354040283529160200191611997565b820191906000526020600020905b81548152906001019060200180831161197a57829003601f168201915b505050505081526020016003820180546119b090614a3a565b80601f01602080910402602001604051908101604052809291908181526020018280546119dc90614a3a565b8015611a295780601f106119fe57610100808354040283529160200191611a29565b820191906000526020600020905b815481529060010190602001808311611a0c57829003601f168201915b50505050508152602001600482018054611a4290614a3a565b80601f0160208091040260200160405190810160405280929190818152602001828054611a6e90614a3a565b8015611abb5780601f10611a9057610100808354040283529160200191611abb565b820191906000526020600020905b815481529060010190602001808311611a9e57829003601f168201915b50505050508152602001600582015481526020016006820160009054906101000a900460ff1615151515815260200160078201805480602002602001604051908101604052809291908181526020018280548015611b3857602002820191906000526020600020905b815481526020019060010190808311611b24575b5050509190925250505090525092915050565b61122e838383604051806020016040528060008152506121b1565b611b6e613748565b805161174f90600a90602084019061442d565b6000818152600260205260408120546001600160a01b0316806105a25760405162461bcd60e51b8152602060048201526018602482015277115490cdcc8c4e881a5b9d985b1a59081d1bdad95b88125160421b604482015260640161118d565b600a8054611bee90614a3a565b80601f0160208091040260200160405190810160405280929190818152602001828054611c1a90614a3a565b8015611c675780601f10611c3c57610100808354040283529160200191611c67565b820191906000526020600020905b815481529060010190602001808311611c4a57829003601f168201915b505050505081565b60006001600160a01b038216611cd95760405162461bcd60e51b815260206004820152602960248201527f4552433732313a2061646472657373207a65726f206973206e6f7420612076616044820152683634b21037bbb732b960b91b606482015260840161118d565b506001600160a01b031660009081526003602052604090205490565b611cfd613748565b611d0760006137a2565b565b6060611d1460095490565b67ffffffffffffffff811115611d2c57611d2c614816565b604051908082528060200260200182016040528015611d6557816020015b611d526143a9565b815260200190600190039081611d4a5790505b50905060005b6009548110156121865760106000611d84836001614a07565b81526020019081526020016000206040518060a0016040529081600082015481526020016001820160009054906101000a90046001600160a01b03166001600160a01b03166001600160a01b0316815260200160028201548152602001600382015481526020016004820160405180610100016040529081600082018054611e0b90614a3a565b80601f0160208091040260200160405190810160405280929190818152602001828054611e3790614a3a565b8015611e845780601f10611e5957610100808354040283529160200191611e84565b820191906000526020600020905b815481529060010190602001808311611e6757829003601f168201915b50505050508152602001600182018054611e9d90614a3a565b80601f0160208091040260200160405190810160405280929190818152602001828054611ec990614a3a565b8015611f165780601f10611eeb57610100808354040283529160200191611f16565b820191906000526020600020905b815481529060010190602001808311611ef957829003601f168201915b50505050508152602001600282018054611f2f90614a3a565b80601f0160208091040260200160405190810160405280929190818152602001828054611f5b90614a3a565b8015611fa85780601f10611f7d57610100808354040283529160200191611fa8565b820191906000526020600020905b815481529060010190602001808311611f8b57829003601f168201915b50505050508152602001600382018054611fc190614a3a565b80601f0160208091040260200160405190810160405280929190818152602001828054611fed90614a3a565b801561203a5780601f1061200f5761010080835404028352916020019161203a565b820191906000526020600020905b81548152906001019060200180831161201d57829003601f168201915b5050505050815260200160048201805461205390614a3a565b80601f016020809104026020016040519081016040528092919081815260200182805461207f90614a3a565b80156120cc5780601f106120a1576101008083540402835291602001916120cc565b820191906000526020600020905b8154815290600101906020018083116120af57829003601f168201915b50505050508152602001600582015481526020016006820160009054906101000a900460ff161515151581526020016007820180548060200260200160405190810160405280929190818152602001828054801561214957602002820191906000526020600020905b815481526020019060010190808311612135575b5050505050815250508152505082828151811061216857612168614a75565b6020026020010181905250808061217e90614a1f565b915050611d6b565b5090565b60606001805461106e90614a3a565b61174f3383836137f4565b600d8054611bee90614a3a565b6121bb3383613565565b6121d75760405162461bcd60e51b815260040161118d90614bb1565b6121e3848484846138c3565b50505050565b6121f1613226565b600b5460095411156122455760405162461bcd60e51b815260206004820152601f60248201527f4f7574206f6620746f6b656e732c20636865636b206261636b206c6174657200604482015260640161118d565b6000341180156122575750600e543410155b6122a35760405162461bcd60e51b815260206004820152601d60248201527f496e73756666696369656e742066756e6420666f72206d696e74696e67000000604482015260640161118d565b6122b1600980546001019055565b60006122bc60095490565b90506122c781613280565b61230a5760405162461bcd60e51b81526020600482015260146024820152731b5a5b9d1a5b99c81d5b9cdd58d8d95cdcd99d5b60621b604482015260640161118d565b6123126143e6565b61231a61218a565b61232383613400565b604051602001612334929190614aa7565b60408051601f19818403018152918152908252805160608101909152603e808252614ffc6020830139602082015260128054612379906123726138f6565b600061349d565b8154811061238957612389614a75565b90600052602060002001805461239e90614a3a565b80601f01602080910402602001604051908101604052809291908181526020018280546123ca90614a3a565b80156124175780601f106123ec57610100808354040283529160200191612417565b820191906000526020600020905b8154815290600101906020018083116123fa57829003601f168201915b5050505050604082015260138054612431906123726138f6565b8154811061244157612441614a75565b90600052602060002001805461245690614a3a565b80601f016020809104026020016040519081016040528092919081815260200182805461248290614a3a565b80156124cf5780601f106124a4576101008083540402835291602001916124cf565b820191906000526020600020905b8154815290600101906020018083116124b257829003601f168201915b505050505060808201526014546124e8906123726138f6565b60a0820152600a6124f883613400565b600d60405160200161250c93929190614b7e565b60408051601f19818403018152918152606083019190915260008381526010602090815291902082518051849360049093019261254d92849291019061442d565b506020828101518051612566926001850192019061442d565b506040820151805161258291600284019160209091019061442d565b506060820151805161259e91600384019160209091019061442d565b50608082015180516125ba91600484019160209091019061442d565b5060a0820151600582015560c082015160068201805460ff191691151591909117905560e082015180516125f89160078401916020909101906144ad565b505060075461261091506001600160a01b031661173d565b5050611d076001600855565b600c8054611bee90614a3a565b6000818152600260205260409020546060906001600160a01b03166126a85760405162461bcd60e51b815260206004820152602f60248201527f4552433732314d657461646174613a2055524920717565727920666f72206e6f60448201526e3732bc34b9ba32b73a103a37b5b2b760891b606482015260840161118d565b6105a282613911565b60606000805b60095481101561270c57601060006126d0836001614a07565b81526020810191909152604001600020600a015460ff16156126fa57816126f681614a1f565b9250505b8061270481614a1f565b9150506126b7565b508067ffffffffffffffff81111561272657612726614816565b60405190808252806020026020018201604052801561275f57816020015b61274c6143a9565b8152602001906001900390816127445790505b5091506000805b600954811015610abe576010600061277f836001614a07565b81526020810191909152604001600020600a015460ff1615612ba557601060006127aa836001614a07565b81526020019081526020016000206040518060a0016040529081600082015481526020016001820160009054906101000a90046001600160a01b03166001600160a01b03166001600160a01b031681526020016002820154815260200160038201548152602001600482016040518061010001604052908160008201805461283190614a3a565b80601f016020809104026020016040519081016040528092919081815260200182805461285d90614a3a565b80156128aa5780601f1061287f576101008083540402835291602001916128aa565b820191906000526020600020905b81548152906001019060200180831161288d57829003601f168201915b505050505081526020016001820180546128c390614a3a565b80601f01602080910402602001604051908101604052809291908181526020018280546128ef90614a3a565b801561293c5780601f106129115761010080835404028352916020019161293c565b820191906000526020600020905b81548152906001019060200180831161291f57829003601f168201915b5050505050815260200160028201805461295590614a3a565b80601f016020809104026020016040519081016040528092919081815260200182805461298190614a3a565b80156129ce5780601f106129a3576101008083540402835291602001916129ce565b820191906000526020600020905b8154815290600101906020018083116129b157829003601f168201915b505050505081526020016003820180546129e790614a3a565b80601f0160208091040260200160405190810160405280929190818152602001828054612a1390614a3a565b8015612a605780601f10612a3557610100808354040283529160200191612a60565b820191906000526020600020905b815481529060010190602001808311612a4357829003601f168201915b50505050508152602001600482018054612a7990614a3a565b80601f0160208091040260200160405190810160405280929190818152602001828054612aa590614a3a565b8015612af25780601f10612ac757610100808354040283529160200191612af2565b820191906000526020600020905b815481529060010190602001808311612ad557829003601f168201915b50505050508152602001600582015481526020016006820160009054906101000a900460ff1615151515815260200160078201805480602002602001604051908101604052809291908181526020018280548015612b6f57602002820191906000526020600020905b815481526020019060010190808311612b5b575b505050919092525050509052508483612b8781614a1f565b945081518110612b9957612b99614a75565b60200260200101819052505b80612baf81614a1f565b915050612766565b612bbf613748565b6001600160a01b038116612c245760405162461bcd60e51b815260206004820152602660248201527f4f776e61626c653a206e6577206f776e657220697320746865207a65726f206160448201526564647265737360d01b606482015260840161118d565b612c2d816137a2565b50565b60606000805b600954811015612c8a5760106000612c4f836001614a07565b81526020810191909152604001600020600a015460ff16612c785781612c7481614a1f565b9250505b80612c8281614a1f565b915050612c36565b508067ffffffffffffffff811115612ca457612ca4614816565b604051908082528060200260200182016040528015612cdd57816020015b612cca6143a9565b815260200190600190039081612cc25790505b5091506000805b600954811015610abe5760106000612cfd836001614a07565b81526020810191909152604001600020600a015460ff166131225760106000612d27836001614a07565b81526020019081526020016000206040518060a0016040529081600082015481526020016001820160009054906101000a90046001600160a01b03166001600160a01b03166001600160a01b0316815260200160028201548152602001600382015481526020016004820160405180610100016040529081600082018054612dae90614a3a565b80601f0160208091040260200160405190810160405280929190818152602001828054612dda90614a3a565b8015612e275780601f10612dfc57610100808354040283529160200191612e27565b820191906000526020600020905b815481529060010190602001808311612e0a57829003601f168201915b50505050508152602001600182018054612e4090614a3a565b80601f0160208091040260200160405190810160405280929190818152602001828054612e6c90614a3a565b8015612eb95780601f10612e8e57610100808354040283529160200191612eb9565b820191906000526020600020905b815481529060010190602001808311612e9c57829003601f168201915b50505050508152602001600282018054612ed290614a3a565b80601f0160208091040260200160405190810160405280929190818152602001828054612efe90614a3a565b8015612f4b5780601f10612f2057610100808354040283529160200191612f4b565b820191906000526020600020905b815481529060010190602001808311612f2e57829003601f168201915b50505050508152602001600382018054612f6490614a3a565b80601f0160208091040260200160405190810160405280929190818152602001828054612f9090614a3a565b8015612fdd5780601f10612fb257610100808354040283529160200191612fdd565b820191906000526020600020905b815481529060010190602001808311612fc057829003601f168201915b50505050508152602001600482018054612ff690614a3a565b80601f016020809104026020016040519081016040528092919081815260200182805461302290614a3a565b801561306f5780601f106130445761010080835404028352916020019161306f565b820191906000526020600020905b81548152906001019060200180831161305257829003601f168201915b50505050508152602001600582015481526020016006820160009054906101000a900460ff16151515158152602001600782018054806020026020016040519081016040528092919081815260200182805480156130ec57602002820191906000526020600020905b8154815260200190600101908083116130d8575b50505091909252505050905250848361310481614a1f565b94508151811061311657613116614a75565b60200260200101819052505b8061312c81614a1f565b915050612ce4565b60006001600160e01b03198216632483248360e11b14806105a257506105a282613d2f565b6000818152600260205260409020546001600160a01b0316612c2d5760405162461bcd60e51b8152602060048201526018602482015277115490cdcc8c4e881a5b9d985b1a59081d1bdad95b88125160421b604482015260640161118d565b600081815260046020526040902080546001600160a01b0319166001600160a01b03841690811790915581906131ed82611b81565b6001600160a01b03167f8c5be1e5ebec7d5bd14f71427d1e84f3dd0314c0f7b2291e5b200ac8c7c3b92560405160405180910390a45050565b600260085414156132795760405162461bcd60e51b815260206004820152601f60248201527f5265656e7472616e637947756172643a207265656e7472616e742063616c6c00604482015260640161118d565b6002600855565b600061328c3383613d7f565b61329e8261329984612629565b613d99565b6132a66143a9565b8281523360208201523460408201526132bd6138f6565b6060820190815260008481526010602090815260409182902084518155818501516001820180546001600160a01b0319166001600160a01b03909216919091179055918401516002830155915160038201556080830151805180518594600485019261332f928492919091019061442d565b506020828101518051613348926001850192019061442d565b506040820151805161336491600284019160209091019061442d565b506060820151805161338091600384019160209091019061442d565b506080820151805161339c91600484019160209091019061442d565b5060a0820151600582015560c082015160068201805460ff191691151591909117905560e082015180516133da9160078401916020909101906144ad565b505050600094855250506011602052505060409020805460ff1916600190811790915590565b6060600061340d83613e6b565b600101905060008167ffffffffffffffff81111561342d5761342d614816565b6040519080825280601f01601f191660200182016040528015613457576020820181803683370190505b5090508181016020015b600019016f181899199a1a9b1b9c1cb0b131b232b360811b600a86061a8153600a850494508461349057613495565b613461565b509392505050565b604080514260208201526bffffffffffffffffffffffff193360601b16918101919091526054810183905260748101829052600090819085906094016040516020818303038152906040528051906020012060001c6134fc9190614c14565b95945050505050565b6000826001600160a01b03168260405160006040518083038185875af1925050503d8060008114613552576040519150601f19603f3d011682016040523d82523d6000602084013e613557565b606091505b505090508061122e57600080fd5b60008061357183611b81565b9050806001600160a01b0316846001600160a01b031614806135b857506001600160a01b0380821660009081526005602090815260408083209388168352929052205460ff165b806135dc5750836001600160a01b03166135d1846110f1565b6001600160a01b0316145b949350505050565b826001600160a01b03166135f782611b81565b6001600160a01b03161461361d5760405162461bcd60e51b815260040161118d90614c28565b6001600160a01b03821661367f5760405162461bcd60e51b8152602060048201526024808201527f4552433732313a207472616e7366657220746f20746865207a65726f206164646044820152637265737360e01b606482015260840161118d565b826001600160a01b031661369282611b81565b6001600160a01b0316146136b85760405162461bcd60e51b815260040161118d90614c28565b600081815260046020908152604080832080546001600160a01b03199081169091556001600160a01b0387811680865260038552838620805460001901905590871680865283862080546001019055868652600290945282852080549092168417909155905184937fddf252ad1be2c89b69c2b068fc378daa952ba7f163c4a11628f55a4df523b3ef91a4505050565b6007546001600160a01b03163314611d075760405162461bcd60e51b815260206004820181905260248201527f4f776e61626c653a2063616c6c6572206973206e6f7420746865206f776e6572604482015260640161118d565b600780546001600160a01b038381166001600160a01b0319831681179093556040519116919082907f8be0079c531659141344cd1fd0a4f28419497f9722a3daafe3b4186f6b6457e090600090a35050565b816001600160a01b0316836001600160a01b031614156138565760405162461bcd60e51b815260206004820152601960248201527f4552433732313a20617070726f766520746f2063616c6c657200000000000000604482015260640161118d565b6001600160a01b03838116600081815260056020908152604080832094871680845294825291829020805460ff191686151590811790915591519182527f17307eab39ab6107e8899845ad3d59bd9653f200f220920489ca2b5937696c31910160405180910390a3505050565b6138ce8484846135e4565b6138da84848484613f43565b6121e35760405162461bcd60e51b815260040161118d90614c6d565b600080613905426103e8614cbf565b6105a2906103e8614a07565b60606000601060008481526020019081526020016000206004016040518061010001604052908160008201805461394790614a3a565b80601f016020809104026020016040519081016040528092919081815260200182805461397390614a3a565b80156139c05780601f10613995576101008083540402835291602001916139c0565b820191906000526020600020905b8154815290600101906020018083116139a357829003601f168201915b505050505081526020016001820180546139d990614a3a565b80601f0160208091040260200160405190810160405280929190818152602001828054613a0590614a3a565b8015613a525780601f10613a2757610100808354040283529160200191613a52565b820191906000526020600020905b815481529060010190602001808311613a3557829003601f168201915b50505050508152602001600282018054613a6b90614a3a565b80601f0160208091040260200160405190810160405280929190818152602001828054613a9790614a3a565b8015613ae45780601f10613ab957610100808354040283529160200191613ae4565b820191906000526020600020905b815481529060010190602001808311613ac757829003601f168201915b50505050508152602001600382018054613afd90614a3a565b80601f0160208091040260200160405190810160405280929190818152602001828054613b2990614a3a565b8015613b765780601f10613b4b57610100808354040283529160200191613b76565b820191906000526020600020905b815481529060010190602001808311613b5957829003601f168201915b50505050508152602001600482018054613b8f90614a3a565b80601f0160208091040260200160405190810160405280929190818152602001828054613bbb90614a3a565b8015613c085780601f10613bdd57610100808354040283529160200191613c08565b820191906000526020600020905b815481529060010190602001808311613beb57829003601f168201915b50505050508152602001600582015481526020016006820160009054906101000a900460ff1615151515815260200160078201805480602002602001604051908101604052809291908181526020018280548015613c8557602002820191906000526020600020905b815481526020019060010190808311613c71575b50505050508152505090506000613c9a6138f6565b90506000613cb6836080015184604001518560a0015185614041565b9050613d06613cc486613400565b84516020860151600e54613cd790613400565b876060015186604051602001613cf296959493929190614cde565b604051602081830303815290604052614083565b604051602001613d169190614e00565b6040516020818303038152906040529350505050919050565b60006001600160e01b031982166380ac58cd60e01b1480613d6057506001600160e01b03198216635b5e139f60e01b145b806105a257506301ffc9a760e01b6001600160e01b03198316146105a2565b61174f8282604051806020016040528060008152506141eb565b6000828152600260205260409020546001600160a01b0316613e145760405162461bcd60e51b815260206004820152602e60248201527f45524337323155524953746f726167653a2055524920736574206f66206e6f6e60448201526d32bc34b9ba32b73a103a37b5b2b760911b606482015260840161118d565b60008281526006602090815260409091208251613e339284019061442d565b506040518281527ff8e1a15aba9398e019f0b49df1a4fde98ee17ae345cb5f6b5e2c27f5033e8ce79060200160405180910390a15050565b60008072184f03e93ff9f4daa797ed6e38ed64bf6a1f0160401b8310613eaa5772184f03e93ff9f4daa797ed6e38ed64bf6a1f0160401b830492506040015b6d04ee2d6d415b85acef81000000008310613ed6576d04ee2d6d415b85acef8100000000830492506020015b662386f26fc100008310613ef457662386f26fc10000830492506010015b6305f5e1008310613f0c576305f5e100830492506008015b6127108310613f2057612710830492506004015b60648310613f32576064830492506002015b600a83106105a25760010192915050565b60006001600160a01b0384163b1561403657604051630a85bd0160e11b81526001600160a01b0385169063150b7a0290613f87903390899088908890600401614e45565b6020604051808303816000875af1925050508015613fc2575060408051601f3d908101601f19168201909252613fbf91810190614e82565b60015b61401c573d808015613ff0576040519150601f19603f3d011682016040523d82523d6000602084013e613ff5565b606091505b5080516140145760405162461bcd60e51b815260040161118d90614c6d565b805181602001fd5b6001600160e01b031916630a85bd0160e11b1490506135dc565b506001949350505050565b6060848461404e85613400565b61405785613400565b60405160200161406a9493929190614e9f565b6040516020818303038152906040529050949350505050565b60608151600014156140a357505060408051602081019091526000815290565b600060405180606001604052806040815260200161503a60409139905060006003845160026140d29190614a07565b6140dc9190614fe7565b6140e7906004614cbf565b905060006140f6826020614a07565b67ffffffffffffffff81111561410e5761410e614816565b6040519080825280601f01601f191660200182016040528015614138576020820181803683370190505b509050818152600183018586518101602084015b818310156141a65760039283018051603f601282901c811687015160f890811b8552600c83901c8216880151811b6001860152600683901c8216880151811b60028601529116860151901b9382019390935260040161414c565b6003895106600181146141c057600281146141d1576141dd565b613d3d60f01b6001198301526141dd565b603d60f81b6000198301525b509398975050505050505050565b6141f5838361421e565b6142026000848484613f43565b61122e5760405162461bcd60e51b815260040161118d90614c6d565b6001600160a01b0382166142745760405162461bcd60e51b815260206004820181905260248201527f4552433732313a206d696e7420746f20746865207a65726f2061646472657373604482015260640161118d565b6000818152600260205260409020546001600160a01b0316156142d95760405162461bcd60e51b815260206004820152601c60248201527f4552433732313a20746f6b656e20616c7265616479206d696e74656400000000604482015260640161118d565b6000818152600260205260409020546001600160a01b03161561433e5760405162461bcd60e51b815260206004820152601c60248201527f4552433732313a20746f6b656e20616c7265616479206d696e74656400000000604482015260640161118d565b6001600160a01b038216600081815260036020908152604080832080546001019055848352600290915280822080546001600160a01b0319168417905551839291907fddf252ad1be2c89b69c2b068fc378daa952ba7f163c4a11628f55a4df523b3ef908290a45050565b6040518060a001604052806000815260200160006001600160a01b0316815260200160008152602001600081526020016143e16143e6565b905290565b604051806101000160405280606081526020016060815260200160608152602001606081526020016060815260200160008152602001600015158152602001606081525090565b82805461443990614a3a565b90600052602060002090601f01602090048101928261445b57600085556144a1565b82601f1061447457805160ff19168380011785556144a1565b828001600101855582156144a1579182015b828111156144a1578251825591602001919060010190614486565b506121869291506144e7565b8280548282559060005260206000209081019282156144a157916020028201828111156144a1578251825591602001919060010190614486565b5b8082111561218657600081556001016144e8565b6001600160e01b031981168114612c2d57600080fd5b60006020828403121561452457600080fd5b813561452f816144fc565b9392505050565b60005b83811015614551578181015183820152602001614539565b838111156121e35750506000910152565b6000815180845261457a816020860160208601614536565b601f01601f19169290920160200192915050565b600081518084526020808501945080840160005b838110156145be578151875295820195908201906001016145a2565b509495945050505050565b8051825260018060a01b03602082015116602083015260408101516040830152606081015160608301526000608082015160a0608085015280516101008060a087015261461a6101a0870183614562565b91506020830151609f19808885030160c08901526146388483614562565b935060408501519150808885030160e08901526146558483614562565b9350606085015191508088850301838901526146718483614562565b935060808501519250808885030161012089015261468f8484614562565b935060a085015161014089015260c085015192506146b261016089018415159052565b60e0850151945080888503016101808901525050506134fc818361458e565b6000602080830181845280855180835260408601915060408160051b870101925083870160005b8281101561472657603f198886030184526147148583516145c9565b945092850192908501906001016146f8565b5092979650505050505050565b60006020828403121561474557600080fd5b5035919050565b60208152600061452f6020830184614562565b80356001600160a01b038116811461477657600080fd5b919050565b6000806040838503121561478e57600080fd5b6147978361475f565b946020939093013593505050565b600080604083850312156147b857600080fd5b50508035926020909101359150565b6000806000606084860312156147dc57600080fd5b6147e58461475f565b92506147f36020850161475f565b9150604084013590509250925092565b60208152600061452f60208301846145c9565b634e487b7160e01b600052604160045260246000fd5b600067ffffffffffffffff8084111561484757614847614816565b604051601f8501601f19908116603f0116810190828211818310171561486f5761486f614816565b8160405280935085815286868601111561488857600080fd5b858560208301376000602087830101525050509392505050565b6000602082840312156148b457600080fd5b813567ffffffffffffffff8111156148cb57600080fd5b8201601f810184136148dc57600080fd5b6135dc8482356020840161482c565b6000602082840312156148fd57600080fd5b61452f8261475f565b6000806040838503121561491957600080fd5b6149228361475f565b91506020830135801515811461493757600080fd5b809150509250929050565b6000806000806080858703121561495857600080fd5b6149618561475f565b935061496f6020860161475f565b925060408501359150606085013567ffffffffffffffff81111561499257600080fd5b8501601f810187136149a357600080fd5b6149b28782356020840161482c565b91505092959194509250565b600080604083850312156149d157600080fd5b6149da8361475f565b91506149e86020840161475f565b90509250929050565b634e487b7160e01b600052601160045260246000fd5b60008219821115614a1a57614a1a6149f1565b500190565b6000600019821415614a3357614a336149f1565b5060010190565b600181811c90821680614a4e57607f821691505b60208210811415614a6f57634e487b7160e01b600052602260045260246000fd5b50919050565b634e487b7160e01b600052603260045260246000fd5b60008151614a9d818560208601614536565b9290920192915050565b60008351614ab9818460208801614536565b61202360f01b9083019081528351614ad8816002840160208801614536565b01600201949350505050565b8054600090600181811c9080831680614afe57607f831692505b6020808410821415614b2057634e487b7160e01b600052602260045260246000fd5b818015614b345760018114614b4557614b72565b60ff19861689528489019650614b72565b60008881526020902060005b86811015614b6a5781548b820152908501908301614b51565b505084890196505b50505050505092915050565b6000614b8a8286614ae4565b8451614b9a818360208901614536565b614ba681830186614ae4565b979650505050505050565b6020808252602d908201527f4552433732313a2063616c6c6572206973206e6f7420746f6b656e206f776e6560408201526c1c881bdc88185c1c1c9bdd9959609a1b606082015260800190565b634e487b7160e01b600052601260045260246000fd5b600082614c2357614c23614bfe565b500690565b60208082526025908201527f4552433732313a207472616e736665722066726f6d20696e636f72726563742060408201526437bbb732b960d91b606082015260800190565b60208082526032908201527f4552433732313a207472616e7366657220746f206e6f6e20455243373231526560408201527131b2b4bb32b91034b6b83632b6b2b73a32b960711b606082015260800190565b6000816000190483118215151615614cd957614cd96149f1565b500290565b663d9134b2111d1160c91b81528651600090614d01816007850160208c01614536565b691116113730b6b2911d1160b11b6007918401918201528751614d2b816011840160208c01614536565b701116113232b9b1b934b83a34b7b7111d1160791b601192909101918201528651614d5d816022840160208b01614536565b6a111611383934b1b2911d1160a91b602292909101918201528551614d8981602d840160208a01614536565b6a11161134b6b0b3b2911d1160a91b602d92909101918201528451614db5816038840160208901614536565b614df2614de5614ddf6038848601016e11161130ba3a3934b13aba32b9911d60891b8152600f0190565b87614a8b565b607d60f81b815260010190565b9a9950505050505050505050565b7f646174613a6170706c69636174696f6e2f6a736f6e3b6261736536342c000000815260008251614e3881601d850160208701614536565b91909101601d0192915050565b6001600160a01b0385811682528416602082015260408101839052608060608201819052600090614e7890830184614562565b9695505050505050565b600060208284031215614e9457600080fd5b815161452f816144fc565b7f5b7b2274726169745f74797065223a22456e7669726f6e6d656e74222c227661815265363ab2911d1160d11b602082015260008551614ee6816026850160208a01614536565b62089f4b60ea1b60269184019182018190527f7b2274726169745f74797065223a22576561706f6e222c2276616c7565223a2260298301528651614f31816049850160208b01614536565b604992019182018190527f7b2274726169745f74797065223a22526172697479222c2276616c7565223a22604c8301528551614f7481606c850160208a01614536565b606c9201918201527f7b22646973706c61795f74797065223a2264617465222c2274726169745f7479606f8201527f7065223a2243726561746564222c2276616c7565223a22000000000000000000608f820152614ba6614fd860a6830186614a8b565b62227d5d60e81b815260030190565b600082614ff657614ff6614bfe565b50049056fe546869732069732061206d696e7465642041492067656e65726174656420617274776f726b7320617661696c61626c6520666f7220796f7572207573652e4142434445464748494a4b4c4d4e4f505152535455565758595a6162636465666768696a6b6c6d6e6f707172737475767778797a303132333435363738392b2f5468697320697320616e20696e686572697465642041492067656e65726174656420617274776f726b7320617661696c61626c6520666f7220796f7572207573652ea2646970667358221220ee3871fe4e73f79f0870570eb57bd2ca609767aaaf9c850ff6830730c1d7e2f264736f6c634300080b0033",
  "linkReferences": {},
  "deployedLinkReferences": {}
}