{
  "_format": "hh-sol-artifact-1",
  "contractName": "DappBreed",
  "sourceName": "src/contracts/DappBreed.sol",
  "abi": [
    {
      "inputs": [
        {
          "internalType": "string",
          "name": "_name",
          "type": "string"
        },
        {
          "internalType": "string",
          "name": "_symbol",
          "type": "string"
        },
        {
          "internalType": "string",
          "name": "_BaseURI",
          "type": "string"
        },
        {
          "internalType": "uint256",
          "name": "_maxSupply",
          "type": "uint256"
        }
      ],
      "stateMutability": "nonpayable",
      "type": "constructor"
    },
    {
      "anonymous": false,
      "inputs": [
        {
          "indexed": true,
          "internalType": "address",
          "name": "owner",
          "type": "address"
        },
        {
          "indexed": true,
          "internalType": "address",
          "name": "approved",
          "type": "address"
        },
        {
          "indexed": true,
          "internalType": "uint256",
          "name": "tokenId",
          "type": "uint256"
        }
      ],
      "name": "Approval",
      "type": "event"
    },
    {
      "anonymous": false,
      "inputs": [
        {
          "indexed": true,
          "internalType": "address",
          "name": "owner",
          "type": "address"
        },
        {
          "indexed": true,
          "internalType": "address",
          "name": "operator",
          "type": "address"
        },
        {
          "indexed": false,
          "internalType": "bool",
          "name": "approved",
          "type": "bool"
        }
      ],
      "name": "ApprovalForAll",
      "type": "event"
    },
    {
      "anonymous": false,
      "inputs": [
        {
          "indexed": false,
          "internalType": "uint256",
          "name": "_fromTokenId",
          "type": "uint256"
        },
        {
          "indexed": false,
          "internalType": "uint256",
          "name": "_toTokenId",
          "type": "uint256"
        }
      ],
      "name": "BatchMetadataUpdate",
      "type": "event"
    },
    {
      "anonymous": false,
      "inputs": [
        {
          "indexed": false,
          "internalType": "uint256",
          "name": "_tokenId",
          "type": "uint256"
        }
      ],
      "name": "MetadataUpdate",
      "type": "event"
    },
    {
      "anonymous": false,
      "inputs": [
        {
          "indexed": true,
          "internalType": "address",
          "name": "previousOwner",
          "type": "address"
        },
        {
          "indexed": true,
          "internalType": "address",
          "name": "newOwner",
          "type": "address"
        }
      ],
      "name": "OwnershipTransferred",
      "type": "event"
    },
    {
      "anonymous": false,
      "inputs": [
        {
          "indexed": true,
          "internalType": "address",
          "name": "from",
          "type": "address"
        },
        {
          "indexed": true,
          "internalType": "address",
          "name": "to",
          "type": "address"
        },
        {
          "indexed": true,
          "internalType": "uint256",
          "name": "tokenId",
          "type": "uint256"
        }
      ],
      "name": "Transfer",
      "type": "event"
    },
    {
      "inputs": [
        {
          "internalType": "address",
          "name": "to",
          "type": "address"
        },
        {
          "internalType": "uint256",
          "name": "tokenId",
          "type": "uint256"
        }
      ],
      "name": "approve",
      "outputs": [],
      "stateMutability": "nonpayable",
      "type": "function"
    },
    {
      "inputs": [
        {
          "internalType": "address",
          "name": "owner",
          "type": "address"
        }
      ],
      "name": "balanceOf",
      "outputs": [
        {
          "internalType": "uint256",
          "name": "",
          "type": "uint256"
        }
      ],
      "stateMutability": "view",
      "type": "function"
    },
    {
      "inputs": [],
      "name": "baseExtension",
      "outputs": [
        {
          "internalType": "string",
          "name": "",
          "type": "string"
        }
      ],
      "stateMutability": "view",
      "type": "function"
    },
    {
      "inputs": [],
      "name": "baseURI",
      "outputs": [
        {
          "internalType": "string",
          "name": "",
          "type": "string"
        }
      ],
      "stateMutability": "view",
      "type": "function"
    },
    {
      "inputs": [
        {
          "internalType": "uint256",
          "name": "_fatherTokenId",
          "type": "uint256"
        },
        {
          "internalType": "uint256",
          "name": "_motherTokenId",
          "type": "uint256"
        }
      ],
      "name": "breedNft",
      "outputs": [],
      "stateMutability": "payable",
      "type": "function"
    },
    {
      "inputs": [
        {
          "internalType": "uint256",
          "name": "tokenId",
          "type": "uint256"
        }
      ],
      "name": "getApproved",
      "outputs": [
        {
          "internalType": "address",
          "name": "",
          "type": "address"
        }
      ],
      "stateMutability": "view",
      "type": "function"
    },
    {
      "inputs": [
        {
          "internalType": "uint256",
          "name": "_tokenId",
          "type": "uint256"
        }
      ],
      "name": "getMintedNft",
      "outputs": [
        {
          "components": [
            {
              "internalType": "uint256",
              "name": "id",
              "type": "uint256"
            },
            {
              "internalType": "address",
              "name": "owner",
              "type": "address"
            },
            {
              "internalType": "uint256",
              "name": "mintCost",
              "type": "uint256"
            },
            {
              "internalType": "uint256",
              "name": "timestamp",
              "type": "uint256"
            },
            {
              "components": [
                {
                  "internalType": "string",
                  "name": "name",
                  "type": "string"
                },
                {
                  "internalType": "string",
                  "name": "description",
                  "type": "string"
                },
                {
                  "internalType": "string",
                  "name": "weapon",
                  "type": "string"
                },
                {
                  "internalType": "string",
                  "name": "image",
                  "type": "string"
                },
                {
                  "internalType": "string",
                  "name": "environment",
                  "type": "string"
                },
                {
                  "internalType": "uint256",
                  "name": "rarity",
                  "type": "uint256"
                }
              ],
              "internalType": "struct DappBreed.TraitStruct",
              "name": "traits",
              "type": "tuple"
            }
          ],
          "internalType": "struct DappBreed.MintStruct",
          "name": "",
          "type": "tuple"
        }
      ],
      "stateMutability": "view",
      "type": "function"
    },
    {
      "inputs": [],
      "name": "getMintedNfts",
      "outputs": [
        {
          "components": [
            {
              "internalType": "uint256",
              "name": "id",
              "type": "uint256"
            },
            {
              "internalType": "address",
              "name": "owner",
              "type": "address"
            },
            {
              "internalType": "uint256",
              "name": "mintCost",
              "type": "uint256"
            },
            {
              "internalType": "uint256",
              "name": "timestamp",
              "type": "uint256"
            },
            {
              "components": [
                {
                  "internalType": "string",
                  "name": "name",
                  "type": "string"
                },
                {
                  "internalType": "string",
                  "name": "description",
                  "type": "string"
                },
                {
                  "internalType": "string",
                  "name": "weapon",
                  "type": "string"
                },
                {
                  "internalType": "string",
                  "name": "image",
                  "type": "string"
                },
                {
                  "internalType": "string",
                  "name": "environment",
                  "type": "string"
                },
                {
                  "internalType": "uint256",
                  "name": "rarity",
                  "type": "uint256"
                }
              ],
              "internalType": "struct DappBreed.TraitStruct",
              "name": "traits",
              "type": "tuple"
            }
          ],
          "internalType": "struct DappBreed.MintStruct[]",
          "name": "Minted",
          "type": "tuple[]"
        }
      ],
      "stateMutability": "view",
      "type": "function"
    },
    {
      "inputs": [],
      "name": "imageExtension",
      "outputs": [
        {
          "internalType": "string",
          "name": "",
          "type": "string"
        }
      ],
      "stateMutability": "view",
      "type": "function"
    },
    {
      "inputs": [
        {
          "internalType": "address",
          "name": "owner",
          "type": "address"
        },
        {
          "internalType": "address",
          "name": "operator",
          "type": "address"
        }
      ],
      "name": "isApprovedForAll",
      "outputs": [
        {
          "internalType": "bool",
          "name": "",
          "type": "bool"
        }
      ],
      "stateMutability": "view",
      "type": "function"
    },
    {
      "inputs": [],
      "name": "maxSupply",
      "outputs": [
        {
          "internalType": "uint256",
          "name": "",
          "type": "uint256"
        }
      ],
      "stateMutability": "view",
      "type": "function"
    },
    {
      "inputs": [],
      "name": "mintCost",
      "outputs": [
        {
          "internalType": "uint256",
          "name": "",
          "type": "uint256"
        }
      ],
      "stateMutability": "view",
      "type": "function"
    },
    {
      "inputs": [],
      "name": "mintNft",
      "outputs": [],
      "stateMutability": "payable",
      "type": "function"
    },
    {
      "inputs": [],
      "name": "name",
      "outputs": [
        {
          "internalType": "string",
          "name": "",
          "type": "string"
        }
      ],
      "stateMutability": "view",
      "type": "function"
    },
    {
      "inputs": [],
      "name": "owner",
      "outputs": [
        {
          "internalType": "address",
          "name": "",
          "type": "address"
        }
      ],
      "stateMutability": "view",
      "type": "function"
    },
    {
      "inputs": [
        {
          "internalType": "uint256",
          "name": "tokenId",
          "type": "uint256"
        }
      ],
      "name": "ownerOf",
      "outputs": [
        {
          "internalType": "address",
          "name": "",
          "type": "address"
        }
      ],
      "stateMutability": "view",
      "type": "function"
    },
    {
      "inputs": [],
      "name": "renounceOwnership",
      "outputs": [],
      "stateMutability": "nonpayable",
      "type": "function"
    },
    {
      "inputs": [
        {
          "internalType": "address",
          "name": "from",
          "type": "address"
        },
        {
          "internalType": "address",
          "name": "to",
          "type": "address"
        },
        {
          "internalType": "uint256",
          "name": "tokenId",
          "type": "uint256"
        }
      ],
      "name": "safeTransferFrom",
      "outputs": [],
      "stateMutability": "nonpayable",
      "type": "function"
    },
    {
      "inputs": [
        {
          "internalType": "address",
          "name": "from",
          "type": "address"
        },
        {
          "internalType": "address",
          "name": "to",
          "type": "address"
        },
        {
          "internalType": "uint256",
          "name": "tokenId",
          "type": "uint256"
        },
        {
          "internalType": "bytes",
          "name": "data",
          "type": "bytes"
        }
      ],
      "name": "safeTransferFrom",
      "outputs": [],
      "stateMutability": "nonpayable",
      "type": "function"
    },
    {
      "inputs": [
        {
          "internalType": "address",
          "name": "operator",
          "type": "address"
        },
        {
          "internalType": "bool",
          "name": "approved",
          "type": "bool"
        }
      ],
      "name": "setApprovalForAll",
      "outputs": [],
      "stateMutability": "nonpayable",
      "type": "function"
    },
    {
      "inputs": [
        {
          "internalType": "string",
          "name": "_newBaseURI",
          "type": "string"
        }
      ],
      "name": "setBaseURI",
      "outputs": [],
      "stateMutability": "nonpayable",
      "type": "function"
    },
    {
      "inputs": [
        {
          "internalType": "bytes4",
          "name": "interfaceId",
          "type": "bytes4"
        }
      ],
      "name": "supportsInterface",
      "outputs": [
        {
          "internalType": "bool",
          "name": "",
          "type": "bool"
        }
      ],
      "stateMutability": "view",
      "type": "function"
    },
    {
      "inputs": [],
      "name": "symbol",
      "outputs": [
        {
          "internalType": "string",
          "name": "",
          "type": "string"
        }
      ],
      "stateMutability": "view",
      "type": "function"
    },
    {
      "inputs": [
        {
          "internalType": "uint256",
          "name": "_tokenId",
          "type": "uint256"
        }
      ],
      "name": "tokenURI",
      "outputs": [
        {
          "internalType": "string",
          "name": "",
          "type": "string"
        }
      ],
      "stateMutability": "view",
      "type": "function"
    },
    {
      "inputs": [],
      "name": "totalBalance",
      "outputs": [
        {
          "internalType": "uint256",
          "name": "",
          "type": "uint256"
        }
      ],
      "stateMutability": "view",
      "type": "function"
    },
    {
      "inputs": [
        {
          "internalType": "address",
          "name": "from",
          "type": "address"
        },
        {
          "internalType": "address",
          "name": "to",
          "type": "address"
        },
        {
          "internalType": "uint256",
          "name": "tokenId",
          "type": "uint256"
        }
      ],
      "name": "transferFrom",
      "outputs": [],
      "stateMutability": "nonpayable",
      "type": "function"
    },
    {
      "inputs": [
        {
          "internalType": "address",
          "name": "newOwner",
          "type": "address"
        }
      ],
      "name": "transferOwnership",
      "outputs": [],
      "stateMutability": "nonpayable",
      "type": "function"
    }
  ],
  "bytecode": "0x60c06040526005608081905264173539b7b760d91b60a09081526200002891600c9190620003ba565b506040805180820190915260058082526402e776562760dc1b60209092019182526200005791600d91620003ba565b506611c37937e08000600e5560408051610140810182526005610100820181815264537469636b60d81b610120840152825282518084018452818152644b6e69666560d81b602082810191909152808401919091528351808501855282815264426c61646560d81b818301528385015283518085018552600481526321b63ab160e11b818301526060840152835180850185526002815261082f60f31b818301526080840152835180850185528281526414dddbdc9960da1b8183015260a0840152835180850185529182526429b832b0b960d91b8282015260c08301919091528251808401909352600783526612185b18995c9960ca1b9083015260e08101919091526200016b90601390600862000449565b5060408051610140810182526005610100820190815264537061636560d81b6101208301528152815180830183526003815262536b7960e81b60208281019190915280830191909152825180840184526007808252664465736572747360c81b82840152838501919091528351808501855290815266466f726573747360c81b81830152606083015282518084018452600a81526947726173736c616e647360b01b8183015260808301528251808401845260098152684d6f756e7461696e7360b81b8183015260a08301528251808401845260068152654f6365616e7360d01b8183015260c08301528251808401909352600b83526a5261696e666f726573747360a81b9083015260e08101919091526200028c90601490600862000449565b5060408051600580825260c08201909252906020820160a08036833750508151620002bf926015925060200190620004a9565b50348015620002cd57600080fd5b50604051620040ca380380620040ca833981016040819052620002f0916200062d565b83518490849062000309906000906020850190620003ba565b5080516200031f906001906020840190620003ba565b5050506200033c620003366200036460201b60201c565b62000368565b600160085581516200035690600a906020850190620003ba565b50600b555062000703915050565b3390565b600780546001600160a01b038381166001600160a01b0319831681179093556040519116919082907f8be0079c531659141344cd1fd0a4f28419497f9722a3daafe3b4186f6b6457e090600090a35050565b828054620003c890620006c6565b90600052602060002090601f016020900481019282620003ec576000855562000437565b82601f106200040757805160ff191683800117855562000437565b8280016001018555821562000437579182015b82811115620004375782518255916020019190600101906200041a565b5062000445929150620004e6565b5090565b8280548282559060005260206000209081019282156200049b579160200282015b828111156200049b57825180516200048a918491602090910190620003ba565b50916020019190600101906200046a565b5062000445929150620004fd565b828054828255906000526020600020908101928215620004375791602002820182811115620004375782518255916020019190600101906200041a565b5b80821115620004455760008155600101620004e7565b80821115620004455760006200051482826200051e565b50600101620004fd565b5080546200052c90620006c6565b6000825580601f106200053d575050565b601f0160209004906000526020600020908101906200055d9190620004e6565b50565b634e487b7160e01b600052604160045260246000fd5b600082601f8301126200058857600080fd5b81516001600160401b0380821115620005a557620005a562000560565b604051601f8301601f19908116603f01168101908282118183101715620005d057620005d062000560565b81604052838152602092508683858801011115620005ed57600080fd5b600091505b83821015620006115785820183015181830184015290820190620005f2565b83821115620006235760008385830101525b9695505050505050565b600080600080608085870312156200064457600080fd5b84516001600160401b03808211156200065c57600080fd5b6200066a8883890162000576565b955060208701519150808211156200068157600080fd5b6200068f8883890162000576565b94506040870151915080821115620006a657600080fd5b50620006b58782880162000576565b606096909601519497939650505050565b600181811c90821680620006db57607f821691505b60208210811415620006fd57634e487b7160e01b600052602260045260246000fd5b50919050565b6139b780620007136000396000f3fe60806040526004361061019c5760003560e01c80638da5cb5b116100ec578063c2229fea1161008a578063d5abeb0111610064578063d5abeb011461045b578063e985e9c514610471578063f2fde38b146104ba578063fc8a16a0146104da57600080fd5b8063c2229fea1461041e578063c668286214610426578063c87b56dd1461043b57600080fd5b8063a9ef3aeb116100c6578063a9ef3aeb146103bd578063ad7a672f146103d2578063b88d4fde146103e8578063bdb4b8481461040857600080fd5b80638da5cb5b1461036a57806395d89b4114610388578063a22cb4651461039d57600080fd5b806342842e0e116101595780636c0360eb116101335780636c0360eb146102e55780636ef61600146102fa57806370a0823114610327578063715018a61461035557600080fd5b806342842e0e1461028557806355f804b3146102a55780636352211e146102c557600080fd5b806301ffc9a7146101a157806306fdde03146101d6578063081812fc146101f8578063095ea7b31461023057806311f5a1d41461025257806323b872dd14610265575b600080fd5b3480156101ad57600080fd5b506101c16101bc366004612dbb565b6104fc565b60405190151581526020015b60405180910390f35b3480156101e257600080fd5b506101eb61050d565b6040516101cd9190612e30565b34801561020457600080fd5b50610218610213366004612e43565b61059f565b6040516001600160a01b0390911681526020016101cd565b34801561023c57600080fd5b5061025061024b366004612e78565b6105c6565b005b610250610260366004612ea2565b6106e1565b34801561027157600080fd5b50610250610280366004612ec4565b610ae7565b34801561029157600080fd5b506102506102a0366004612ec4565b610b18565b3480156102b157600080fd5b506102506102c0366004612f8c565b610b33565b3480156102d157600080fd5b506102186102e0366004612e43565b610b4e565b3480156102f157600080fd5b506101eb610bae565b34801561030657600080fd5b5061031a610315366004612e43565b610c3c565b6040516101cd91906130b5565b34801561033357600080fd5b506103476103423660046130c8565b610f90565b6040519081526020016101cd565b34801561036157600080fd5b50610250611016565b34801561037657600080fd5b506007546001600160a01b0316610218565b34801561039457600080fd5b506101eb61102a565b3480156103a957600080fd5b506102506103b83660046130e3565b611039565b3480156103c957600080fd5b506101eb611044565b3480156103de57600080fd5b50610347600f5481565b3480156103f457600080fd5b5061025061040336600461311f565b611051565b34801561041457600080fd5b50610347600e5481565b610250611089565b34801561043257600080fd5b506101eb611514565b34801561044757600080fd5b506101eb610456366004612e43565b611521565b34801561046757600080fd5b50610347600b5481565b34801561047d57600080fd5b506101c161048c36600461319b565b6001600160a01b03918216600090815260056020908152604080832093909416825291909152205460ff1690565b3480156104c657600080fd5b506102506104d53660046130c8565b6115a9565b3480156104e657600080fd5b506104ef611622565b6040516101cd91906131ce565b600061050782611a33565b92915050565b60606000805461051c90613230565b80601f016020809104026020016040519081016040528092919081815260200182805461054890613230565b80156105955780601f1061056a57610100808354040283529160200191610595565b820191906000526020600020905b81548152906001019060200180831161057857829003601f168201915b5050505050905090565b60006105aa82611a58565b506000908152600460205260409020546001600160a01b031690565b60006105d182610b4e565b9050806001600160a01b0316836001600160a01b031614156106445760405162461bcd60e51b815260206004820152602160248201527f4552433732313a20617070726f76616c20746f2063757272656e74206f776e656044820152603960f91b60648201526084015b60405180910390fd5b336001600160a01b03821614806106605750610660813361048c565b6106d25760405162461bcd60e51b815260206004820152603d60248201527f4552433732313a20617070726f76652063616c6c6572206973206e6f7420746f60448201527f6b656e206f776e6572206f7220617070726f76656420666f7220616c6c000000606482015260840161063b565b6106dc8383611ab7565b505050565b6106e9611b25565b60008281526012602052604090205460ff1661073f5760405162461bcd60e51b815260206004820152601560248201527411985d1a195c88191bd95cc81b9bdd08195e1a5cdd605a1b604482015260640161063b565b60008181526012602052604090205460ff166107955760405162461bcd60e51b8152602060048201526015602482015274135bdd1a195c88191bd95cc81b9bdd08195e1a5cdd605a1b604482015260640161063b565b600b5460095411156107e95760405162461bcd60e51b815260206004820152601f60248201527f4f7574206f6620746f6b656e732c20636865636b206261636b206c6174657200604482015260640161063b565b6000341180156107fb5750600e543410155b6108475760405162461bcd60e51b815260206004820152601d60248201527f496e73756666696369656e742066756e6420666f72206d696e74696e67000000604482015260640161063b565b610855600980546001019055565b600061086060095490565b905061086b81611b7f565b6108ae5760405162461bcd60e51b81526020600482015260146024820152731b5a5b9d1a5b99c81d5b9cdd58d8d95cdcd99d5b60621b604482015260640161063b565b6108b6612c99565b6108be61102a565b6108c783611ccc565b6108d086611ccc565b6040516020016108e293929190613287565b60408051601f19818403018152918152908252805160608101909152602f80825261391360208301396020808301919091526000858152601082526040908190209051610935926006909201910161338b565b60408051601f198184030181529181528281019190915260008481526010602090815290829020915161096c9260080191016133bd565b60405160208183030381529060405281608001819052506109dc60158054806020026020016040519081016040528092919081815260200182805480156109d257602002820191906000526020600020905b8154815260200190600101908083116109be575b5050505050611d69565b60a0820152600a6109ec83611ccc565b600d604051602001610a00939291906133f9565b60408051601f198184030181529181526060830191909152600083815260106020908152919020825180518493600490930192610a41928492910190612ccf565b506020828101518051610a5a9260018501920190612ccf565b5060408201518051610a76916002840191602090910190612ccf565b5060608201518051610a92916003840191602090910190612ccf565b5060808201518051610aae916004840191602090910190612ccf565b5060a08201518160050155905050610ad7610ad16007546001600160a01b031690565b34611dee565b5050610ae36001600855565b5050565b610af13382611e4e565b610b0d5760405162461bcd60e51b815260040161063b9061342c565b6106dc838383611ecd565b6106dc83838360405180602001604052806000815250611051565b610b3b612031565b8051610ae390600a906020840190612ccf565b6000818152600260205260408120546001600160a01b0316806105075760405162461bcd60e51b8152602060048201526018602482015277115490cdcc8c4e881a5b9d985b1a59081d1bdad95b88125160421b604482015260640161063b565b600a8054610bbb90613230565b80601f0160208091040260200160405190810160405280929190818152602001828054610be790613230565b8015610c345780601f10610c0957610100808354040283529160200191610c34565b820191906000526020600020905b815481529060010190602001808311610c1757829003601f168201915b505050505081565b610c44612d53565b600082815260106020908152604091829020825160a0810184528154815260018201546001600160a01b03169281019290925260028101548284015260038101546060830152825160c08101909352600481018054929391926080850192919082908290610cb190613230565b80601f0160208091040260200160405190810160405280929190818152602001828054610cdd90613230565b8015610d2a5780601f10610cff57610100808354040283529160200191610d2a565b820191906000526020600020905b815481529060010190602001808311610d0d57829003601f168201915b50505050508152602001600182018054610d4390613230565b80601f0160208091040260200160405190810160405280929190818152602001828054610d6f90613230565b8015610dbc5780601f10610d9157610100808354040283529160200191610dbc565b820191906000526020600020905b815481529060010190602001808311610d9f57829003601f168201915b50505050508152602001600282018054610dd590613230565b80601f0160208091040260200160405190810160405280929190818152602001828054610e0190613230565b8015610e4e5780601f10610e2357610100808354040283529160200191610e4e565b820191906000526020600020905b815481529060010190602001808311610e3157829003601f168201915b50505050508152602001600382018054610e6790613230565b80601f0160208091040260200160405190810160405280929190818152602001828054610e9390613230565b8015610ee05780601f10610eb557610100808354040283529160200191610ee0565b820191906000526020600020905b815481529060010190602001808311610ec357829003601f168201915b50505050508152602001600482018054610ef990613230565b80601f0160208091040260200160405190810160405280929190818152602001828054610f2590613230565b8015610f725780601f10610f4757610100808354040283529160200191610f72565b820191906000526020600020905b815481529060010190602001808311610f5557829003601f168201915b50505050508152602001600582015481525050815250509050919050565b60006001600160a01b038216610ffa5760405162461bcd60e51b815260206004820152602960248201527f4552433732313a2061646472657373207a65726f206973206e6f7420612076616044820152683634b21037bbb732b960b91b606482015260840161063b565b506001600160a01b031660009081526003602052604090205490565b61101e612031565b611028600061208b565b565b60606001805461051c90613230565b610ae33383836120dd565b600d8054610bbb90613230565b61105b3383611e4e565b6110775760405162461bcd60e51b815260040161063b9061342c565b611083848484846121ac565b50505050565b611091611b25565b600b5460095411156110e55760405162461bcd60e51b815260206004820152601f60248201527f4f7574206f6620746f6b656e732c20636865636b206261636b206c6174657200604482015260640161063b565b6000341180156110f75750600e543410155b6111435760405162461bcd60e51b815260206004820152601d60248201527f496e73756666696369656e742066756e6420666f72206d696e74696e67000000604482015260640161063b565b611151600980546001019055565b600061115c60095490565b905061116781611b7f565b6111aa5760405162461bcd60e51b81526020600482015260146024820152731b5a5b9d1a5b99c81d5b9cdd58d8d95cdcd99d5b60621b604482015260640161063b565b6111b2612c99565b6111ba61102a565b6111c383611ccc565b6040516020016111d4929190613479565b60408051601f19818403018152918152908252805160608101909152602f808252613913602083013981602001819052506112df6013805480602002602001604051908101604052809291908181526020016000905b828210156112d657838290600052602060002001805461124990613230565b80601f016020809104026020016040519081016040528092919081815260200182805461127590613230565b80156112c25780601f10611297576101008083540402835291602001916112c2565b820191906000526020600020905b8154815290600101906020018083116112a557829003601f168201915b50505050508152602001906001019061122a565b505050506121df565b81604001819052506113b86014805480602002602001604051908101604052809291908181526020016000905b828210156112d657838290600052602060002001805461132b90613230565b80601f016020809104026020016040519081016040528092919081815260200182805461135790613230565b80156113a45780601f10611379576101008083540402835291602001916113a4565b820191906000526020600020905b81548152906001019060200180831161138757829003601f168201915b50505050508152602001906001019061130c565b6080820152601580546040805160208084028201810190925282815261141393909290918301828280156109d257602002820191906000526020600020908154815260200190600101908083116109be575050505050611d69565b60a0820152600a61142383611ccc565b600d604051602001611437939291906133f9565b60408051601f198184030181529181526060830191909152600083815260106020908152919020825180518493600490930192611478928492910190612ccf565b5060208281015180516114919260018501920190612ccf565b50604082015180516114ad916002840191602090910190612ccf565b50606082015180516114c9916003840191602090910190612ccf565b50608082015180516114e5916004840191602090910190612ccf565b5060a08201518160050155905050611508610ad16007546001600160a01b031690565b50506110286001600855565b600c8054610bbb90613230565b6000818152600260205260409020546060906001600160a01b03166115a05760405162461bcd60e51b815260206004820152602f60248201527f4552433732314d657461646174613a2055524920717565727920666f72206e6f60448201526e3732bc34b9ba32b73a103a37b5b2b760891b606482015260840161063b565b6105078261225a565b6115b1612031565b6001600160a01b0381166116165760405162461bcd60e51b815260206004820152602660248201527f4f776e61626c653a206e6577206f776e657220697320746865207a65726f206160448201526564647265737360d01b606482015260840161063b565b61161f8161208b565b50565b6060600061162f60095490565b90508067ffffffffffffffff81111561164a5761164a612f00565b60405190808252806020026020018201604052801561168357816020015b611670612d53565b8152602001906001900390816116685790505b50915060005b81811015611a2e57601060006116a08360016134cc565b81526020019081526020016000206040518060a0016040529081600082015481526020016001820160009054906101000a90046001600160a01b03166001600160a01b03166001600160a01b031681526020016002820154815260200160038201548152602001600482016040518060c001604052908160008201805461172690613230565b80601f016020809104026020016040519081016040528092919081815260200182805461175290613230565b801561179f5780601f106117745761010080835404028352916020019161179f565b820191906000526020600020905b81548152906001019060200180831161178257829003601f168201915b505050505081526020016001820180546117b890613230565b80601f01602080910402602001604051908101604052809291908181526020018280546117e490613230565b80156118315780601f1061180657610100808354040283529160200191611831565b820191906000526020600020905b81548152906001019060200180831161181457829003601f168201915b5050505050815260200160028201805461184a90613230565b80601f016020809104026020016040519081016040528092919081815260200182805461187690613230565b80156118c35780601f10611898576101008083540402835291602001916118c3565b820191906000526020600020905b8154815290600101906020018083116118a657829003601f168201915b505050505081526020016003820180546118dc90613230565b80601f016020809104026020016040519081016040528092919081815260200182805461190890613230565b80156119555780601f1061192a57610100808354040283529160200191611955565b820191906000526020600020905b81548152906001019060200180831161193857829003601f168201915b5050505050815260200160048201805461196e90613230565b80601f016020809104026020016040519081016040528092919081815260200182805461199a90613230565b80156119e75780601f106119bc576101008083540402835291602001916119e7565b820191906000526020600020905b8154815290600101906020018083116119ca57829003601f168201915b5050505050815260200160058201548152505081525050838281518110611a1057611a106134e4565b60200260200101819052508080611a26906134fa565b915050611689565b505090565b60006001600160e01b03198216632483248360e11b1480610507575061050782612604565b6000818152600260205260409020546001600160a01b031661161f5760405162461bcd60e51b8152602060048201526018602482015277115490cdcc8c4e881a5b9d985b1a59081d1bdad95b88125160421b604482015260640161063b565b600081815260046020526040902080546001600160a01b0319166001600160a01b0384169081179091558190611aec82610b4e565b6001600160a01b03167f8c5be1e5ebec7d5bd14f71427d1e84f3dd0314c0f7b2291e5b200ac8c7c3b92560405160405180910390a45050565b60026008541415611b785760405162461bcd60e51b815260206004820152601f60248201527f5265656e7472616e637947756172643a207265656e7472616e742063616c6c00604482015260640161063b565b6002600855565b6000611b8b3383612654565b611b9d82611b9884611521565b61266e565b611ba5612d53565b828152336020820152346040820152611bbc612740565b6060820190815260008481526010602090815260409182902084518155818501516001820180546001600160a01b0319166001600160a01b039092169190911790559184015160028301559151600382015560808301518051805185946004850192611c2e9284929190910190612ccf565b506020828101518051611c479260018501920190612ccf565b5060408201518051611c63916002840191602090910190612ccf565b5060608201518051611c7f916003840191602090910190612ccf565b5060808201518051611c9b916004840191602090910190612ccf565b5060a09190910151600590910155505050600091825250601260205260409020805460ff1916600190811790915590565b60606000611cd98361275b565b600101905060008167ffffffffffffffff811115611cf957611cf9612f00565b6040519080825280601f01601f191660200182016040528015611d23576020820181803683370190505b5090508181016020015b600019016f181899199a1a9b1b9c1cb0b131b232b360811b600a86061a8153600a8504945084611d5c57611d61565b611d2d565b509392505050565b60008082514233604051602001611d9c92919091825260601b6bffffffffffffffffffffffff1916602082015260340190565b6040516020818303038152906040528051906020012060001c611dbf919061352b565b9050828181518110611dd357611dd36134e4565b60200260200101516001611de791906134cc565b9392505050565b6000826001600160a01b03168260405160006040518083038185875af1925050503d8060008114611e3b576040519150601f19603f3d011682016040523d82523d6000602084013e611e40565b606091505b50509050806106dc57600080fd5b600080611e5a83610b4e565b9050806001600160a01b0316846001600160a01b03161480611ea157506001600160a01b0380821660009081526005602090815260408083209388168352929052205460ff165b80611ec55750836001600160a01b0316611eba8461059f565b6001600160a01b0316145b949350505050565b826001600160a01b0316611ee082610b4e565b6001600160a01b031614611f065760405162461bcd60e51b815260040161063b9061353f565b6001600160a01b038216611f685760405162461bcd60e51b8152602060048201526024808201527f4552433732313a207472616e7366657220746f20746865207a65726f206164646044820152637265737360e01b606482015260840161063b565b826001600160a01b0316611f7b82610b4e565b6001600160a01b031614611fa15760405162461bcd60e51b815260040161063b9061353f565b600081815260046020908152604080832080546001600160a01b03199081169091556001600160a01b0387811680865260038552838620805460001901905590871680865283862080546001019055868652600290945282852080549092168417909155905184937fddf252ad1be2c89b69c2b068fc378daa952ba7f163c4a11628f55a4df523b3ef91a4505050565b6007546001600160a01b031633146110285760405162461bcd60e51b815260206004820181905260248201527f4f776e61626c653a2063616c6c6572206973206e6f7420746865206f776e6572604482015260640161063b565b600780546001600160a01b038381166001600160a01b0319831681179093556040519116919082907f8be0079c531659141344cd1fd0a4f28419497f9722a3daafe3b4186f6b6457e090600090a35050565b816001600160a01b0316836001600160a01b0316141561213f5760405162461bcd60e51b815260206004820152601960248201527f4552433732313a20617070726f766520746f2063616c6c657200000000000000604482015260640161063b565b6001600160a01b03838116600081815260056020908152604080832094871680845294825291829020805460ff191686151590811790915591519182527f17307eab39ab6107e8899845ad3d59bd9653f200f220920489ca2b5937696c31910160405180910390a3505050565b6121b7848484611ecd565b6121c384848484612833565b6110835760405162461bcd60e51b815260040161063b90613584565b606060008251423360405160200161221392919091825260601b6bffffffffffffffffffffffff1916602082015260340190565b6040516020818303038152906040528051906020012060001c612236919061352b565b905082818151811061224a5761224a6134e4565b6020026020010151915050919050565b60606000601060008481526020019081526020016000206004016040518060c001604052908160008201805461228f90613230565b80601f01602080910402602001604051908101604052809291908181526020018280546122bb90613230565b80156123085780601f106122dd57610100808354040283529160200191612308565b820191906000526020600020905b8154815290600101906020018083116122eb57829003601f168201915b5050505050815260200160018201805461232190613230565b80601f016020809104026020016040519081016040528092919081815260200182805461234d90613230565b801561239a5780601f1061236f5761010080835404028352916020019161239a565b820191906000526020600020905b81548152906001019060200180831161237d57829003601f168201915b505050505081526020016002820180546123b390613230565b80601f01602080910402602001604051908101604052809291908181526020018280546123df90613230565b801561242c5780601f106124015761010080835404028352916020019161242c565b820191906000526020600020905b81548152906001019060200180831161240f57829003601f168201915b5050505050815260200160038201805461244590613230565b80601f016020809104026020016040519081016040528092919081815260200182805461247190613230565b80156124be5780601f10612493576101008083540402835291602001916124be565b820191906000526020600020905b8154815290600101906020018083116124a157829003601f168201915b505050505081526020016004820180546124d790613230565b80601f016020809104026020016040519081016040528092919081815260200182805461250390613230565b80156125505780601f1061252557610100808354040283529160200191612550565b820191906000526020600020905b81548152906001019060200180831161253357829003601f168201915b505050505081526020016005820154815250509050600061256f612740565b9050600061258b836080015184604001518560a0015185612931565b90506125db61259986611ccc565b84516020860151600e546125ac90611ccc565b8760600151866040516020016125c7969594939291906135d6565b604051602081830303815290604052612973565b6040516020016125eb91906136f8565b6040516020818303038152906040529350505050919050565b60006001600160e01b031982166380ac58cd60e01b148061263557506001600160e01b03198216635b5e139f60e01b145b8061050757506301ffc9a760e01b6001600160e01b0319831614610507565b610ae3828260405180602001604052806000815250612adb565b6000828152600260205260409020546001600160a01b03166126e95760405162461bcd60e51b815260206004820152602e60248201527f45524337323155524953746f726167653a2055524920736574206f66206e6f6e60448201526d32bc34b9ba32b73a103a37b5b2b760911b606482015260840161063b565b6000828152600660209081526040909120825161270892840190612ccf565b506040518281527ff8e1a15aba9398e019f0b49df1a4fde98ee17ae345cb5f6b5e2c27f5033e8ce79060200160405180910390a15050565b60008061274f426103e861373d565b610507906103e86134cc565b60008072184f03e93ff9f4daa797ed6e38ed64bf6a1f0160401b831061279a5772184f03e93ff9f4daa797ed6e38ed64bf6a1f0160401b830492506040015b6d04ee2d6d415b85acef810000000083106127c6576d04ee2d6d415b85acef8100000000830492506020015b662386f26fc1000083106127e457662386f26fc10000830492506010015b6305f5e10083106127fc576305f5e100830492506008015b612710831061281057612710830492506004015b60648310612822576064830492506002015b600a83106105075760010192915050565b60006001600160a01b0384163b1561292657604051630a85bd0160e11b81526001600160a01b0385169063150b7a029061287790339089908890889060040161375c565b6020604051808303816000875af19250505080156128b2575060408051601f3d908101601f191682019092526128af91810190613799565b60015b61290c573d8080156128e0576040519150601f19603f3d011682016040523d82523d6000602084013e6128e5565b606091505b5080516129045760405162461bcd60e51b815260040161063b90613584565b805181602001fd5b6001600160e01b031916630a85bd0160e11b149050611ec5565b506001949350505050565b6060848461293e85611ccc565b61294785611ccc565b60405160200161295a94939291906137b6565b6040516020818303038152906040529050949350505050565b606081516000141561299357505060408051602081019091526000815290565b600060405180606001604052806040815260200161394260409139905060006003845160026129c291906134cc565b6129cc91906138fe565b6129d790600461373d565b905060006129e68260206134cc565b67ffffffffffffffff8111156129fe576129fe612f00565b6040519080825280601f01601f191660200182016040528015612a28576020820181803683370190505b509050818152600183018586518101602084015b81831015612a965760039283018051603f601282901c811687015160f890811b8552600c83901c8216880151811b6001860152600683901c8216880151811b60028601529116860151901b93820193909352600401612a3c565b600389510660018114612ab05760028114612ac157612acd565b613d3d60f01b600119830152612acd565b603d60f81b6000198301525b509398975050505050505050565b612ae58383612b0e565b612af26000848484612833565b6106dc5760405162461bcd60e51b815260040161063b90613584565b6001600160a01b038216612b645760405162461bcd60e51b815260206004820181905260248201527f4552433732313a206d696e7420746f20746865207a65726f2061646472657373604482015260640161063b565b6000818152600260205260409020546001600160a01b031615612bc95760405162461bcd60e51b815260206004820152601c60248201527f4552433732313a20746f6b656e20616c7265616479206d696e74656400000000604482015260640161063b565b6000818152600260205260409020546001600160a01b031615612c2e5760405162461bcd60e51b815260206004820152601c60248201527f4552433732313a20746f6b656e20616c7265616479206d696e74656400000000604482015260640161063b565b6001600160a01b038216600081815260036020908152604080832080546001019055848352600290915280822080546001600160a01b0319168417905551839291907fddf252ad1be2c89b69c2b068fc378daa952ba7f163c4a11628f55a4df523b3ef908290a45050565b6040518060c001604052806060815260200160608152602001606081526020016060815260200160608152602001600081525090565b828054612cdb90613230565b90600052602060002090601f016020900481019282612cfd5760008555612d43565b82601f10612d1657805160ff1916838001178555612d43565b82800160010185558215612d43579182015b82811115612d43578251825591602001919060010190612d28565b50612d4f929150612d90565b5090565b6040518060a001604052806000815260200160006001600160a01b031681526020016000815260200160008152602001612d8b612c99565b905290565b5b80821115612d4f5760008155600101612d91565b6001600160e01b03198116811461161f57600080fd5b600060208284031215612dcd57600080fd5b8135611de781612da5565b60005b83811015612df3578181015183820152602001612ddb565b838111156110835750506000910152565b60008151808452612e1c816020860160208601612dd8565b601f01601f19169290920160200192915050565b602081526000611de76020830184612e04565b600060208284031215612e5557600080fd5b5035919050565b80356001600160a01b0381168114612e7357600080fd5b919050565b60008060408385031215612e8b57600080fd5b612e9483612e5c565b946020939093013593505050565b60008060408385031215612eb557600080fd5b50508035926020909101359150565b600080600060608486031215612ed957600080fd5b612ee284612e5c565b9250612ef060208501612e5c565b9150604084013590509250925092565b634e487b7160e01b600052604160045260246000fd5b600067ffffffffffffffff80841115612f3157612f31612f00565b604051601f8501601f19908116603f01168101908282118183101715612f5957612f59612f00565b81604052809350858152868686011115612f7257600080fd5b858560208301376000602087830101525050509392505050565b600060208284031215612f9e57600080fd5b813567ffffffffffffffff811115612fb557600080fd5b8201601f81018413612fc657600080fd5b611ec584823560208401612f16565b8051825260018060a01b03602082015116602083015260408101516040830152606081015160608301526000608082015160a06080850152805160c060a0860152613024610160860182612e04565b90506020820151609f19808784030160c08801526130428383612e04565b925060408401519150808784030160e088015261305f8383612e04565b925060608401519150808784030161010088015261307d8383612e04565b92506080840151915080878403016101208801525061309c8282612e04565b91505060a0820151610140860152809250505092915050565b602081526000611de76020830184612fd5565b6000602082840312156130da57600080fd5b611de782612e5c565b600080604083850312156130f657600080fd5b6130ff83612e5c565b91506020830135801515811461311457600080fd5b809150509250929050565b6000806000806080858703121561313557600080fd5b61313e85612e5c565b935061314c60208601612e5c565b925060408501359150606085013567ffffffffffffffff81111561316f57600080fd5b8501601f8101871361318057600080fd5b61318f87823560208401612f16565b91505092959194509250565b600080604083850312156131ae57600080fd5b6131b783612e5c565b91506131c560208401612e5c565b90509250929050565b6000602080830181845280855180835260408601915060408160051b870101925083870160005b8281101561322357603f19888603018452613211858351612fd5565b945092850192908501906001016131f5565b5092979650505050505050565b600181811c9082168061324457607f821691505b6020821081141561326557634e487b7160e01b600052602260045260246000fd5b50919050565b6000815161327d818560208601612dd8565b9290920192915050565b60008451613299818460208901612dd8565b61202360f01b90830190815284516132b8816002840160208901612dd8565b6a206368696c64206f66202360a81b6002929091019182015283516132e481600d840160208801612dd8565b01600d0195945050505050565b8054600090600181811c908083168061330b57607f831692505b602080841082141561332d57634e487b7160e01b600052602260045260246000fd5b81801561334157600181146133525761337f565b60ff1986168952848901965061337f565b60008881526020902060005b868110156133775781548b82015290850190830161335e565b505084890196505b50505050505092915050565b7f496e686572697465642046617468657220776561706f6e206f6620230000000081526000611de7601c8301846132f1565b7f496e68657269746564204d6f7468657220656e7669726f6e6d656e74206f66208152602360f81b60208201526000611de760218301846132f1565b600061340582866132f1565b8451613415818360208901612dd8565b613421818301866132f1565b979650505050505050565b6020808252602d908201527f4552433732313a2063616c6c6572206973206e6f7420746f6b656e206f776e6560408201526c1c881bdc88185c1c1c9bdd9959609a1b606082015260800190565b6000835161348b818460208801612dd8565b61202360f01b90830190815283516134aa816002840160208801612dd8565b01600201949350505050565b634e487b7160e01b600052601160045260246000fd5b600082198211156134df576134df6134b6565b500190565b634e487b7160e01b600052603260045260246000fd5b600060001982141561350e5761350e6134b6565b5060010190565b634e487b7160e01b600052601260045260246000fd5b60008261353a5761353a613515565b500690565b60208082526025908201527f4552433732313a207472616e736665722066726f6d20696e636f72726563742060408201526437bbb732b960d91b606082015260800190565b60208082526032908201527f4552433732313a207472616e7366657220746f206e6f6e20455243373231526560408201527131b2b4bb32b91034b6b83632b6b2b73a32b960711b606082015260800190565b663d9134b2111d1160c91b815286516000906135f9816007850160208c01612dd8565b691116113730b6b2911d1160b11b6007918401918201528751613623816011840160208c01612dd8565b701116113232b9b1b934b83a34b7b7111d1160791b601192909101918201528651613655816022840160208b01612dd8565b6a111611383934b1b2911d1160a91b60229290910191820152855161368181602d840160208a01612dd8565b6a11161134b6b0b3b2911d1160a91b602d929091019182015284516136ad816038840160208901612dd8565b6136ea6136dd6136d76038848601016e11161130ba3a3934b13aba32b9911d60891b8152600f0190565b8761326b565b607d60f81b815260010190565b9a9950505050505050505050565b7f646174613a6170706c69636174696f6e2f6a736f6e3b6261736536342c00000081526000825161373081601d850160208701612dd8565b91909101601d0192915050565b6000816000190483118215151615613757576137576134b6565b500290565b6001600160a01b038581168252841660208201526040810183905260806060820181905260009061378f90830184612e04565b9695505050505050565b6000602082840312156137ab57600080fd5b8151611de781612da5565b7f5b7b2274726169745f74797065223a22456e7669726f6e6d656e74222c227661815265363ab2911d1160d11b6020820152600085516137fd816026850160208a01612dd8565b62089f4b60ea1b60269184019182018190527f7b2274726169745f74797065223a22576561706f6e222c2276616c7565223a2260298301528651613848816049850160208b01612dd8565b604992019182018190527f7b2274726169745f74797065223a22526172697479222c2276616c7565223a22604c830152855161388b81606c850160208a01612dd8565b606c9201918201527f7b22646973706c61795f74797065223a2264617465222c2274726169745f7479606f8201527f7065223a2243726561746564222c2276616c7565223a22000000000000000000608f8201526134216138ef60a683018661326b565b62227d5d60e81b815260030190565b60008261390d5761390d613515565b50049056fe416d617a696e672041492067656e65726174656420617274776f726b7320616c6c20666f7220796f7572207573652e4142434445464748494a4b4c4d4e4f505152535455565758595a6162636465666768696a6b6c6d6e6f707172737475767778797a303132333435363738392b2fa264697066735822122025e6f7b97d58d064e301fedce883b30e0e4596378793bef1572fd534b3d002c864736f6c634300080b0033",
  "linkReferences": {},
  "deployedLinkReferences": {}
}