{
  "_format": "hh-sol-artifact-1",
  "contractName": "DappBreed",
  "sourceName": "src/contracts/DappBreed.sol",
  "abi": [
    {
      "inputs": [
        {
          "internalType": "string",
          "name": "_name",
          "type": "string"
        },
        {
          "internalType": "string",
          "name": "_symbol",
          "type": "string"
        },
        {
          "internalType": "string",
          "name": "_BaseURI",
          "type": "string"
        },
        {
          "internalType": "uint256",
          "name": "_maxSupply",
          "type": "uint256"
        }
      ],
      "stateMutability": "nonpayable",
      "type": "constructor"
    },
    {
      "anonymous": false,
      "inputs": [
        {
          "indexed": true,
          "internalType": "address",
          "name": "owner",
          "type": "address"
        },
        {
          "indexed": true,
          "internalType": "address",
          "name": "approved",
          "type": "address"
        },
        {
          "indexed": true,
          "internalType": "uint256",
          "name": "tokenId",
          "type": "uint256"
        }
      ],
      "name": "Approval",
      "type": "event"
    },
    {
      "anonymous": false,
      "inputs": [
        {
          "indexed": true,
          "internalType": "address",
          "name": "owner",
          "type": "address"
        },
        {
          "indexed": true,
          "internalType": "address",
          "name": "operator",
          "type": "address"
        },
        {
          "indexed": false,
          "internalType": "bool",
          "name": "approved",
          "type": "bool"
        }
      ],
      "name": "ApprovalForAll",
      "type": "event"
    },
    {
      "anonymous": false,
      "inputs": [
        {
          "indexed": false,
          "internalType": "uint256",
          "name": "_fromTokenId",
          "type": "uint256"
        },
        {
          "indexed": false,
          "internalType": "uint256",
          "name": "_toTokenId",
          "type": "uint256"
        }
      ],
      "name": "BatchMetadataUpdate",
      "type": "event"
    },
    {
      "anonymous": false,
      "inputs": [
        {
          "indexed": false,
          "internalType": "uint256",
          "name": "_tokenId",
          "type": "uint256"
        }
      ],
      "name": "MetadataUpdate",
      "type": "event"
    },
    {
      "anonymous": false,
      "inputs": [
        {
          "indexed": true,
          "internalType": "address",
          "name": "previousOwner",
          "type": "address"
        },
        {
          "indexed": true,
          "internalType": "address",
          "name": "newOwner",
          "type": "address"
        }
      ],
      "name": "OwnershipTransferred",
      "type": "event"
    },
    {
      "anonymous": false,
      "inputs": [
        {
          "indexed": true,
          "internalType": "address",
          "name": "from",
          "type": "address"
        },
        {
          "indexed": true,
          "internalType": "address",
          "name": "to",
          "type": "address"
        },
        {
          "indexed": true,
          "internalType": "uint256",
          "name": "tokenId",
          "type": "uint256"
        }
      ],
      "name": "Transfer",
      "type": "event"
    },
    {
      "inputs": [
        {
          "internalType": "address",
          "name": "to",
          "type": "address"
        },
        {
          "internalType": "uint256",
          "name": "tokenId",
          "type": "uint256"
        }
      ],
      "name": "approve",
      "outputs": [],
      "stateMutability": "nonpayable",
      "type": "function"
    },
    {
      "inputs": [
        {
          "internalType": "address",
          "name": "owner",
          "type": "address"
        }
      ],
      "name": "balanceOf",
      "outputs": [
        {
          "internalType": "uint256",
          "name": "",
          "type": "uint256"
        }
      ],
      "stateMutability": "view",
      "type": "function"
    },
    {
      "inputs": [],
      "name": "baseExtension",
      "outputs": [
        {
          "internalType": "string",
          "name": "",
          "type": "string"
        }
      ],
      "stateMutability": "view",
      "type": "function"
    },
    {
      "inputs": [],
      "name": "baseURI",
      "outputs": [
        {
          "internalType": "string",
          "name": "",
          "type": "string"
        }
      ],
      "stateMutability": "view",
      "type": "function"
    },
    {
      "inputs": [
        {
          "internalType": "uint256",
          "name": "_fatherTokenId",
          "type": "uint256"
        },
        {
          "internalType": "uint256",
          "name": "_motherTokenId",
          "type": "uint256"
        }
      ],
      "name": "breedNft",
      "outputs": [],
      "stateMutability": "payable",
      "type": "function"
    },
    {
      "inputs": [],
      "name": "getAllNfts",
      "outputs": [
        {
          "components": [
            {
              "internalType": "uint256",
              "name": "id",
              "type": "uint256"
            },
            {
              "internalType": "address",
              "name": "owner",
              "type": "address"
            },
            {
              "internalType": "uint256",
              "name": "mintCost",
              "type": "uint256"
            },
            {
              "internalType": "uint256",
              "name": "timestamp",
              "type": "uint256"
            },
            {
              "components": [
                {
                  "internalType": "string",
                  "name": "name",
                  "type": "string"
                },
                {
                  "internalType": "string",
                  "name": "description",
                  "type": "string"
                },
                {
                  "internalType": "string",
                  "name": "weapon",
                  "type": "string"
                },
                {
                  "internalType": "string",
                  "name": "image",
                  "type": "string"
                },
                {
                  "internalType": "string",
                  "name": "environment",
                  "type": "string"
                },
                {
                  "internalType": "uint256",
                  "name": "rarity",
                  "type": "uint256"
                },
                {
                  "internalType": "bool",
                  "name": "breeded",
                  "type": "bool"
                }
              ],
              "internalType": "struct DappBreed.TraitStruct",
              "name": "traits",
              "type": "tuple"
            }
          ],
          "internalType": "struct DappBreed.MintStruct[]",
          "name": "Minted",
          "type": "tuple[]"
        }
      ],
      "stateMutability": "view",
      "type": "function"
    },
    {
      "inputs": [
        {
          "internalType": "uint256",
          "name": "tokenId",
          "type": "uint256"
        }
      ],
      "name": "getApproved",
      "outputs": [
        {
          "internalType": "address",
          "name": "",
          "type": "address"
        }
      ],
      "stateMutability": "view",
      "type": "function"
    },
    {
      "inputs": [],
      "name": "getBreededNfts",
      "outputs": [
        {
          "components": [
            {
              "internalType": "uint256",
              "name": "id",
              "type": "uint256"
            },
            {
              "internalType": "address",
              "name": "owner",
              "type": "address"
            },
            {
              "internalType": "uint256",
              "name": "mintCost",
              "type": "uint256"
            },
            {
              "internalType": "uint256",
              "name": "timestamp",
              "type": "uint256"
            },
            {
              "components": [
                {
                  "internalType": "string",
                  "name": "name",
                  "type": "string"
                },
                {
                  "internalType": "string",
                  "name": "description",
                  "type": "string"
                },
                {
                  "internalType": "string",
                  "name": "weapon",
                  "type": "string"
                },
                {
                  "internalType": "string",
                  "name": "image",
                  "type": "string"
                },
                {
                  "internalType": "string",
                  "name": "environment",
                  "type": "string"
                },
                {
                  "internalType": "uint256",
                  "name": "rarity",
                  "type": "uint256"
                },
                {
                  "internalType": "bool",
                  "name": "breeded",
                  "type": "bool"
                }
              ],
              "internalType": "struct DappBreed.TraitStruct",
              "name": "traits",
              "type": "tuple"
            }
          ],
          "internalType": "struct DappBreed.MintStruct[]",
          "name": "Minted",
          "type": "tuple[]"
        }
      ],
      "stateMutability": "view",
      "type": "function"
    },
    {
      "inputs": [],
      "name": "getMintedNfts",
      "outputs": [
        {
          "components": [
            {
              "internalType": "uint256",
              "name": "id",
              "type": "uint256"
            },
            {
              "internalType": "address",
              "name": "owner",
              "type": "address"
            },
            {
              "internalType": "uint256",
              "name": "mintCost",
              "type": "uint256"
            },
            {
              "internalType": "uint256",
              "name": "timestamp",
              "type": "uint256"
            },
            {
              "components": [
                {
                  "internalType": "string",
                  "name": "name",
                  "type": "string"
                },
                {
                  "internalType": "string",
                  "name": "description",
                  "type": "string"
                },
                {
                  "internalType": "string",
                  "name": "weapon",
                  "type": "string"
                },
                {
                  "internalType": "string",
                  "name": "image",
                  "type": "string"
                },
                {
                  "internalType": "string",
                  "name": "environment",
                  "type": "string"
                },
                {
                  "internalType": "uint256",
                  "name": "rarity",
                  "type": "uint256"
                },
                {
                  "internalType": "bool",
                  "name": "breeded",
                  "type": "bool"
                }
              ],
              "internalType": "struct DappBreed.TraitStruct",
              "name": "traits",
              "type": "tuple"
            }
          ],
          "internalType": "struct DappBreed.MintStruct[]",
          "name": "Minted",
          "type": "tuple[]"
        }
      ],
      "stateMutability": "view",
      "type": "function"
    },
    {
      "inputs": [],
      "name": "getMyNfts",
      "outputs": [
        {
          "components": [
            {
              "internalType": "uint256",
              "name": "id",
              "type": "uint256"
            },
            {
              "internalType": "address",
              "name": "owner",
              "type": "address"
            },
            {
              "internalType": "uint256",
              "name": "mintCost",
              "type": "uint256"
            },
            {
              "internalType": "uint256",
              "name": "timestamp",
              "type": "uint256"
            },
            {
              "components": [
                {
                  "internalType": "string",
                  "name": "name",
                  "type": "string"
                },
                {
                  "internalType": "string",
                  "name": "description",
                  "type": "string"
                },
                {
                  "internalType": "string",
                  "name": "weapon",
                  "type": "string"
                },
                {
                  "internalType": "string",
                  "name": "image",
                  "type": "string"
                },
                {
                  "internalType": "string",
                  "name": "environment",
                  "type": "string"
                },
                {
                  "internalType": "uint256",
                  "name": "rarity",
                  "type": "uint256"
                },
                {
                  "internalType": "bool",
                  "name": "breeded",
                  "type": "bool"
                }
              ],
              "internalType": "struct DappBreed.TraitStruct",
              "name": "traits",
              "type": "tuple"
            }
          ],
          "internalType": "struct DappBreed.MintStruct[]",
          "name": "Minted",
          "type": "tuple[]"
        }
      ],
      "stateMutability": "view",
      "type": "function"
    },
    {
      "inputs": [
        {
          "internalType": "uint256",
          "name": "_tokenId",
          "type": "uint256"
        }
      ],
      "name": "getNft",
      "outputs": [
        {
          "components": [
            {
              "internalType": "uint256",
              "name": "id",
              "type": "uint256"
            },
            {
              "internalType": "address",
              "name": "owner",
              "type": "address"
            },
            {
              "internalType": "uint256",
              "name": "mintCost",
              "type": "uint256"
            },
            {
              "internalType": "uint256",
              "name": "timestamp",
              "type": "uint256"
            },
            {
              "components": [
                {
                  "internalType": "string",
                  "name": "name",
                  "type": "string"
                },
                {
                  "internalType": "string",
                  "name": "description",
                  "type": "string"
                },
                {
                  "internalType": "string",
                  "name": "weapon",
                  "type": "string"
                },
                {
                  "internalType": "string",
                  "name": "image",
                  "type": "string"
                },
                {
                  "internalType": "string",
                  "name": "environment",
                  "type": "string"
                },
                {
                  "internalType": "uint256",
                  "name": "rarity",
                  "type": "uint256"
                },
                {
                  "internalType": "bool",
                  "name": "breeded",
                  "type": "bool"
                }
              ],
              "internalType": "struct DappBreed.TraitStruct",
              "name": "traits",
              "type": "tuple"
            }
          ],
          "internalType": "struct DappBreed.MintStruct",
          "name": "",
          "type": "tuple"
        }
      ],
      "stateMutability": "view",
      "type": "function"
    },
    {
      "inputs": [],
      "name": "imageExtension",
      "outputs": [
        {
          "internalType": "string",
          "name": "",
          "type": "string"
        }
      ],
      "stateMutability": "view",
      "type": "function"
    },
    {
      "inputs": [
        {
          "internalType": "address",
          "name": "owner",
          "type": "address"
        },
        {
          "internalType": "address",
          "name": "operator",
          "type": "address"
        }
      ],
      "name": "isApprovedForAll",
      "outputs": [
        {
          "internalType": "bool",
          "name": "",
          "type": "bool"
        }
      ],
      "stateMutability": "view",
      "type": "function"
    },
    {
      "inputs": [],
      "name": "maxSupply",
      "outputs": [
        {
          "internalType": "uint256",
          "name": "",
          "type": "uint256"
        }
      ],
      "stateMutability": "view",
      "type": "function"
    },
    {
      "inputs": [],
      "name": "mintCost",
      "outputs": [
        {
          "internalType": "uint256",
          "name": "",
          "type": "uint256"
        }
      ],
      "stateMutability": "view",
      "type": "function"
    },
    {
      "inputs": [],
      "name": "mintNft",
      "outputs": [],
      "stateMutability": "payable",
      "type": "function"
    },
    {
      "inputs": [],
      "name": "name",
      "outputs": [
        {
          "internalType": "string",
          "name": "",
          "type": "string"
        }
      ],
      "stateMutability": "view",
      "type": "function"
    },
    {
      "inputs": [],
      "name": "owner",
      "outputs": [
        {
          "internalType": "address",
          "name": "",
          "type": "address"
        }
      ],
      "stateMutability": "view",
      "type": "function"
    },
    {
      "inputs": [
        {
          "internalType": "uint256",
          "name": "tokenId",
          "type": "uint256"
        }
      ],
      "name": "ownerOf",
      "outputs": [
        {
          "internalType": "address",
          "name": "",
          "type": "address"
        }
      ],
      "stateMutability": "view",
      "type": "function"
    },
    {
      "inputs": [],
      "name": "renounceOwnership",
      "outputs": [],
      "stateMutability": "nonpayable",
      "type": "function"
    },
    {
      "inputs": [
        {
          "internalType": "address",
          "name": "from",
          "type": "address"
        },
        {
          "internalType": "address",
          "name": "to",
          "type": "address"
        },
        {
          "internalType": "uint256",
          "name": "tokenId",
          "type": "uint256"
        }
      ],
      "name": "safeTransferFrom",
      "outputs": [],
      "stateMutability": "nonpayable",
      "type": "function"
    },
    {
      "inputs": [
        {
          "internalType": "address",
          "name": "from",
          "type": "address"
        },
        {
          "internalType": "address",
          "name": "to",
          "type": "address"
        },
        {
          "internalType": "uint256",
          "name": "tokenId",
          "type": "uint256"
        },
        {
          "internalType": "bytes",
          "name": "data",
          "type": "bytes"
        }
      ],
      "name": "safeTransferFrom",
      "outputs": [],
      "stateMutability": "nonpayable",
      "type": "function"
    },
    {
      "inputs": [
        {
          "internalType": "address",
          "name": "operator",
          "type": "address"
        },
        {
          "internalType": "bool",
          "name": "approved",
          "type": "bool"
        }
      ],
      "name": "setApprovalForAll",
      "outputs": [],
      "stateMutability": "nonpayable",
      "type": "function"
    },
    {
      "inputs": [
        {
          "internalType": "string",
          "name": "_newBaseURI",
          "type": "string"
        }
      ],
      "name": "setBaseURI",
      "outputs": [],
      "stateMutability": "nonpayable",
      "type": "function"
    },
    {
      "inputs": [
        {
          "internalType": "bytes4",
          "name": "interfaceId",
          "type": "bytes4"
        }
      ],
      "name": "supportsInterface",
      "outputs": [
        {
          "internalType": "bool",
          "name": "",
          "type": "bool"
        }
      ],
      "stateMutability": "view",
      "type": "function"
    },
    {
      "inputs": [],
      "name": "symbol",
      "outputs": [
        {
          "internalType": "string",
          "name": "",
          "type": "string"
        }
      ],
      "stateMutability": "view",
      "type": "function"
    },
    {
      "inputs": [
        {
          "internalType": "uint256",
          "name": "_tokenId",
          "type": "uint256"
        }
      ],
      "name": "tokenURI",
      "outputs": [
        {
          "internalType": "string",
          "name": "",
          "type": "string"
        }
      ],
      "stateMutability": "view",
      "type": "function"
    },
    {
      "inputs": [],
      "name": "totalBalance",
      "outputs": [
        {
          "internalType": "uint256",
          "name": "",
          "type": "uint256"
        }
      ],
      "stateMutability": "view",
      "type": "function"
    },
    {
      "inputs": [
        {
          "internalType": "address",
          "name": "from",
          "type": "address"
        },
        {
          "internalType": "address",
          "name": "to",
          "type": "address"
        },
        {
          "internalType": "uint256",
          "name": "tokenId",
          "type": "uint256"
        }
      ],
      "name": "transferFrom",
      "outputs": [],
      "stateMutability": "nonpayable",
      "type": "function"
    },
    {
      "inputs": [
        {
          "internalType": "address",
          "name": "newOwner",
          "type": "address"
        }
      ],
      "name": "transferOwnership",
      "outputs": [],
      "stateMutability": "nonpayable",
      "type": "function"
    }
  ],
  "bytecode": "0x60c06040526005608081905264173539b7b760d91b60a09081526200002891600c9190620003ba565b506040805180820190915260058082526402e776562760dc1b60209092019182526200005791600d91620003ba565b506611c37937e08000600e5560408051610140810182526005610100820181815264537469636b60d81b610120840152825282518084018452818152644b6e69666560d81b602082810191909152808401919091528351808501855282815264426c61646560d81b818301528385015283518085018552600481526321b63ab160e11b818301526060840152835180850185526002815261082f60f31b818301526080840152835180850185528281526414dddbdc9960da1b8183015260a0840152835180850185529182526429b832b0b960d91b8282015260c08301919091528251808401909352600783526612185b18995c9960ca1b9083015260e08101919091526200016b90601290600862000449565b5060408051610140810182526005610100820190815264537061636560d81b6101208301528152815180830183526003815262536b7960e81b60208281019190915280830191909152825180840184526007808252664465736572747360c81b82840152838501919091528351808501855290815266466f726573747360c81b81830152606083015282518084018452600a81526947726173736c616e647360b01b8183015260808301528251808401845260098152684d6f756e7461696e7360b81b8183015260a08301528251808401845260068152654f6365616e7360d01b8183015260c08301528251808401909352600b83526a5261696e666f726573747360a81b9083015260e08101919091526200028c90601390600862000449565b5060408051600580825260c08201909252906020820160a08036833750508151620002bf926014925060200190620004a9565b50348015620002cd57600080fd5b5060405162004e8a38038062004e8a833981016040819052620002f0916200062d565b83518490849062000309906000906020850190620003ba565b5080516200031f906001906020840190620003ba565b5050506200033c620003366200036460201b60201c565b62000368565b600160085581516200035690600a906020850190620003ba565b50600b555062000703915050565b3390565b600780546001600160a01b038381166001600160a01b0319831681179093556040519116919082907f8be0079c531659141344cd1fd0a4f28419497f9722a3daafe3b4186f6b6457e090600090a35050565b828054620003c890620006c6565b90600052602060002090601f016020900481019282620003ec576000855562000437565b82601f106200040757805160ff191683800117855562000437565b8280016001018555821562000437579182015b82811115620004375782518255916020019190600101906200041a565b5062000445929150620004e6565b5090565b8280548282559060005260206000209081019282156200049b579160200282015b828111156200049b57825180516200048a918491602090910190620003ba565b50916020019190600101906200046a565b5062000445929150620004fd565b828054828255906000526020600020908101928215620004375791602002820182811115620004375782518255916020019190600101906200041a565b5b80821115620004455760008155600101620004e7565b80821115620004455760006200051482826200051e565b50600101620004fd565b5080546200052c90620006c6565b6000825580601f106200053d575050565b601f0160209004906000526020600020908101906200055d9190620004e6565b50565b634e487b7160e01b600052604160045260246000fd5b600082601f8301126200058857600080fd5b81516001600160401b0380821115620005a557620005a562000560565b604051601f8301601f19908116603f01168101908282118183101715620005d057620005d062000560565b81604052838152602092508683858801011115620005ed57600080fd5b600091505b83821015620006115785820183015181830184015290820190620005f2565b83821115620006235760008385830101525b9695505050505050565b600080600080608085870312156200064457600080fd5b84516001600160401b03808211156200065c57600080fd5b6200066a8883890162000576565b955060208701519150808211156200068157600080fd5b6200068f8883890162000576565b94506040870151915080821115620006a657600080fd5b50620006b58782880162000576565b606096909601519497939650505050565b600181811c90821680620006db57607f821691505b60208210811415620006fd57634e487b7160e01b600052602260045260246000fd5b50919050565b61477780620007136000396000f3fe6080604052600436106101cd5760003560e01c80638da5cb5b116100f7578063c2229fea11610095578063d9ce81e511610064578063d9ce81e5146104d9578063e985e9c5146104ee578063f2fde38b14610537578063fc8a16a01461055757600080fd5b8063c2229fea14610486578063c66828621461048e578063c87b56dd146104a3578063d5abeb01146104c357600080fd5b8063a9ef3aeb116100d1578063a9ef3aeb14610425578063ad7a672f1461043a578063b88d4fde14610450578063bdb4b8481461047057600080fd5b80638da5cb5b146103d257806395d89b41146103f0578063a22cb4651461040557600080fd5b806341f63bfd1161016f5780636c0360eb1161013e5780636c0360eb1461036557806370a082311461037a578063715018a6146103a8578063732e8d73146103bd57600080fd5b806341f63bfd146102d857806342842e0e1461030557806355f804b3146103255780636352211e1461034557600080fd5b8063081812fc116101ab578063081812fc1461024b578063095ea7b31461028357806311f5a1d4146102a557806323b872dd146102b857600080fd5b806301ffc9a7146101d2578063047b07bf1461020757806306fdde0314610229575b600080fd5b3480156101de57600080fd5b506101f26101ed366004613bef565b61056c565b60405190151581526020015b60405180910390f35b34801561021357600080fd5b5061021c61057d565b6040516101fe9190613d57565b34801561023557600080fd5b5061023e610a34565b6040516101fe9190613db9565b34801561025757600080fd5b5061026b610266366004613dcc565b610ac6565b6040516001600160a01b0390911681526020016101fe565b34801561028f57600080fd5b506102a361029e366004613e01565b610aed565b005b6102a36102b3366004613e2b565b610c08565b3480156102c457600080fd5b506102a36102d3366004613e4d565b6110a4565b3480156102e457600080fd5b506102f86102f3366004613dcc565b6110d5565b6040516101fe9190613e89565b34801561031157600080fd5b506102a3610320366004613e4d565b611437565b34801561033157600080fd5b506102a3610340366004613f28565b611452565b34801561035157600080fd5b5061026b610360366004613dcc565b61146d565b34801561037157600080fd5b5061023e6114cd565b34801561038657600080fd5b5061039a610395366004613f71565b61155b565b6040519081526020016101fe565b3480156103b457600080fd5b506102a36115e1565b3480156103c957600080fd5b5061021c6115f5565b3480156103de57600080fd5b506007546001600160a01b031661026b565b3480156103fc57600080fd5b5061023e611a13565b34801561041157600080fd5b506102a3610420366004613f8c565b611a22565b34801561043157600080fd5b5061023e611a2d565b34801561044657600080fd5b5061039a600f5481565b34801561045c57600080fd5b506102a361046b366004613fc8565b611a3a565b34801561047c57600080fd5b5061039a600e5481565b6102a3611a72565b34801561049a57600080fd5b5061023e611e89565b3480156104af57600080fd5b5061023e6104be366004613dcc565b611e96565b3480156104cf57600080fd5b5061039a600b5481565b3480156104e557600080fd5b5061021c611f1e565b3480156104fa57600080fd5b506101f2610509366004614044565b6001600160a01b03918216600090815260056020908152604080832093909416825291909152205460ff1690565b34801561054357600080fd5b506102a3610552366004613f71565b6123bf565b34801561056357600080fd5b5061021c612438565b6000610577826128d7565b92915050565b60606000805b6009548110156105e057336010600061059d84600161408d565b81526020810191909152604001600020600101546001600160a01b031614156105ce57816105ca816140a5565b9250505b806105d8816140a5565b915050610583565b508067ffffffffffffffff8111156105fa576105fa613e9c565b60405190808252806020026020018201604052801561063357816020015b610620613acd565b8152602001906001900390816106185790505b5091506000805b600954811015610a2e57336010600061065484600161408d565b81526020810191909152604001600020600101546001600160a01b03161415610a1c576010600061068683600161408d565b81526020019081526020016000206040518060a0016040529081600082015481526020016001820160009054906101000a90046001600160a01b03166001600160a01b03166001600160a01b031681526020016002820154815260200160038201548152602001600482016040518060e001604052908160008201805461070c906140c0565b80601f0160208091040260200160405190810160405280929190818152602001828054610738906140c0565b80156107855780601f1061075a57610100808354040283529160200191610785565b820191906000526020600020905b81548152906001019060200180831161076857829003601f168201915b5050505050815260200160018201805461079e906140c0565b80601f01602080910402602001604051908101604052809291908181526020018280546107ca906140c0565b80156108175780601f106107ec57610100808354040283529160200191610817565b820191906000526020600020905b8154815290600101906020018083116107fa57829003601f168201915b50505050508152602001600282018054610830906140c0565b80601f016020809104026020016040519081016040528092919081815260200182805461085c906140c0565b80156108a95780601f1061087e576101008083540402835291602001916108a9565b820191906000526020600020905b81548152906001019060200180831161088c57829003601f168201915b505050505081526020016003820180546108c2906140c0565b80601f01602080910402602001604051908101604052809291908181526020018280546108ee906140c0565b801561093b5780601f106109105761010080835404028352916020019161093b565b820191906000526020600020905b81548152906001019060200180831161091e57829003601f168201915b50505050508152602001600482018054610954906140c0565b80601f0160208091040260200160405190810160405280929190818152602001828054610980906140c0565b80156109cd5780601f106109a2576101008083540402835291602001916109cd565b820191906000526020600020905b8154815290600101906020018083116109b057829003601f168201915b50505091835250506005820154602082015260069091015460ff16151560409091015290525084836109fe816140a5565b945081518110610a1057610a106140fb565b60200260200101819052505b80610a26816140a5565b91505061063a565b50505090565b606060008054610a43906140c0565b80601f0160208091040260200160405190810160405280929190818152602001828054610a6f906140c0565b8015610abc5780601f10610a9157610100808354040283529160200191610abc565b820191906000526020600020905b815481529060010190602001808311610a9f57829003601f168201915b5050505050905090565b6000610ad1826128fc565b506000908152600460205260409020546001600160a01b031690565b6000610af88261146d565b9050806001600160a01b0316836001600160a01b03161415610b6b5760405162461bcd60e51b815260206004820152602160248201527f4552433732313a20617070726f76616c20746f2063757272656e74206f776e656044820152603960f91b60648201526084015b60405180910390fd5b336001600160a01b0382161480610b875750610b878133610509565b610bf95760405162461bcd60e51b815260206004820152603d60248201527f4552433732313a20617070726f76652063616c6c6572206973206e6f7420746f60448201527f6b656e206f776e6572206f7220617070726f76656420666f7220616c6c0000006064820152608401610b62565b610c03838361295b565b505050565b610c106129c9565b60008281526011602052604090205460ff16610c665760405162461bcd60e51b815260206004820152601560248201527411985d1a195c88191bd95cc81b9bdd08195e1a5cdd605a1b6044820152606401610b62565b60008181526011602052604090205460ff16610cbc5760405162461bcd60e51b8152602060048201526015602482015274135bdd1a195c88191bd95cc81b9bdd08195e1a5cdd605a1b6044820152606401610b62565b600b546009541115610d105760405162461bcd60e51b815260206004820152601f60248201527f4f7574206f6620746f6b656e732c20636865636b206261636b206c61746572006044820152606401610b62565b600034118015610d225750600e543410155b610d6e5760405162461bcd60e51b815260206004820152601d60248201527f496e73756666696369656e742066756e6420666f72206d696e74696e670000006044820152606401610b62565b610d7c600980546001019055565b6000610d8760095490565b9050610d9281612a23565b610dd55760405162461bcd60e51b81526020600482015260146024820152731b5a5b9d1a5b99c81d5b9cdd58d8d95cdcd99d5b60621b6044820152606401610b62565b610ddd613b0a565b610de5611a13565b610dee83612b88565b604051602001610dff92919061412d565b60408051601f198184030181529181529082528051608081019091526042808252614700602083013960208083019190915260008581526010909152604090206006018054610e4d906140c0565b80601f0160208091040260200160405190810160405280929190818152602001828054610e79906140c0565b8015610ec65780601f10610e9b57610100808354040283529160200191610ec6565b820191906000526020600020905b815481529060010190602001808311610ea957829003601f168201915b505050506040808401929092525060008481526010602052206008018054610eed906140c0565b80601f0160208091040260200160405190810160405280929190818152602001828054610f19906140c0565b8015610f665780601f10610f3b57610100808354040283529160200191610f66565b820191906000526020600020905b815481529060010190602001808311610f4957829003601f168201915b50505050506080820152601454610f7f90426000612c25565b60a0820152600160c0820152600a610f9683612b88565b600d604051602001610faa93929190614204565b60408051601f198184030181529181526060830191909152600083815260106020908152919020825180518493600490930192610feb928492910190613b49565b5060208281015180516110049260018501920190613b49565b5060408201518051611020916002840191602090910190613b49565b506060820151805161103c916003840191602090910190613b49565b5060808201518051611058916004840191602090910190613b49565b5060a0820151600582015560c0909101516006909101805460ff1916911515919091179055600754611094906001600160a01b03165b34612c8d565b50506110a06001600855565b5050565b6110ae3382612ced565b6110ca5760405162461bcd60e51b8152600401610b6290614237565b610c03838383612d6c565b6110dd613acd565b600082815260106020908152604091829020825160a0810184528154815260018201546001600160a01b03169281019290925260028101548284015260038101546060830152825160e0810190935260048101805492939192608085019291908290829061114a906140c0565b80601f0160208091040260200160405190810160405280929190818152602001828054611176906140c0565b80156111c35780601f10611198576101008083540402835291602001916111c3565b820191906000526020600020905b8154815290600101906020018083116111a657829003601f168201915b505050505081526020016001820180546111dc906140c0565b80601f0160208091040260200160405190810160405280929190818152602001828054611208906140c0565b80156112555780601f1061122a57610100808354040283529160200191611255565b820191906000526020600020905b81548152906001019060200180831161123857829003601f168201915b5050505050815260200160028201805461126e906140c0565b80601f016020809104026020016040519081016040528092919081815260200182805461129a906140c0565b80156112e75780601f106112bc576101008083540402835291602001916112e7565b820191906000526020600020905b8154815290600101906020018083116112ca57829003601f168201915b50505050508152602001600382018054611300906140c0565b80601f016020809104026020016040519081016040528092919081815260200182805461132c906140c0565b80156113795780601f1061134e57610100808354040283529160200191611379565b820191906000526020600020905b81548152906001019060200180831161135c57829003601f168201915b50505050508152602001600482018054611392906140c0565b80601f01602080910402602001604051908101604052809291908181526020018280546113be906140c0565b801561140b5780601f106113e05761010080835404028352916020019161140b565b820191906000526020600020905b8154815290600101906020018083116113ee57829003601f168201915b50505091835250506005820154602082015260069091015460ff16151560409091015290525092915050565b610c0383838360405180602001604052806000815250611a3a565b61145a612ed0565b80516110a090600a906020840190613b49565b6000818152600260205260408120546001600160a01b0316806105775760405162461bcd60e51b8152602060048201526018602482015277115490cdcc8c4e881a5b9d985b1a59081d1bdad95b88125160421b6044820152606401610b62565b600a80546114da906140c0565b80601f0160208091040260200160405190810160405280929190818152602001828054611506906140c0565b80156115535780601f1061152857610100808354040283529160200191611553565b820191906000526020600020905b81548152906001019060200180831161153657829003601f168201915b505050505081565b60006001600160a01b0382166115c55760405162461bcd60e51b815260206004820152602960248201527f4552433732313a2061646472657373207a65726f206973206e6f7420612076616044820152683634b21037bbb732b960b91b6064820152608401610b62565b506001600160a01b031660009081526003602052604090205490565b6115e9612ed0565b6115f36000612f2a565b565b606061160060095490565b67ffffffffffffffff81111561161857611618613e9c565b60405190808252806020026020018201604052801561165157816020015b61163e613acd565b8152602001906001900390816116365790505b50905060005b600954811015611a0f576010600061167083600161408d565b81526020019081526020016000206040518060a0016040529081600082015481526020016001820160009054906101000a90046001600160a01b03166001600160a01b03166001600160a01b031681526020016002820154815260200160038201548152602001600482016040518060e00160405290816000820180546116f6906140c0565b80601f0160208091040260200160405190810160405280929190818152602001828054611722906140c0565b801561176f5780601f106117445761010080835404028352916020019161176f565b820191906000526020600020905b81548152906001019060200180831161175257829003601f168201915b50505050508152602001600182018054611788906140c0565b80601f01602080910402602001604051908101604052809291908181526020018280546117b4906140c0565b80156118015780601f106117d657610100808354040283529160200191611801565b820191906000526020600020905b8154815290600101906020018083116117e457829003601f168201915b5050505050815260200160028201805461181a906140c0565b80601f0160208091040260200160405190810160405280929190818152602001828054611846906140c0565b80156118935780601f1061186857610100808354040283529160200191611893565b820191906000526020600020905b81548152906001019060200180831161187657829003601f168201915b505050505081526020016003820180546118ac906140c0565b80601f01602080910402602001604051908101604052809291908181526020018280546118d8906140c0565b80156119255780601f106118fa57610100808354040283529160200191611925565b820191906000526020600020905b81548152906001019060200180831161190857829003601f168201915b5050505050815260200160048201805461193e906140c0565b80601f016020809104026020016040519081016040528092919081815260200182805461196a906140c0565b80156119b75780601f1061198c576101008083540402835291602001916119b7565b820191906000526020600020905b81548152906001019060200180831161199a57829003601f168201915b50505091835250506005820154602082015260069091015460ff16151560409091015290525082518390839081106119f1576119f16140fb565b60200260200101819052508080611a07906140a5565b915050611657565b5090565b606060018054610a43906140c0565b6110a0338383612f7c565b600d80546114da906140c0565b611a443383612ced565b611a605760405162461bcd60e51b8152600401610b6290614237565b611a6c8484848461304b565b50505050565b611a7a6129c9565b600b546009541115611ace5760405162461bcd60e51b815260206004820152601f60248201527f4f7574206f6620746f6b656e732c20636865636b206261636b206c61746572006044820152606401610b62565b600034118015611ae05750600e543410155b611b2c5760405162461bcd60e51b815260206004820152601d60248201527f496e73756666696369656e742066756e6420666f72206d696e74696e670000006044820152606401610b62565b611b3a600980546001019055565b6000611b4560095490565b9050611b5081612a23565b611b935760405162461bcd60e51b81526020600482015260146024820152731b5a5b9d1a5b99c81d5b9cdd58d8d95cdcd99d5b60621b6044820152606401610b62565b611b9b613b0a565b611ba3611a13565b611bac83612b88565b604051602001611bbd92919061412d565b60408051601f19818403018152918152908252805160608101909152603e8082526146826020830139602082015260128054611c0290611bfb61307e565b6000612c25565b81548110611c1257611c126140fb565b906000526020600020018054611c27906140c0565b80601f0160208091040260200160405190810160405280929190818152602001828054611c53906140c0565b8015611ca05780601f10611c7557610100808354040283529160200191611ca0565b820191906000526020600020905b815481529060010190602001808311611c8357829003601f168201915b5050505050604082015260138054611cba90611bfb61307e565b81548110611cca57611cca6140fb565b906000526020600020018054611cdf906140c0565b80601f0160208091040260200160405190810160405280929190818152602001828054611d0b906140c0565b8015611d585780601f10611d2d57610100808354040283529160200191611d58565b820191906000526020600020905b815481529060010190602001808311611d3b57829003601f168201915b50505050506080820152601454611d7190611bfb61307e565b60a0820152600a611d8183612b88565b600d604051602001611d9593929190614204565b60408051601f198184030181529181526060830191909152600083815260106020908152919020825180518493600490930192611dd6928492910190613b49565b506020828101518051611def9260018501920190613b49565b5060408201518051611e0b916002840191602090910190613b49565b5060608201518051611e27916003840191602090910190613b49565b5060808201518051611e43916004840191602090910190613b49565b5060a0820151600582015560c0909101516006909101805460ff1916911515919091179055600754611e7d906001600160a01b031661108e565b50506115f36001600855565b600c80546114da906140c0565b6000818152600260205260409020546060906001600160a01b0316611f155760405162461bcd60e51b815260206004820152602f60248201527f4552433732314d657461646174613a2055524920717565727920666f72206e6f60448201526e3732bc34b9ba32b73a103a37b5b2b760891b6064820152608401610b62565b61057782613099565b60606000805b600954811015611f795760106000611f3d83600161408d565b81526020810191909152604001600020600a015460ff1615611f675781611f63816140a5565b9250505b80611f71816140a5565b915050611f24565b508067ffffffffffffffff811115611f9357611f93613e9c565b604051908082528060200260200182016040528015611fcc57816020015b611fb9613acd565b815260200190600190039081611fb15790505b5091506000805b600954811015610a2e5760106000611fec83600161408d565b81526020810191909152604001600020600a015460ff16156123ad576010600061201783600161408d565b81526020019081526020016000206040518060a0016040529081600082015481526020016001820160009054906101000a90046001600160a01b03166001600160a01b03166001600160a01b031681526020016002820154815260200160038201548152602001600482016040518060e001604052908160008201805461209d906140c0565b80601f01602080910402602001604051908101604052809291908181526020018280546120c9906140c0565b80156121165780601f106120eb57610100808354040283529160200191612116565b820191906000526020600020905b8154815290600101906020018083116120f957829003601f168201915b5050505050815260200160018201805461212f906140c0565b80601f016020809104026020016040519081016040528092919081815260200182805461215b906140c0565b80156121a85780601f1061217d576101008083540402835291602001916121a8565b820191906000526020600020905b81548152906001019060200180831161218b57829003601f168201915b505050505081526020016002820180546121c1906140c0565b80601f01602080910402602001604051908101604052809291908181526020018280546121ed906140c0565b801561223a5780601f1061220f5761010080835404028352916020019161223a565b820191906000526020600020905b81548152906001019060200180831161221d57829003601f168201915b50505050508152602001600382018054612253906140c0565b80601f016020809104026020016040519081016040528092919081815260200182805461227f906140c0565b80156122cc5780601f106122a1576101008083540402835291602001916122cc565b820191906000526020600020905b8154815290600101906020018083116122af57829003601f168201915b505050505081526020016004820180546122e5906140c0565b80601f0160208091040260200160405190810160405280929190818152602001828054612311906140c0565b801561235e5780601f106123335761010080835404028352916020019161235e565b820191906000526020600020905b81548152906001019060200180831161234157829003601f168201915b50505091835250506005820154602082015260069091015460ff161515604090910152905250848361238f816140a5565b9450815181106123a1576123a16140fb565b60200260200101819052505b806123b7816140a5565b915050611fd3565b6123c7612ed0565b6001600160a01b03811661242c5760405162461bcd60e51b815260206004820152602660248201527f4f776e61626c653a206e6577206f776e657220697320746865207a65726f206160448201526564647265737360d01b6064820152608401610b62565b61243581612f2a565b50565b60606000805b600954811015612492576010600061245783600161408d565b81526020810191909152604001600020600a015460ff16612480578161247c816140a5565b9250505b8061248a816140a5565b91505061243e565b508067ffffffffffffffff8111156124ac576124ac613e9c565b6040519080825280602002602001820160405280156124e557816020015b6124d2613acd565b8152602001906001900390816124ca5790505b5091506000805b600954811015610a2e576010600061250583600161408d565b81526020810191909152604001600020600a015460ff166128c5576010600061252f83600161408d565b81526020019081526020016000206040518060a0016040529081600082015481526020016001820160009054906101000a90046001600160a01b03166001600160a01b03166001600160a01b031681526020016002820154815260200160038201548152602001600482016040518060e00160405290816000820180546125b5906140c0565b80601f01602080910402602001604051908101604052809291908181526020018280546125e1906140c0565b801561262e5780601f106126035761010080835404028352916020019161262e565b820191906000526020600020905b81548152906001019060200180831161261157829003601f168201915b50505050508152602001600182018054612647906140c0565b80601f0160208091040260200160405190810160405280929190818152602001828054612673906140c0565b80156126c05780601f10612695576101008083540402835291602001916126c0565b820191906000526020600020905b8154815290600101906020018083116126a357829003601f168201915b505050505081526020016002820180546126d9906140c0565b80601f0160208091040260200160405190810160405280929190818152602001828054612705906140c0565b80156127525780601f1061272757610100808354040283529160200191612752565b820191906000526020600020905b81548152906001019060200180831161273557829003601f168201915b5050505050815260200160038201805461276b906140c0565b80601f0160208091040260200160405190810160405280929190818152602001828054612797906140c0565b80156127e45780601f106127b9576101008083540402835291602001916127e4565b820191906000526020600020905b8154815290600101906020018083116127c757829003601f168201915b505050505081526020016004820180546127fd906140c0565b80601f0160208091040260200160405190810160405280929190818152602001828054612829906140c0565b80156128765780601f1061284b57610100808354040283529160200191612876565b820191906000526020600020905b81548152906001019060200180831161285957829003601f168201915b50505091835250506005820154602082015260069091015460ff16151560409091015290525084836128a7816140a5565b9450815181106128b9576128b96140fb565b60200260200101819052505b806128cf816140a5565b9150506124ec565b60006001600160e01b03198216632483248360e11b1480610577575061057782613453565b6000818152600260205260409020546001600160a01b03166124355760405162461bcd60e51b8152602060048201526018602482015277115490cdcc8c4e881a5b9d985b1a59081d1bdad95b88125160421b6044820152606401610b62565b600081815260046020526040902080546001600160a01b0319166001600160a01b03841690811790915581906129908261146d565b6001600160a01b03167f8c5be1e5ebec7d5bd14f71427d1e84f3dd0314c0f7b2291e5b200ac8c7c3b92560405160405180910390a45050565b60026008541415612a1c5760405162461bcd60e51b815260206004820152601f60248201527f5265656e7472616e637947756172643a207265656e7472616e742063616c6c006044820152606401610b62565b6002600855565b6000612a2f33836134a3565b612a4182612a3c84611e96565b6134bd565b612a49613acd565b828152336020820152346040820152612a6061307e565b6060820190815260008481526010602090815260409182902084518155818501516001820180546001600160a01b0319166001600160a01b039092169190911790559184015160028301559151600382015560808301518051805185946004850192612ad29284929190910190613b49565b506020828101518051612aeb9260018501920190613b49565b5060408201518051612b07916002840191602090910190613b49565b5060608201518051612b23916003840191602090910190613b49565b5060808201518051612b3f916004840191602090910190613b49565b5060a0820151600582015560c0909101516006909101805491151560ff199283161790556000958652601160205260409095208054909516600190811790955550929392505050565b60606000612b958361358f565b600101905060008167ffffffffffffffff811115612bb557612bb5613e9c565b6040519080825280601f01601f191660200182016040528015612bdf576020820181803683370190505b5090508181016020015b600019016f181899199a1a9b1b9c1cb0b131b232b360811b600a86061a8153600a8504945084612c1857612c1d565b612be9565b509392505050565b604080514260208201526bffffffffffffffffffffffff193360601b16918101919091526054810183905260748101829052600090819085906094016040516020818303038152906040528051906020012060001c612c84919061429a565b95945050505050565b6000826001600160a01b03168260405160006040518083038185875af1925050503d8060008114612cda576040519150601f19603f3d011682016040523d82523d6000602084013e612cdf565b606091505b5050905080610c0357600080fd5b600080612cf98361146d565b9050806001600160a01b0316846001600160a01b03161480612d4057506001600160a01b0380821660009081526005602090815260408083209388168352929052205460ff165b80612d645750836001600160a01b0316612d5984610ac6565b6001600160a01b0316145b949350505050565b826001600160a01b0316612d7f8261146d565b6001600160a01b031614612da55760405162461bcd60e51b8152600401610b62906142ae565b6001600160a01b038216612e075760405162461bcd60e51b8152602060048201526024808201527f4552433732313a207472616e7366657220746f20746865207a65726f206164646044820152637265737360e01b6064820152608401610b62565b826001600160a01b0316612e1a8261146d565b6001600160a01b031614612e405760405162461bcd60e51b8152600401610b62906142ae565b600081815260046020908152604080832080546001600160a01b03199081169091556001600160a01b0387811680865260038552838620805460001901905590871680865283862080546001019055868652600290945282852080549092168417909155905184937fddf252ad1be2c89b69c2b068fc378daa952ba7f163c4a11628f55a4df523b3ef91a4505050565b6007546001600160a01b031633146115f35760405162461bcd60e51b815260206004820181905260248201527f4f776e61626c653a2063616c6c6572206973206e6f7420746865206f776e65726044820152606401610b62565b600780546001600160a01b038381166001600160a01b0319831681179093556040519116919082907f8be0079c531659141344cd1fd0a4f28419497f9722a3daafe3b4186f6b6457e090600090a35050565b816001600160a01b0316836001600160a01b03161415612fde5760405162461bcd60e51b815260206004820152601960248201527f4552433732313a20617070726f766520746f2063616c6c6572000000000000006044820152606401610b62565b6001600160a01b03838116600081815260056020908152604080832094871680845294825291829020805460ff191686151590811790915591519182527f17307eab39ab6107e8899845ad3d59bd9653f200f220920489ca2b5937696c31910160405180910390a3505050565b613056848484612d6c565b61306284848484613667565b611a6c5760405162461bcd60e51b8152600401610b62906142f3565b60008061308d426103e8614345565b610577906103e861408d565b60606000601060008481526020019081526020016000206004016040518060e00160405290816000820180546130ce906140c0565b80601f01602080910402602001604051908101604052809291908181526020018280546130fa906140c0565b80156131475780601f1061311c57610100808354040283529160200191613147565b820191906000526020600020905b81548152906001019060200180831161312a57829003601f168201915b50505050508152602001600182018054613160906140c0565b80601f016020809104026020016040519081016040528092919081815260200182805461318c906140c0565b80156131d95780601f106131ae576101008083540402835291602001916131d9565b820191906000526020600020905b8154815290600101906020018083116131bc57829003601f168201915b505050505081526020016002820180546131f2906140c0565b80601f016020809104026020016040519081016040528092919081815260200182805461321e906140c0565b801561326b5780601f106132405761010080835404028352916020019161326b565b820191906000526020600020905b81548152906001019060200180831161324e57829003601f168201915b50505050508152602001600382018054613284906140c0565b80601f01602080910402602001604051908101604052809291908181526020018280546132b0906140c0565b80156132fd5780601f106132d2576101008083540402835291602001916132fd565b820191906000526020600020905b8154815290600101906020018083116132e057829003601f168201915b50505050508152602001600482018054613316906140c0565b80601f0160208091040260200160405190810160405280929190818152602001828054613342906140c0565b801561338f5780601f106133645761010080835404028352916020019161338f565b820191906000526020600020905b81548152906001019060200180831161337257829003601f168201915b50505091835250506005820154602082015260069091015460ff161515604090910152905060006133be61307e565b905060006133da836080015184604001518560a0015185613765565b905061342a6133e886612b88565b84516020860151600e546133fb90612b88565b87606001518660405160200161341696959493929190614364565b6040516020818303038152906040526137a7565b60405160200161343a9190614486565b6040516020818303038152906040529350505050919050565b60006001600160e01b031982166380ac58cd60e01b148061348457506001600160e01b03198216635b5e139f60e01b145b8061057757506301ffc9a760e01b6001600160e01b0319831614610577565b6110a082826040518060200160405280600081525061390f565b6000828152600260205260409020546001600160a01b03166135385760405162461bcd60e51b815260206004820152602e60248201527f45524337323155524953746f726167653a2055524920736574206f66206e6f6e60448201526d32bc34b9ba32b73a103a37b5b2b760911b6064820152608401610b62565b6000828152600660209081526040909120825161355792840190613b49565b506040518281527ff8e1a15aba9398e019f0b49df1a4fde98ee17ae345cb5f6b5e2c27f5033e8ce79060200160405180910390a15050565b60008072184f03e93ff9f4daa797ed6e38ed64bf6a1f0160401b83106135ce5772184f03e93ff9f4daa797ed6e38ed64bf6a1f0160401b830492506040015b6d04ee2d6d415b85acef810000000083106135fa576d04ee2d6d415b85acef8100000000830492506020015b662386f26fc10000831061361857662386f26fc10000830492506010015b6305f5e1008310613630576305f5e100830492506008015b612710831061364457612710830492506004015b60648310613656576064830492506002015b600a83106105775760010192915050565b60006001600160a01b0384163b1561375a57604051630a85bd0160e11b81526001600160a01b0385169063150b7a02906136ab9033908990889088906004016144cb565b6020604051808303816000875af19250505080156136e6575060408051601f3d908101601f191682019092526136e391810190614508565b60015b613740573d808015613714576040519150601f19603f3d011682016040523d82523d6000602084013e613719565b606091505b5080516137385760405162461bcd60e51b8152600401610b62906142f3565b805181602001fd5b6001600160e01b031916630a85bd0160e11b149050612d64565b506001949350505050565b6060848461377285612b88565b61377b85612b88565b60405160200161378e9493929190614525565b6040516020818303038152906040529050949350505050565b60608151600014156137c757505060408051602081019091526000815290565b60006040518060600160405280604081526020016146c060409139905060006003845160026137f6919061408d565b613800919061466d565b61380b906004614345565b9050600061381a82602061408d565b67ffffffffffffffff81111561383257613832613e9c565b6040519080825280601f01601f19166020018201604052801561385c576020820181803683370190505b509050818152600183018586518101602084015b818310156138ca5760039283018051603f601282901c811687015160f890811b8552600c83901c8216880151811b6001860152600683901c8216880151811b60028601529116860151901b93820193909352600401613870565b6003895106600181146138e457600281146138f557613901565b613d3d60f01b600119830152613901565b603d60f81b6000198301525b509398975050505050505050565b6139198383613942565b6139266000848484613667565b610c035760405162461bcd60e51b8152600401610b62906142f3565b6001600160a01b0382166139985760405162461bcd60e51b815260206004820181905260248201527f4552433732313a206d696e7420746f20746865207a65726f20616464726573736044820152606401610b62565b6000818152600260205260409020546001600160a01b0316156139fd5760405162461bcd60e51b815260206004820152601c60248201527f4552433732313a20746f6b656e20616c7265616479206d696e746564000000006044820152606401610b62565b6000818152600260205260409020546001600160a01b031615613a625760405162461bcd60e51b815260206004820152601c60248201527f4552433732313a20746f6b656e20616c7265616479206d696e746564000000006044820152606401610b62565b6001600160a01b038216600081815260036020908152604080832080546001019055848352600290915280822080546001600160a01b0319168417905551839291907fddf252ad1be2c89b69c2b068fc378daa952ba7f163c4a11628f55a4df523b3ef908290a45050565b6040518060a001604052806000815260200160006001600160a01b031681526020016000815260200160008152602001613b05613b0a565b905290565b6040518060e001604052806060815260200160608152602001606081526020016060815260200160608152602001600081526020016000151581525090565b828054613b55906140c0565b90600052602060002090601f016020900481019282613b775760008555613bbd565b82601f10613b9057805160ff1916838001178555613bbd565b82800160010185558215613bbd579182015b82811115613bbd578251825591602001919060010190613ba2565b50611a0f9291505b80821115611a0f5760008155600101613bc5565b6001600160e01b03198116811461243557600080fd5b600060208284031215613c0157600080fd5b8135613c0c81613bd9565b9392505050565b60005b83811015613c2e578181015183820152602001613c16565b83811115611a6c5750506000910152565b60008151808452613c57816020860160208601613c13565b601f01601f19169290920160200192915050565b8051825260018060a01b03602082015116602083015260408101516040830152606081015160608301526000608082015160a06080850152805160e060a0860152613cba610180860182613c3f565b90506020820151609f19808784030160c0880152613cd88383613c3f565b925060408401519150808784030160e0880152613cf58383613c3f565b9250606084015191508087840301610100880152613d138383613c3f565b925060808401519150808784030161012088015250613d328282613c3f565b60a084015161014088015260c090930151151561016090960195909552509392505050565b6000602080830181845280855180835260408601915060408160051b870101925083870160005b82811015613dac57603f19888603018452613d9a858351613c6b565b94509285019290850190600101613d7e565b5092979650505050505050565b602081526000613c0c6020830184613c3f565b600060208284031215613dde57600080fd5b5035919050565b80356001600160a01b0381168114613dfc57600080fd5b919050565b60008060408385031215613e1457600080fd5b613e1d83613de5565b946020939093013593505050565b60008060408385031215613e3e57600080fd5b50508035926020909101359150565b600080600060608486031215613e6257600080fd5b613e6b84613de5565b9250613e7960208501613de5565b9150604084013590509250925092565b602081526000613c0c6020830184613c6b565b634e487b7160e01b600052604160045260246000fd5b600067ffffffffffffffff80841115613ecd57613ecd613e9c565b604051601f8501601f19908116603f01168101908282118183101715613ef557613ef5613e9c565b81604052809350858152868686011115613f0e57600080fd5b858560208301376000602087830101525050509392505050565b600060208284031215613f3a57600080fd5b813567ffffffffffffffff811115613f5157600080fd5b8201601f81018413613f6257600080fd5b612d6484823560208401613eb2565b600060208284031215613f8357600080fd5b613c0c82613de5565b60008060408385031215613f9f57600080fd5b613fa883613de5565b915060208301358015158114613fbd57600080fd5b809150509250929050565b60008060008060808587031215613fde57600080fd5b613fe785613de5565b9350613ff560208601613de5565b925060408501359150606085013567ffffffffffffffff81111561401857600080fd5b8501601f8101871361402957600080fd5b61403887823560208401613eb2565b91505092959194509250565b6000806040838503121561405757600080fd5b61406083613de5565b915061406e60208401613de5565b90509250929050565b634e487b7160e01b600052601160045260246000fd5b600082198211156140a0576140a0614077565b500190565b60006000198214156140b9576140b9614077565b5060010190565b600181811c908216806140d457607f821691505b602082108114156140f557634e487b7160e01b600052602260045260246000fd5b50919050565b634e487b7160e01b600052603260045260246000fd5b60008151614123818560208601613c13565b9290920192915050565b6000835161413f818460208801613c13565b61202360f01b908301908152835161415e816002840160208801613c13565b01600201949350505050565b8054600090600181811c908083168061418457607f831692505b60208084108214156141a657634e487b7160e01b600052602260045260246000fd5b8180156141ba57600181146141cb576141f8565b60ff198616895284890196506141f8565b60008881526020902060005b868110156141f05781548b8201529085019083016141d7565b505084890196505b50505050505092915050565b6000614210828661416a565b8451614220818360208901613c13565b61422c8183018661416a565b979650505050505050565b6020808252602d908201527f4552433732313a2063616c6c6572206973206e6f7420746f6b656e206f776e6560408201526c1c881bdc88185c1c1c9bdd9959609a1b606082015260800190565b634e487b7160e01b600052601260045260246000fd5b6000826142a9576142a9614284565b500690565b60208082526025908201527f4552433732313a207472616e736665722066726f6d20696e636f72726563742060408201526437bbb732b960d91b606082015260800190565b60208082526032908201527f4552433732313a207472616e7366657220746f206e6f6e20455243373231526560408201527131b2b4bb32b91034b6b83632b6b2b73a32b960711b606082015260800190565b600081600019048311821515161561435f5761435f614077565b500290565b663d9134b2111d1160c91b81528651600090614387816007850160208c01613c13565b691116113730b6b2911d1160b11b60079184019182015287516143b1816011840160208c01613c13565b701116113232b9b1b934b83a34b7b7111d1160791b6011929091019182015286516143e3816022840160208b01613c13565b6a111611383934b1b2911d1160a91b60229290910191820152855161440f81602d840160208a01613c13565b6a11161134b6b0b3b2911d1160a91b602d9290910191820152845161443b816038840160208901613c13565b61447861446b6144656038848601016e11161130ba3a3934b13aba32b9911d60891b8152600f0190565b87614111565b607d60f81b815260010190565b9a9950505050505050505050565b7f646174613a6170706c69636174696f6e2f6a736f6e3b6261736536342c0000008152600082516144be81601d850160208701613c13565b91909101601d0192915050565b6001600160a01b03858116825284166020820152604081018390526080606082018190526000906144fe90830184613c3f565b9695505050505050565b60006020828403121561451a57600080fd5b8151613c0c81613bd9565b7f5b7b2274726169745f74797065223a22456e7669726f6e6d656e74222c227661815265363ab2911d1160d11b60208201526000855161456c816026850160208a01613c13565b62089f4b60ea1b60269184019182018190527f7b2274726169745f74797065223a22576561706f6e222c2276616c7565223a22602983015286516145b7816049850160208b01613c13565b604992019182018190527f7b2274726169745f74797065223a22526172697479222c2276616c7565223a22604c83015285516145fa81606c850160208a01613c13565b606c9201918201527f7b22646973706c61795f74797065223a2264617465222c2274726169745f7479606f8201527f7065223a2243726561746564222c2276616c7565223a22000000000000000000608f82015261422c61465e60a6830186614111565b62227d5d60e81b815260030190565b60008261467c5761467c614284565b50049056fe546869732069732061206d696e7465642041492067656e65726174656420617274776f726b7320617661696c61626c6520666f7220796f7572207573652e4142434445464748494a4b4c4d4e4f505152535455565758595a6162636465666768696a6b6c6d6e6f707172737475767778797a303132333435363738392b2f5468697320697320616e20696e686572697465642041492067656e65726174656420617274776f726b7320617661696c61626c6520666f7220796f7572207573652ea264697066735822122012ab058467bfc4b21bcf29666f302891745fe11f5ac1174b8377700d1ddff0ad64736f6c634300080b0033",
  "linkReferences": {},
  "deployedLinkReferences": {}
}