{
  "_format": "hh-sol-artifact-1",
  "contractName": "DappBreed",
  "sourceName": "src/contracts/DappBreed.sol",
  "abi": [
    {
      "inputs": [
        {
          "internalType": "string",
          "name": "_name",
          "type": "string"
        },
        {
          "internalType": "string",
          "name": "_symbol",
          "type": "string"
        },
        {
          "internalType": "string",
          "name": "_BaseURI",
          "type": "string"
        },
        {
          "internalType": "uint256",
          "name": "_maxSupply",
          "type": "uint256"
        }
      ],
      "stateMutability": "nonpayable",
      "type": "constructor"
    },
    {
      "anonymous": false,
      "inputs": [
        {
          "indexed": true,
          "internalType": "address",
          "name": "owner",
          "type": "address"
        },
        {
          "indexed": true,
          "internalType": "address",
          "name": "approved",
          "type": "address"
        },
        {
          "indexed": true,
          "internalType": "uint256",
          "name": "tokenId",
          "type": "uint256"
        }
      ],
      "name": "Approval",
      "type": "event"
    },
    {
      "anonymous": false,
      "inputs": [
        {
          "indexed": true,
          "internalType": "address",
          "name": "owner",
          "type": "address"
        },
        {
          "indexed": true,
          "internalType": "address",
          "name": "operator",
          "type": "address"
        },
        {
          "indexed": false,
          "internalType": "bool",
          "name": "approved",
          "type": "bool"
        }
      ],
      "name": "ApprovalForAll",
      "type": "event"
    },
    {
      "anonymous": false,
      "inputs": [
        {
          "indexed": false,
          "internalType": "uint256",
          "name": "_fromTokenId",
          "type": "uint256"
        },
        {
          "indexed": false,
          "internalType": "uint256",
          "name": "_toTokenId",
          "type": "uint256"
        }
      ],
      "name": "BatchMetadataUpdate",
      "type": "event"
    },
    {
      "anonymous": false,
      "inputs": [
        {
          "indexed": false,
          "internalType": "uint256",
          "name": "_tokenId",
          "type": "uint256"
        }
      ],
      "name": "MetadataUpdate",
      "type": "event"
    },
    {
      "anonymous": false,
      "inputs": [
        {
          "indexed": true,
          "internalType": "address",
          "name": "previousOwner",
          "type": "address"
        },
        {
          "indexed": true,
          "internalType": "address",
          "name": "newOwner",
          "type": "address"
        }
      ],
      "name": "OwnershipTransferred",
      "type": "event"
    },
    {
      "anonymous": false,
      "inputs": [
        {
          "indexed": true,
          "internalType": "address",
          "name": "from",
          "type": "address"
        },
        {
          "indexed": true,
          "internalType": "address",
          "name": "to",
          "type": "address"
        },
        {
          "indexed": true,
          "internalType": "uint256",
          "name": "tokenId",
          "type": "uint256"
        }
      ],
      "name": "Transfer",
      "type": "event"
    },
    {
      "inputs": [
        {
          "internalType": "address",
          "name": "to",
          "type": "address"
        },
        {
          "internalType": "uint256",
          "name": "tokenId",
          "type": "uint256"
        }
      ],
      "name": "approve",
      "outputs": [],
      "stateMutability": "nonpayable",
      "type": "function"
    },
    {
      "inputs": [
        {
          "internalType": "address",
          "name": "owner",
          "type": "address"
        }
      ],
      "name": "balanceOf",
      "outputs": [
        {
          "internalType": "uint256",
          "name": "",
          "type": "uint256"
        }
      ],
      "stateMutability": "view",
      "type": "function"
    },
    {
      "inputs": [],
      "name": "baseExtension",
      "outputs": [
        {
          "internalType": "string",
          "name": "",
          "type": "string"
        }
      ],
      "stateMutability": "view",
      "type": "function"
    },
    {
      "inputs": [],
      "name": "baseURI",
      "outputs": [
        {
          "internalType": "string",
          "name": "",
          "type": "string"
        }
      ],
      "stateMutability": "view",
      "type": "function"
    },
    {
      "inputs": [
        {
          "internalType": "uint256",
          "name": "_fatherTokenId",
          "type": "uint256"
        },
        {
          "internalType": "uint256",
          "name": "_motherTokenId",
          "type": "uint256"
        }
      ],
      "name": "breedNft",
      "outputs": [],
      "stateMutability": "payable",
      "type": "function"
    },
    {
      "inputs": [
        {
          "internalType": "uint256",
          "name": "tokenId",
          "type": "uint256"
        }
      ],
      "name": "getApproved",
      "outputs": [
        {
          "internalType": "address",
          "name": "",
          "type": "address"
        }
      ],
      "stateMutability": "view",
      "type": "function"
    },
    {
      "inputs": [
        {
          "internalType": "uint256",
          "name": "_tokenId",
          "type": "uint256"
        }
      ],
      "name": "getMintedNft",
      "outputs": [
        {
          "components": [
            {
              "internalType": "uint256",
              "name": "id",
              "type": "uint256"
            },
            {
              "internalType": "address",
              "name": "owner",
              "type": "address"
            },
            {
              "internalType": "uint256",
              "name": "mintCost",
              "type": "uint256"
            },
            {
              "internalType": "string",
              "name": "baseURI",
              "type": "string"
            },
            {
              "internalType": "uint256",
              "name": "timestamp",
              "type": "uint256"
            }
          ],
          "internalType": "struct DappBreed.MintStruct",
          "name": "",
          "type": "tuple"
        }
      ],
      "stateMutability": "view",
      "type": "function"
    },
    {
      "inputs": [],
      "name": "getMintedNfts",
      "outputs": [
        {
          "components": [
            {
              "internalType": "uint256",
              "name": "id",
              "type": "uint256"
            },
            {
              "internalType": "address",
              "name": "owner",
              "type": "address"
            },
            {
              "internalType": "uint256",
              "name": "mintCost",
              "type": "uint256"
            },
            {
              "internalType": "string",
              "name": "baseURI",
              "type": "string"
            },
            {
              "internalType": "uint256",
              "name": "timestamp",
              "type": "uint256"
            }
          ],
          "internalType": "struct DappBreed.MintStruct[]",
          "name": "Minted",
          "type": "tuple[]"
        }
      ],
      "stateMutability": "view",
      "type": "function"
    },
    {
      "inputs": [
        {
          "internalType": "uint256",
          "name": "_tokenId",
          "type": "uint256"
        }
      ],
      "name": "getTrait",
      "outputs": [
        {
          "components": [
            {
              "internalType": "uint256",
              "name": "tokenId",
              "type": "uint256"
            },
            {
              "internalType": "string",
              "name": "name",
              "type": "string"
            },
            {
              "internalType": "string",
              "name": "description",
              "type": "string"
            },
            {
              "internalType": "string",
              "name": "weapon",
              "type": "string"
            },
            {
              "internalType": "string",
              "name": "environment",
              "type": "string"
            },
            {
              "internalType": "uint256",
              "name": "rarity",
              "type": "uint256"
            }
          ],
          "internalType": "struct DappBreed.TraitStruct",
          "name": "",
          "type": "tuple"
        }
      ],
      "stateMutability": "view",
      "type": "function"
    },
    {
      "inputs": [],
      "name": "imageExtension",
      "outputs": [
        {
          "internalType": "string",
          "name": "",
          "type": "string"
        }
      ],
      "stateMutability": "view",
      "type": "function"
    },
    {
      "inputs": [
        {
          "internalType": "address",
          "name": "owner",
          "type": "address"
        },
        {
          "internalType": "address",
          "name": "operator",
          "type": "address"
        }
      ],
      "name": "isApprovedForAll",
      "outputs": [
        {
          "internalType": "bool",
          "name": "",
          "type": "bool"
        }
      ],
      "stateMutability": "view",
      "type": "function"
    },
    {
      "inputs": [],
      "name": "maxSupply",
      "outputs": [
        {
          "internalType": "uint256",
          "name": "",
          "type": "uint256"
        }
      ],
      "stateMutability": "view",
      "type": "function"
    },
    {
      "inputs": [],
      "name": "mintCost",
      "outputs": [
        {
          "internalType": "uint256",
          "name": "",
          "type": "uint256"
        }
      ],
      "stateMutability": "view",
      "type": "function"
    },
    {
      "inputs": [],
      "name": "mintNft",
      "outputs": [],
      "stateMutability": "payable",
      "type": "function"
    },
    {
      "inputs": [],
      "name": "name",
      "outputs": [
        {
          "internalType": "string",
          "name": "",
          "type": "string"
        }
      ],
      "stateMutability": "view",
      "type": "function"
    },
    {
      "inputs": [],
      "name": "owner",
      "outputs": [
        {
          "internalType": "address",
          "name": "",
          "type": "address"
        }
      ],
      "stateMutability": "view",
      "type": "function"
    },
    {
      "inputs": [
        {
          "internalType": "uint256",
          "name": "tokenId",
          "type": "uint256"
        }
      ],
      "name": "ownerOf",
      "outputs": [
        {
          "internalType": "address",
          "name": "",
          "type": "address"
        }
      ],
      "stateMutability": "view",
      "type": "function"
    },
    {
      "inputs": [],
      "name": "renounceOwnership",
      "outputs": [],
      "stateMutability": "nonpayable",
      "type": "function"
    },
    {
      "inputs": [
        {
          "internalType": "address",
          "name": "from",
          "type": "address"
        },
        {
          "internalType": "address",
          "name": "to",
          "type": "address"
        },
        {
          "internalType": "uint256",
          "name": "tokenId",
          "type": "uint256"
        }
      ],
      "name": "safeTransferFrom",
      "outputs": [],
      "stateMutability": "nonpayable",
      "type": "function"
    },
    {
      "inputs": [
        {
          "internalType": "address",
          "name": "from",
          "type": "address"
        },
        {
          "internalType": "address",
          "name": "to",
          "type": "address"
        },
        {
          "internalType": "uint256",
          "name": "tokenId",
          "type": "uint256"
        },
        {
          "internalType": "bytes",
          "name": "data",
          "type": "bytes"
        }
      ],
      "name": "safeTransferFrom",
      "outputs": [],
      "stateMutability": "nonpayable",
      "type": "function"
    },
    {
      "inputs": [
        {
          "internalType": "address",
          "name": "operator",
          "type": "address"
        },
        {
          "internalType": "bool",
          "name": "approved",
          "type": "bool"
        }
      ],
      "name": "setApprovalForAll",
      "outputs": [],
      "stateMutability": "nonpayable",
      "type": "function"
    },
    {
      "inputs": [
        {
          "internalType": "string",
          "name": "_newBaseURI",
          "type": "string"
        }
      ],
      "name": "setBaseURI",
      "outputs": [],
      "stateMutability": "nonpayable",
      "type": "function"
    },
    {
      "inputs": [
        {
          "internalType": "bytes4",
          "name": "interfaceId",
          "type": "bytes4"
        }
      ],
      "name": "supportsInterface",
      "outputs": [
        {
          "internalType": "bool",
          "name": "",
          "type": "bool"
        }
      ],
      "stateMutability": "view",
      "type": "function"
    },
    {
      "inputs": [],
      "name": "symbol",
      "outputs": [
        {
          "internalType": "string",
          "name": "",
          "type": "string"
        }
      ],
      "stateMutability": "view",
      "type": "function"
    },
    {
      "inputs": [
        {
          "internalType": "uint256",
          "name": "_tokenId",
          "type": "uint256"
        }
      ],
      "name": "tokenURI",
      "outputs": [
        {
          "internalType": "string",
          "name": "",
          "type": "string"
        }
      ],
      "stateMutability": "view",
      "type": "function"
    },
    {
      "inputs": [],
      "name": "totalBalance",
      "outputs": [
        {
          "internalType": "uint256",
          "name": "",
          "type": "uint256"
        }
      ],
      "stateMutability": "view",
      "type": "function"
    },
    {
      "inputs": [
        {
          "internalType": "address",
          "name": "from",
          "type": "address"
        },
        {
          "internalType": "address",
          "name": "to",
          "type": "address"
        },
        {
          "internalType": "uint256",
          "name": "tokenId",
          "type": "uint256"
        }
      ],
      "name": "transferFrom",
      "outputs": [],
      "stateMutability": "nonpayable",
      "type": "function"
    },
    {
      "inputs": [
        {
          "internalType": "address",
          "name": "newOwner",
          "type": "address"
        }
      ],
      "name": "transferOwnership",
      "outputs": [],
      "stateMutability": "nonpayable",
      "type": "function"
    }
  ],
  "bytecode": "0x60c06040526005608081905264173539b7b760d91b60a09081526200002891600c9190620003ba565b506040805180820190915260058082526402e776562760dc1b60209092019182526200005791600d91620003ba565b506611c37937e08000600e5560408051610140810182526005610100820181815264537469636b60d81b610120840152825282518084018452818152644b6e69666560d81b602082810191909152808401919091528351808501855282815264426c61646560d81b818301528385015283518085018552600481526321b63ab160e11b818301526060840152835180850185526002815261082f60f31b818301526080840152835180850185528281526414dddbdc9960da1b8183015260a0840152835180850185529182526429b832b0b960d91b8282015260c08301919091528251808401909352600783526612185b18995c9960ca1b9083015260e08101919091526200016b90601390600862000449565b5060408051610140810182526005610100820190815264537061636560d81b6101208301528152815180830183526003815262536b7960e81b60208281019190915280830191909152825180840184526007808252664465736572747360c81b82840152838501919091528351808501855290815266466f726573747360c81b81830152606083015282518084018452600a81526947726173736c616e647360b01b8183015260808301528251808401845260098152684d6f756e7461696e7360b81b8183015260a08301528251808401845260068152654f6365616e7360d01b8183015260c08301528251808401909352600b83526a5261696e666f726573747360a81b9083015260e08101919091526200028c90601490600862000449565b5060408051600580825260c08201909252906020820160a08036833750508151620002bf926015925060200190620004a9565b50348015620002cd57600080fd5b5060405162003e3c38038062003e3c833981016040819052620002f0916200062d565b83518490849062000309906000906020850190620003ba565b5080516200031f906001906020840190620003ba565b5050506200033c620003366200036460201b60201c565b62000368565b600160085581516200035690600a906020850190620003ba565b50600b555062000703915050565b3390565b600780546001600160a01b038381166001600160a01b0319831681179093556040519116919082907f8be0079c531659141344cd1fd0a4f28419497f9722a3daafe3b4186f6b6457e090600090a35050565b828054620003c890620006c6565b90600052602060002090601f016020900481019282620003ec576000855562000437565b82601f106200040757805160ff191683800117855562000437565b8280016001018555821562000437579182015b82811115620004375782518255916020019190600101906200041a565b5062000445929150620004e6565b5090565b8280548282559060005260206000209081019282156200049b579160200282015b828111156200049b57825180516200048a918491602090910190620003ba565b50916020019190600101906200046a565b5062000445929150620004fd565b828054828255906000526020600020908101928215620004375791602002820182811115620004375782518255916020019190600101906200041a565b5b80821115620004455760008155600101620004e7565b80821115620004455760006200051482826200051e565b50600101620004fd565b5080546200052c90620006c6565b6000825580601f106200053d575050565b601f0160209004906000526020600020908101906200055d9190620004e6565b50565b634e487b7160e01b600052604160045260246000fd5b600082601f8301126200058857600080fd5b81516001600160401b0380821115620005a557620005a562000560565b604051601f8301601f19908116603f01168101908282118183101715620005d057620005d062000560565b81604052838152602092508683858801011115620005ed57600080fd5b600091505b83821015620006115785820183015181830184015290820190620005f2565b83821115620006235760008385830101525b9695505050505050565b600080600080608085870312156200064457600080fd5b84516001600160401b03808211156200065c57600080fd5b6200066a8883890162000576565b955060208701519150808211156200068157600080fd5b6200068f8883890162000576565b94506040870151915080821115620006a657600080fd5b50620006b58782880162000576565b606096909601519497939650505050565b600181811c90821680620006db57607f821691505b60208210811415620006fd57634e487b7160e01b600052602260045260246000fd5b50919050565b61372980620007136000396000f3fe6080604052600436106101b75760003560e01c806395d89b41116100ec578063c2229fea1161008a578063d5abeb0111610064578063d5abeb01146104a3578063e985e9c5146104b9578063f2fde38b14610502578063fc8a16a01461052257600080fd5b8063c2229fea14610466578063c66828621461046e578063c87b56dd1461048357600080fd5b8063acb586df116100c6578063acb586df146103ed578063ad7a672f1461041a578063b88d4fde14610430578063bdb4b8481461045057600080fd5b806395d89b41146103a3578063a22cb465146103b8578063a9ef3aeb146103d857600080fd5b806355f804b3116101595780636ef61600116101335780636ef616001461031557806370a0823114610342578063715018a6146103705780638da5cb5b1461038557600080fd5b806355f804b3146102c05780636352211e146102e05780636c0360eb1461030057600080fd5b8063095ea7b311610195578063095ea7b31461024b57806311f5a1d41461026d57806323b872dd1461028057806342842e0e146102a057600080fd5b806301ffc9a7146101bc57806306fdde03146101f1578063081812fc14610213575b600080fd5b3480156101c857600080fd5b506101dc6101d7366004612b28565b610544565b60405190151581526020015b60405180910390f35b3480156101fd57600080fd5b50610206610555565b6040516101e89190612b9d565b34801561021f57600080fd5b5061023361022e366004612bb0565b6105e7565b6040516001600160a01b0390911681526020016101e8565b34801561025757600080fd5b5061026b610266366004612be5565b61060e565b005b61026b61027b366004612c0f565b610729565b34801561028c57600080fd5b5061026b61029b366004612c31565b610b1e565b3480156102ac57600080fd5b5061026b6102bb366004612c31565b610b4f565b3480156102cc57600080fd5b5061026b6102db366004612cf9565b610b6a565b3480156102ec57600080fd5b506102336102fb366004612bb0565b610b85565b34801561030c57600080fd5b50610206610be5565b34801561032157600080fd5b50610335610330366004612bb0565b610c73565b6040516101e89190612d91565b34801561034e57600080fd5b5061036261035d366004612da4565b610d65565b6040519081526020016101e8565b34801561037c57600080fd5b5061026b610deb565b34801561039157600080fd5b506007546001600160a01b0316610233565b3480156103af57600080fd5b50610206610dff565b3480156103c457600080fd5b5061026b6103d3366004612dbf565b610e0e565b3480156103e457600080fd5b50610206610e19565b3480156103f957600080fd5b5061040d610408366004612bb0565b610e26565b6040516101e89190612dfb565b34801561042657600080fd5b50610362600f5481565b34801561043c57600080fd5b5061026b61044b366004612e91565b6110af565b34801561045c57600080fd5b50610362600e5481565b61026b6110e7565b34801561047a57600080fd5b50610206611561565b34801561048f57600080fd5b5061020661049e366004612bb0565b61156e565b3480156104af57600080fd5b50610362600b5481565b3480156104c557600080fd5b506101dc6104d4366004612f0d565b6001600160a01b03918216600090815260056020908152604080832093909416825291909152205460ff1690565b34801561050e57600080fd5b5061026b61051d366004612da4565b6115f6565b34801561052e57600080fd5b5061053761166f565b6040516101e89190612f40565b600061054f82611803565b92915050565b60606000805461056490612fa2565b80601f016020809104026020016040519081016040528092919081815260200182805461059090612fa2565b80156105dd5780601f106105b2576101008083540402835291602001916105dd565b820191906000526020600020905b8154815290600101906020018083116105c057829003601f168201915b5050505050905090565b60006105f282611828565b506000908152600460205260409020546001600160a01b031690565b600061061982610b85565b9050806001600160a01b0316836001600160a01b0316141561068c5760405162461bcd60e51b815260206004820152602160248201527f4552433732313a20617070726f76616c20746f2063757272656e74206f776e656044820152603960f91b60648201526084015b60405180910390fd5b336001600160a01b03821614806106a857506106a881336104d4565b61071a5760405162461bcd60e51b815260206004820152603d60248201527f4552433732313a20617070726f76652063616c6c6572206973206e6f7420746f60448201527f6b656e206f776e6572206f7220617070726f76656420666f7220616c6c0000006064820152608401610683565b6107248383611887565b505050565b6107316118f5565b60008281526012602052604090205460ff166107875760405162461bcd60e51b815260206004820152601560248201527411985d1a195c88191bd95cc81b9bdd08195e1a5cdd605a1b6044820152606401610683565b60008181526012602052604090205460ff166107dd5760405162461bcd60e51b8152602060048201526015602482015274135bdd1a195c88191bd95cc81b9bdd08195e1a5cdd605a1b6044820152606401610683565b600b5460095411156108315760405162461bcd60e51b815260206004820152601f60248201527f4f7574206f6620746f6b656e732c20636865636b206261636b206c61746572006044820152606401610683565b6000341180156108435750600e543410155b61088f5760405162461bcd60e51b815260206004820152601d60248201527f496e73756666696369656e742066756e6420666f72206d696e74696e670000006044820152606401610683565b61089d600980546001019055565b60006108a860095490565b90506108b4813361194f565b6108f75760405162461bcd60e51b81526020600482015260146024820152731b5a5b9d1a5b99c81d5b9cdd58d8d95cdcd99d5b60621b6044820152606401610683565b6108ff612a0b565b81815261090a610dff565b61091383611a9f565b61091c86611a9f565b60405160200161092e93929190612ff9565b60405160208183030381529060405281602001819052506040518060600160405280602f8152602001613685602f91396040808301919091526000858152601160209081529082902091516109879260030191016130fd565b60408051601f1981840301815291815260608301919091526000848152601160209081529082902091516109bf92600401910161312f565b6040516020818303038152906040528160800181905250610a2f6015805480602002602001604051908101604052809291908181526020018280548015610a2557602002820191906000526020600020905b815481526020019060010190808311610a11575b5050505050611b3c565b60a0820152610a4f610a496007546001600160a01b031690565b34611bc1565b6000828152601160209081526040909120825181558183015180518493610a7d926001850192910190612a41565b5060408201518051610a99916002840191602090910190612a41565b5060608201518051610ab5916003840191602090910190612a41565b5060808201518051610ad1916004840191602090910190612a41565b5060a0820151816005015590505034600f6000828254610af19190613181565b9091555050506000908152601260205260409020805460ff19166001179055610b1a6001600855565b5050565b610b283382611c21565b610b445760405162461bcd60e51b815260040161068390613199565b610724838383611ca0565b610724838383604051806020016040528060008152506110af565b610b72611e04565b8051610b1a90600a906020840190612a41565b6000818152600260205260408120546001600160a01b03168061054f5760405162461bcd60e51b8152602060048201526018602482015277115490cdcc8c4e881a5b9d985b1a59081d1bdad95b88125160421b6044820152606401610683565b600a8054610bf290612fa2565b80601f0160208091040260200160405190810160405280929190818152602001828054610c1e90612fa2565b8015610c6b5780601f10610c4057610100808354040283529160200191610c6b565b820191906000526020600020905b815481529060010190602001808311610c4e57829003601f168201915b505050505081565b610c7b612ac5565b600082815260106020908152604091829020825160a0810184528154815260018201546001600160a01b031692810192909252600281015492820192909252600382018054919291606084019190610cd290612fa2565b80601f0160208091040260200160405190810160405280929190818152602001828054610cfe90612fa2565b8015610d4b5780601f10610d2057610100808354040283529160200191610d4b565b820191906000526020600020905b815481529060010190602001808311610d2e57829003601f168201915b505050505081526020016004820154815250509050919050565b60006001600160a01b038216610dcf5760405162461bcd60e51b815260206004820152602960248201527f4552433732313a2061646472657373207a65726f206973206e6f7420612076616044820152683634b21037bbb732b960b91b6064820152608401610683565b506001600160a01b031660009081526003602052604090205490565b610df3611e04565b610dfd6000611e5e565b565b60606001805461056490612fa2565b610b1a338383611eb0565b600d8054610bf290612fa2565b610e2e612a0b565b601160008381526020019081526020016000206040518060c001604052908160008201548152602001600182018054610e6690612fa2565b80601f0160208091040260200160405190810160405280929190818152602001828054610e9290612fa2565b8015610edf5780601f10610eb457610100808354040283529160200191610edf565b820191906000526020600020905b815481529060010190602001808311610ec257829003601f168201915b50505050508152602001600282018054610ef890612fa2565b80601f0160208091040260200160405190810160405280929190818152602001828054610f2490612fa2565b8015610f715780601f10610f4657610100808354040283529160200191610f71565b820191906000526020600020905b815481529060010190602001808311610f5457829003601f168201915b50505050508152602001600382018054610f8a90612fa2565b80601f0160208091040260200160405190810160405280929190818152602001828054610fb690612fa2565b80156110035780601f10610fd857610100808354040283529160200191611003565b820191906000526020600020905b815481529060010190602001808311610fe657829003601f168201915b5050505050815260200160048201805461101c90612fa2565b80601f016020809104026020016040519081016040528092919081815260200182805461104890612fa2565b80156110955780601f1061106a57610100808354040283529160200191611095565b820191906000526020600020905b81548152906001019060200180831161107857829003601f168201915b505050505081526020016005820154815250509050919050565b6110b93383611c21565b6110d55760405162461bcd60e51b815260040161068390613199565b6110e184848484611f7f565b50505050565b6110ef6118f5565b600b5460095411156111435760405162461bcd60e51b815260206004820152601f60248201527f4f7574206f6620746f6b656e732c20636865636b206261636b206c61746572006044820152606401610683565b6000341180156111555750600e543410155b6111a15760405162461bcd60e51b815260206004820152601d60248201527f496e73756666696369656e742066756e6420666f72206d696e74696e670000006044820152606401610683565b6111af600980546001019055565b60006111ba60095490565b90506111c6813361194f565b6112095760405162461bcd60e51b81526020600482015260146024820152731b5a5b9d1a5b99c81d5b9cdd58d8d95cdcd99d5b60621b6044820152606401610683565b611211612a0b565b81815261121c610dff565b61122583611a9f565b6040516020016112369291906131e6565b60405160208183030381529060405281602001819052506040518060600160405280602f8152602001613685602f913981604001819052506113486013805480602002602001604051908101604052809291908181526020016000905b8282101561133f5783829060005260206000200180546112b290612fa2565b80601f01602080910402602001604051908101604052809291908181526020018280546112de90612fa2565b801561132b5780601f106113005761010080835404028352916020019161132b565b820191906000526020600020905b81548152906001019060200180831161130e57829003601f168201915b505050505081526020019060010190611293565b50505050611fb2565b81606001819052506114216014805480602002602001604051908101604052809291908181526020016000905b8282101561133f57838290600052602060002001805461139490612fa2565b80601f01602080910402602001604051908101604052809291908181526020018280546113c090612fa2565b801561140d5780601f106113e25761010080835404028352916020019161140d565b820191906000526020600020905b8154815290600101906020018083116113f057829003601f168201915b505050505081526020019060010190611375565b6080820152601580546040805160208084028201810190925282815261147c9390929091830182828015610a255760200282019190600052602060002090815481526020019060010190808311610a11575050505050611b3c565b60a0820152611496610a496007546001600160a01b031690565b60008281526011602090815260409091208251815581830151805184936114c4926001850192910190612a41565b50604082015180516114e0916002840191602090910190612a41565b50606082015180516114fc916003840191602090910190612a41565b5060808201518051611518916004840191602090910190612a41565b5060a0820151816005015590505034600f60008282546115389190613181565b9091555050506000908152601260205260409020805460ff19166001179055610dfd6001600855565b600c8054610bf290612fa2565b6000818152600260205260409020546060906001600160a01b03166115ed5760405162461bcd60e51b815260206004820152602f60248201527f4552433732314d657461646174613a2055524920717565727920666f72206e6f60448201526e3732bc34b9ba32b73a103a37b5b2b760891b6064820152608401610683565b61054f8261202d565b6115fe611e04565b6001600160a01b0381166116635760405162461bcd60e51b815260206004820152602660248201527f4f776e61626c653a206e6577206f776e657220697320746865207a65726f206160448201526564647265737360d01b6064820152608401610683565b61166c81611e5e565b50565b6060600061167c60095490565b90508067ffffffffffffffff81111561169757611697612c6d565b6040519080825280602002602001820160405280156116d057816020015b6116bd612ac5565b8152602001906001900390816116b55790505b50915060005b818110156117fe57601060006116ed836001613181565b81526020808201929092526040908101600020815160a0810183528154815260018201546001600160a01b03169381019390935260028101549183019190915260038101805460608401919061174290612fa2565b80601f016020809104026020016040519081016040528092919081815260200182805461176e90612fa2565b80156117bb5780601f10611790576101008083540402835291602001916117bb565b820191906000526020600020905b81548152906001019060200180831161179e57829003601f168201915b505050505081526020016004820154815250508382815181106117e0576117e0613223565b602002602001018190525080806117f690613239565b9150506116d6565b505090565b60006001600160e01b03198216632483248360e11b148061054f575061054f82612376565b6000818152600260205260409020546001600160a01b031661166c5760405162461bcd60e51b8152602060048201526018602482015277115490cdcc8c4e881a5b9d985b1a59081d1bdad95b88125160421b6044820152606401610683565b600081815260046020526040902080546001600160a01b0319166001600160a01b03841690811790915581906118bc82610b85565b6001600160a01b03167f8c5be1e5ebec7d5bd14f71427d1e84f3dd0314c0f7b2291e5b200ac8c7c3b92560405160405180910390a45050565b600260085414156119485760405162461bcd60e51b815260206004820152601f60248201527f5265656e7472616e637947756172643a207265656e7472616e742063616c6c006044820152606401610683565b6002600855565b600061195b82846123c6565b61196d836119688561156e565b6123e0565b6040518060a00160405280848152602001836001600160a01b03168152602001348152602001600a80546119a090612fa2565b80601f01602080910402602001604051908101604052809291908181526020018280546119cc90612fa2565b8015611a195780601f106119ee57610100808354040283529160200191611a19565b820191906000526020600020905b8154815290600101906020018083116119fc57829003601f168201915b50505050508152602001611a2b6124b2565b905260008481526010602090815260409182902083518155838201516001820180546001600160a01b0319166001600160a01b0390921691909117905591830151600283015560608301518051611a889260038501920190612a41565b506080919091015160049091015550600192915050565b60606000611aac836124cd565b600101905060008167ffffffffffffffff811115611acc57611acc612c6d565b6040519080825280601f01601f191660200182016040528015611af6576020820181803683370190505b5090508181016020015b600019016f181899199a1a9b1b9c1cb0b131b232b360811b600a86061a8153600a8504945084611b2f57611b34565b611b00565b509392505050565b60008082514233604051602001611b6f92919091825260601b6bffffffffffffffffffffffff1916602082015260340190565b6040516020818303038152906040528051906020012060001c611b92919061326a565b9050828181518110611ba657611ba6613223565b60200260200101516001611bba9190613181565b9392505050565b6000826001600160a01b03168260405160006040518083038185875af1925050503d8060008114611c0e576040519150601f19603f3d011682016040523d82523d6000602084013e611c13565b606091505b505090508061072457600080fd5b600080611c2d83610b85565b9050806001600160a01b0316846001600160a01b03161480611c7457506001600160a01b0380821660009081526005602090815260408083209388168352929052205460ff165b80611c985750836001600160a01b0316611c8d846105e7565b6001600160a01b0316145b949350505050565b826001600160a01b0316611cb382610b85565b6001600160a01b031614611cd95760405162461bcd60e51b81526004016106839061327e565b6001600160a01b038216611d3b5760405162461bcd60e51b8152602060048201526024808201527f4552433732313a207472616e7366657220746f20746865207a65726f206164646044820152637265737360e01b6064820152608401610683565b826001600160a01b0316611d4e82610b85565b6001600160a01b031614611d745760405162461bcd60e51b81526004016106839061327e565b600081815260046020908152604080832080546001600160a01b03199081169091556001600160a01b0387811680865260038552838620805460001901905590871680865283862080546001019055868652600290945282852080549092168417909155905184937fddf252ad1be2c89b69c2b068fc378daa952ba7f163c4a11628f55a4df523b3ef91a4505050565b6007546001600160a01b03163314610dfd5760405162461bcd60e51b815260206004820181905260248201527f4f776e61626c653a2063616c6c6572206973206e6f7420746865206f776e65726044820152606401610683565b600780546001600160a01b038381166001600160a01b0319831681179093556040519116919082907f8be0079c531659141344cd1fd0a4f28419497f9722a3daafe3b4186f6b6457e090600090a35050565b816001600160a01b0316836001600160a01b03161415611f125760405162461bcd60e51b815260206004820152601960248201527f4552433732313a20617070726f766520746f2063616c6c6572000000000000006044820152606401610683565b6001600160a01b03838116600081815260056020908152604080832094871680845294825291829020805460ff191686151590811790915591519182527f17307eab39ab6107e8899845ad3d59bd9653f200f220920489ca2b5937696c31910160405180910390a3505050565b611f8a848484611ca0565b611f96848484846125a5565b6110e15760405162461bcd60e51b8152600401610683906132c3565b6060600082514233604051602001611fe692919091825260601b6bffffffffffffffffffffffff1916602082015260340190565b6040516020818303038152906040528051906020012060001c612009919061326a565b905082818151811061201d5761201d613223565b6020026020010151915050919050565b6000818152601160209081526040808320815160c0810190925280548252600181018054606095948401919061206290612fa2565b80601f016020809104026020016040519081016040528092919081815260200182805461208e90612fa2565b80156120db5780601f106120b0576101008083540402835291602001916120db565b820191906000526020600020905b8154815290600101906020018083116120be57829003601f168201915b505050505081526020016002820180546120f490612fa2565b80601f016020809104026020016040519081016040528092919081815260200182805461212090612fa2565b801561216d5780601f106121425761010080835404028352916020019161216d565b820191906000526020600020905b81548152906001019060200180831161215057829003601f168201915b5050505050815260200160038201805461218690612fa2565b80601f01602080910402602001604051908101604052809291908181526020018280546121b290612fa2565b80156121ff5780601f106121d4576101008083540402835291602001916121ff565b820191906000526020600020905b8154815290600101906020018083116121e257829003601f168201915b5050505050815260200160048201805461221890612fa2565b80601f016020809104026020016040519081016040528092919081815260200182805461224490612fa2565b80156122915780601f1061226657610100808354040283529160200191612291565b820191906000526020600020905b81548152906001019060200180831161227457829003601f168201915b50505050508152602001600582015481525050905060006122b06124b2565b90506000600a6122bf86611a9f565b600d6040516020016122d393929190613315565b604051602081830303815290604052905060006122fe846080015185606001518660a00151866126a3565b905061234c61230c87611a9f565b85602001518660400151612321600e54611a9f565b868660405160200161233896959493929190613348565b6040516020818303038152906040526126e5565b60405160200161235c919061346a565b604051602081830303815290604052945050505050919050565b60006001600160e01b031982166380ac58cd60e01b14806123a757506001600160e01b03198216635b5e139f60e01b145b8061054f57506301ffc9a760e01b6001600160e01b031983161461054f565b610b1a82826040518060200160405280600081525061284d565b6000828152600260205260409020546001600160a01b031661245b5760405162461bcd60e51b815260206004820152602e60248201527f45524337323155524953746f726167653a2055524920736574206f66206e6f6e60448201526d32bc34b9ba32b73a103a37b5b2b760911b6064820152608401610683565b6000828152600660209081526040909120825161247a92840190612a41565b506040518281527ff8e1a15aba9398e019f0b49df1a4fde98ee17ae345cb5f6b5e2c27f5033e8ce79060200160405180910390a15050565b6000806124c1426103e86134af565b61054f906103e8613181565b60008072184f03e93ff9f4daa797ed6e38ed64bf6a1f0160401b831061250c5772184f03e93ff9f4daa797ed6e38ed64bf6a1f0160401b830492506040015b6d04ee2d6d415b85acef81000000008310612538576d04ee2d6d415b85acef8100000000830492506020015b662386f26fc10000831061255657662386f26fc10000830492506010015b6305f5e100831061256e576305f5e100830492506008015b612710831061258257612710830492506004015b60648310612594576064830492506002015b600a831061054f5760010192915050565b60006001600160a01b0384163b1561269857604051630a85bd0160e11b81526001600160a01b0385169063150b7a02906125e99033908990889088906004016134ce565b6020604051808303816000875af1925050508015612624575060408051601f3d908101601f191682019092526126219181019061350b565b60015b61267e573d808015612652576040519150601f19603f3d011682016040523d82523d6000602084013e612657565b606091505b5080516126765760405162461bcd60e51b8152600401610683906132c3565b805181602001fd5b6001600160e01b031916630a85bd0160e11b149050611c98565b506001949350505050565b606084846126b085611a9f565b6126b985611a9f565b6040516020016126cc9493929190613528565b6040516020818303038152906040529050949350505050565b606081516000141561270557505060408051602081019091526000815290565b60006040518060600160405280604081526020016136b460409139905060006003845160026127349190613181565b61273e9190613670565b6127499060046134af565b90506000612758826020613181565b67ffffffffffffffff81111561277057612770612c6d565b6040519080825280601f01601f19166020018201604052801561279a576020820181803683370190505b509050818152600183018586518101602084015b818310156128085760039283018051603f601282901c811687015160f890811b8552600c83901c8216880151811b6001860152600683901c8216880151811b60028601529116860151901b938201939093526004016127ae565b60038951066001811461282257600281146128335761283f565b613d3d60f01b60011983015261283f565b603d60f81b6000198301525b509398975050505050505050565b6128578383612880565b61286460008484846125a5565b6107245760405162461bcd60e51b8152600401610683906132c3565b6001600160a01b0382166128d65760405162461bcd60e51b815260206004820181905260248201527f4552433732313a206d696e7420746f20746865207a65726f20616464726573736044820152606401610683565b6000818152600260205260409020546001600160a01b03161561293b5760405162461bcd60e51b815260206004820152601c60248201527f4552433732313a20746f6b656e20616c7265616479206d696e746564000000006044820152606401610683565b6000818152600260205260409020546001600160a01b0316156129a05760405162461bcd60e51b815260206004820152601c60248201527f4552433732313a20746f6b656e20616c7265616479206d696e746564000000006044820152606401610683565b6001600160a01b038216600081815260036020908152604080832080546001019055848352600290915280822080546001600160a01b0319168417905551839291907fddf252ad1be2c89b69c2b068fc378daa952ba7f163c4a11628f55a4df523b3ef908290a45050565b6040518060c001604052806000815260200160608152602001606081526020016060815260200160608152602001600081525090565b828054612a4d90612fa2565b90600052602060002090601f016020900481019282612a6f5760008555612ab5565b82601f10612a8857805160ff1916838001178555612ab5565b82800160010185558215612ab5579182015b82811115612ab5578251825591602001919060010190612a9a565b50612ac1929150612afd565b5090565b6040518060a001604052806000815260200160006001600160a01b031681526020016000815260200160608152602001600081525090565b5b80821115612ac15760008155600101612afe565b6001600160e01b03198116811461166c57600080fd5b600060208284031215612b3a57600080fd5b8135611bba81612b12565b60005b83811015612b60578181015183820152602001612b48565b838111156110e15750506000910152565b60008151808452612b89816020860160208601612b45565b601f01601f19169290920160200192915050565b602081526000611bba6020830184612b71565b600060208284031215612bc257600080fd5b5035919050565b80356001600160a01b0381168114612be057600080fd5b919050565b60008060408385031215612bf857600080fd5b612c0183612bc9565b946020939093013593505050565b60008060408385031215612c2257600080fd5b50508035926020909101359150565b600080600060608486031215612c4657600080fd5b612c4f84612bc9565b9250612c5d60208501612bc9565b9150604084013590509250925092565b634e487b7160e01b600052604160045260246000fd5b600067ffffffffffffffff80841115612c9e57612c9e612c6d565b604051601f8501601f19908116603f01168101908282118183101715612cc657612cc6612c6d565b81604052809350858152868686011115612cdf57600080fd5b858560208301376000602087830101525050509392505050565b600060208284031215612d0b57600080fd5b813567ffffffffffffffff811115612d2257600080fd5b8201601f81018413612d3357600080fd5b611c9884823560208401612c83565b8051825260018060a01b036020820151166020830152604081015160408301526000606082015160a06060850152612d7d60a0850182612b71565b608093840151949093019390935250919050565b602081526000611bba6020830184612d42565b600060208284031215612db657600080fd5b611bba82612bc9565b60008060408385031215612dd257600080fd5b612ddb83612bc9565b915060208301358015158114612df057600080fd5b809150509250929050565b60208152815160208201526000602083015160c06040840152612e2160e0840182612b71565b90506040840151601f1980858403016060860152612e3f8383612b71565b92506060860151915080858403016080860152612e5c8383612b71565b925060808601519150808584030160a086015250612e7a8282612b71565b91505060a084015160c08401528091505092915050565b60008060008060808587031215612ea757600080fd5b612eb085612bc9565b9350612ebe60208601612bc9565b925060408501359150606085013567ffffffffffffffff811115612ee157600080fd5b8501601f81018713612ef257600080fd5b612f0187823560208401612c83565b91505092959194509250565b60008060408385031215612f2057600080fd5b612f2983612bc9565b9150612f3760208401612bc9565b90509250929050565b6000602080830181845280855180835260408601915060408160051b870101925083870160005b82811015612f9557603f19888603018452612f83858351612d42565b94509285019290850190600101612f67565b5092979650505050505050565b600181811c90821680612fb657607f821691505b60208210811415612fd757634e487b7160e01b600052602260045260246000fd5b50919050565b60008151612fef818560208601612b45565b9290920192915050565b6000845161300b818460208901612b45565b61202360f01b908301908152845161302a816002840160208901612b45565b6a206368696c64206f66202360a81b60029290910191820152835161305681600d840160208801612b45565b01600d0195945050505050565b8054600090600181811c908083168061307d57607f831692505b602080841082141561309f57634e487b7160e01b600052602260045260246000fd5b8180156130b357600181146130c4576130f1565b60ff198616895284890196506130f1565b60008881526020902060005b868110156130e95781548b8201529085019083016130d0565b505084890196505b50505050505092915050565b7f496e686572697465642046617468657220776561706f6e206f6620230000000081526000611bba601c830184613063565b7f496e68657269746564204d6f7468657220656e7669726f6e6d656e74206f66208152602360f81b60208201526000611bba6021830184613063565b634e487b7160e01b600052601160045260246000fd5b600082198211156131945761319461316b565b500190565b6020808252602d908201527f4552433732313a2063616c6c6572206973206e6f7420746f6b656e206f776e6560408201526c1c881bdc88185c1c1c9bdd9959609a1b606082015260800190565b600083516131f8818460208801612b45565b61202360f01b9083019081528351613217816002840160208801612b45565b01600201949350505050565b634e487b7160e01b600052603260045260246000fd5b600060001982141561324d5761324d61316b565b5060010190565b634e487b7160e01b600052601260045260246000fd5b60008261327957613279613254565b500690565b60208082526025908201527f4552433732313a207472616e736665722066726f6d20696e636f72726563742060408201526437bbb732b960d91b606082015260800190565b60208082526032908201527f4552433732313a207472616e7366657220746f206e6f6e20455243373231526560408201527131b2b4bb32b91034b6b83632b6b2b73a32b960711b606082015260800190565b60006133218286613063565b8451613331818360208901612b45565b61333d81830186613063565b979650505050505050565b663d9134b2111d1160c91b8152865160009061336b816007850160208c01612b45565b691116113730b6b2911d1160b11b6007918401918201528751613395816011840160208c01612b45565b701116113232b9b1b934b83a34b7b7111d1160791b6011929091019182015286516133c7816022840160208b01612b45565b6a111611383934b1b2911d1160a91b6022929091019182015285516133f381602d840160208a01612b45565b6a11161134b6b0b3b2911d1160a91b602d9290910191820152845161341f816038840160208901612b45565b61345c61344f6134496038848601016e11161130ba3a3934b13aba32b9911d60891b8152600f0190565b87612fdd565b607d60f81b815260010190565b9a9950505050505050505050565b7f646174613a6170706c69636174696f6e2f6a736f6e3b6261736536342c0000008152600082516134a281601d850160208701612b45565b91909101601d0192915050565b60008160001904831182151516156134c9576134c961316b565b500290565b6001600160a01b038581168252841660208201526040810183905260806060820181905260009061350190830184612b71565b9695505050505050565b60006020828403121561351d57600080fd5b8151611bba81612b12565b7f5b7b2274726169745f74797065223a22456e7669726f6e6d656e74222c227661815265363ab2911d1160d11b60208201526000855161356f816026850160208a01612b45565b62089f4b60ea1b60269184019182018190527f7b2274726169745f74797065223a22576561706f6e222c2276616c7565223a22602983015286516135ba816049850160208b01612b45565b604992019182018190527f7b2274726169745f74797065223a22526172697479222c2276616c7565223a22604c83015285516135fd81606c850160208a01612b45565b606c9201918201527f7b22646973706c61795f74797065223a2264617465222c2274726169745f7479606f8201527f7065223a2243726561746564222c2276616c7565223a22000000000000000000608f82015261333d61366160a6830186612fdd565b62227d5d60e81b815260030190565b60008261367f5761367f613254565b50049056fe416d617a696e672041492067656e65726174656420617274776f726b7320616c6c20666f7220796f7572207573652e4142434445464748494a4b4c4d4e4f505152535455565758595a6162636465666768696a6b6c6d6e6f707172737475767778797a303132333435363738392b2fa2646970667358221220fa3deefd52dff814a4a3b57fce4564a43ef7fa04d8beb7a6236ccf5507cf228e64736f6c634300080b0033",
  "linkReferences": {},
  "deployedLinkReferences": {}
}